:020000040800F2
:10000000F01600206102000841200008891E000847
:100010003D200008E5170008ED260008000000005C
:10002000000000000000000000000000B9210008EE
:10003000D11D000800000000BD2000089922000822
:100040007B0200087B0200087B0200087B0200089C
:100050007B0200087B0200087B0200087B0200088C
:100060007B0200087B0200087B0200087B0200087C
:100070007B0200087B0200087B0200087B0200086C
:100080007B0200087B0200087B0200087B0200085C
:100090007B0200087B0200087B0200087B0200084C
:1000A0007B0200087B0200087B0200087B0200083C
:1000B000F52200087B0200087B0200087B02000892
:1000C0007B0200087B0200087B0200087B0200081C
:1000D0007B020008F5230008612400087B02000869
:1000E0007B0200087B0200087B0200087B020008FC
:1000F0007B0200087B0200087B0200087B020008EC
:100100007B0200087B0200087B0200087B020008DB
:100110007B0200087B0200087B0200087B020008CB
:100120007B0200087B0200087B0200087B020008BB
:100130007B0200087B0200087B0200087B020008AB
:100140007B0200087B0200087B0200087B0200089B
:100150007B0200087B0200085D1900087B02000892
:100160007B0200087B0200087B0200087B0200087B
:100170007B0200087B0200087B0200087B0200086B
:100180007B0200087B02000800F002F800F059F83A
:100190000AA090E8000C82448344AAF10107DA45E2
:1001A00001D100F04EF8AFF2090EBAE80F0013F0DB
:1001B000010F18BFFB1A43F001031847A471000098
:1001C000C4710000103A24BF78C878C1FAD8520729
:1001D00024BF30C830C144BF04680C6070470000C1
:1001E0000023002400250026103A28BF78C1FBD840
:1001F000520728BF30C148BF0B607047662906F020
:100200009486782900F08280002070471FB506F0A0
:100210007AFE9DE8030000F071FD00F04FFD040040
:100220000020002105F0FAFFE06000F0ADFE00F0D4
:10023000FBF91FBD10B5002000F042FF00F00DFFDC
:1002400010BD00F07BFF1146FFF7E0FF03F01AFF3F
:1002500000F062F903B4FFF7EDFF03BC03F0DCFE2E
:100260000948804709480047FEE7FEE7FEE7FEE74A
:10027000FEE7FEE7FEE7FEE7FEE7FEE70448054986
:10028000054A064B704700009D22000889010008BE
:10029000F0020020F0160020F0120020F0120020E2
:1002A000704700000FB4044910B503AA029800F08B
:1002B0009BFC10BC5DF814FB8C00002070B504465C
:1002C00085690068C10601D5302600E02026C007F8
:1002D00007D070BDD4E9012130469047206A401C08
:1002E00020626D1EF6D570BD70B504468569007834
:1002F000C00707D170BDD4E9012120209047206AB2
:10030000401C20626D1EF6D570BD000070B504461D
:100310000D4621461068AFF300802188090502D5FB
:100320000F4A7A4402E00E4A7A440E32002104F168
:10033000240305E000F00F060009965D5E54491C99
:100340000028F7D120780023000704D5702D02D0B3
:1003500009B1022311322046BDE8704000F0DDB93A
:10036000F86C00002DE9F05F894604464FF0000A62
:10037000DFF874B1FB44C0F820A02046E16888474C
:10038000002874D0252806D0D4E901219047206A9E
:10039000401C2062F1E700265F462046E16888475E
:1003A0002028054607DB312D05D2781910F8200CDE
:1003B00008B10643F1E7B00701D526F00406C4F8FA
:1003C0001CA00027C4F818A02A2D09D0284605F043
:1003D000DBFE38B304EB8708303DC8F8185019E04D
:1003E00059F8041B204604EB87029161E1688847B5
:1003F000012F054618D1E069002820DA26F02006F2
:100400001DE0D8F8180000EB800005EB4000303804
:10041000C8F818002046E1688847054605F0B4FE94
:100420000028EED1012F0AD02E2D08D12046E168F8
:1004300088477F1C0546022F46F02006C4DBA069D2
:10044000002803DA404246F00106A061F00701D01F
:1004500026F010066C2D0BD0682D09D04C2D39D00C
:100460006A2D35D0742D35D07A2D33D016E038E092
:10047000E1682F4620468847B842054609D16C2FCF
:1004800026D04FF48060E168064320468847054641
:1004900004E06C2F1AD04FF4807006430DB3A5F121
:1004A0004100192802D8203546F400664A462946FC
:1004B000204626604E46FFF7A1FE80B101280BD0F2
:1004C000F61D26F0070000F1080956E74020E4E792
:1004D0008020D8E70020D6E706F104094DE728463A
:1004E00052E7206ABDE8F09FCE6C000010B50446CC
:1004F00003E003F0BDFD401C09D014F8010B0549D1
:100500000028F6D1BDE810400A2003F0B1BD4FF03D
:10051000FF3010BD8C00002010B50446AFF3008002
:100520002046BDE81040FFF795BE10B5002000F052
:1005300084FBFFF77FFEBDE81040012003F06CBD97
:100540000B460146184600F061BB032A40F230809A
:1005500010F0030C00F0158011F8013BBCF1020F04
:10056000624498BF11F801CB00F8013B38BF11F885
:10057000013BA2F1040298BF00F801CB38BF00F89C
:10058000013B11F0030300F05F83083AC0F00880DC
:1005900051F8043B083A51F804CBA0E80810F5E7FD
:1005A000121D5CBF51F8043B40F8043BAFF30080E0
:1005B000D20724BF11F8013B11F801CB48BF11F855
:1005C000012B24BF00F8013B00F801CB48BF00F825
:1005D000012B70474FF0000200B513469446964633
:1005E000203922BFA0E80C50A0E80C50B1F1200146
:1005F000BFF4F7AF090728BFA0E80C5048BF0CC0F4
:100600005DF804EB890028BF40F8042B08BF704751
:1006100048BF20F8022B11F0804F18BF00F8012BC3
:10062000704770477047704770B5064C7C44064D64
:100630007D4404E02046016808448047241DAC4204
:10064000F8D170BD6C6D0000706D00007047000047
:10065000004870473401002070B5064600F02AFBC0
:10066000056806F10B0020F00704B4429CBF00208F
:1006700070BD2B466A68BAB11068A04210D304F16D
:10068000080188423CBF5068586007D35168101970
:1006900041601168091B016058601460101D70BD35
:1006A00013465268002AE7D12146284600F012FB83
:1006B0000028DED170BD70B50446051F00F0FAFABF
:1006C0000068002C14BF446870BD002C18BFAC42F9
:1006D0003CBF20466468F8D301680A18AA4218BFD4
:1006E000456003D12A680546114401602868411914
:1006F000A1421CBF6C6070BD6168696021680844DC
:10070000286070BD10B5FFF7A3FF006810BD10B5DD
:100710000446FFF79DFF046010BD2DE9F0470D462C
:1007200099469246044600F124080168880604D5DB
:10073000E06921F01001216000E00120A84201DD04
:10074000471B00E00027A1697A1902EB0900081A8B
:10075000A0612078C00602D42046FFF7AFFD002636
:1007600008E0D4E901211AF806009047206A401CED
:10077000761C20624E45F4DB2078C0060AD5204660
:10078000FFF79CFD06E0D4E9012130209047206A64
:10079000401C2062381EA7F10107F4DC07E0D4E911
:1007A000012118F805009047206A401C2062281E8D
:1007B000A5F10105F3DC2046FFF796FD2078000641
:1007C00002D50220BDE8F0870120FBE72DE9FF4FAD
:1007D0000C461E464FF0FF378BB0D2E90001DDF822
:1007E00060800A908A46C1F30A5505B93D4600214A
:1007F00008464FF00000BAF1000F00F4400005DA9F
:1008000000EB80004FF4400101EA50004FEA90599C
:10081000B9F1010F00DDB9460A9850EA4A000ED03E
:1008200044F61050A5F2FF3545432F14B8F1000FE0
:100830001ED07542291E1EDDC9F100021CE0B8F170
:10084000010F4FF0000001D0302103E0F24305E03A
:100850002154401CB042FBDB3046002200212154D1
:100860000B99C1F80880C1E900200FB0BDE8F08FF6
:10087000BD1B6D1CDEE74A4600DA694206A800F09F
:1008800011FB06AB93E8070003AB83E80700504673
:100890000A9903F03AFD8DE80700A0F500501F38D3
:1008A00000900398002D0ADD42F21F014A460844D9
:1008B000002303A90390684603F0A3FF09E0A0F515
:1008C00000504A461F38002303A90390684603F0EE
:1008D000ADFF8DE807000004000C03D04FF0FF309F
:1008E000410800E01046B8F1000F03D0002200924A
:1008F00015461EE0751E05D400F036FA30326255FA
:100900006D1EF9D5B3460122084302D000227F1C98
:1009100004E02078302801D100227F1E002A0997A8
:1009200084D01DE0112D07DA00F01EFA3032625536
:100930006D1C50EA0102F5D1084302D00098C8B1FD
:100940000EE00021681E05E0235C625C63542254C3
:10095000401E491C8142F7DBAB46A81B401E099094
:10096000002004F80B000B98099AC0F80880C0E931
:10097000002B7AE711264FF0000857E72DE9F04FDA
:1009800088460446D21D22F0070191B0D1E900014A
:10099000CDE90A0104F081F802460B98C00F01D09E
:1009A0002D2007E02068810701D52B2002E02021BF
:1009B00001EAC000032A099001D0072A05DB03469B
:1009C0004146204600F02EFA0BE12078800601D542
:1009D000E06900E00620B8F1650F814606D0B8F165
:1009E000660F18D0B8F1670F70D131E00020B9F16F
:1009F000110F009001DB112301E009F101030AAAA4
:100A000001A90CA8FFF7E2FEDDE90C70002609F150
:100A10000105834647E001204B4600904FF0004718
:100A20000AAA01A90CA8FFF7D1FEDDE90DB00C99C7
:100A30005D46002610B909F101000D18B9EB05005B
:100A400003D4C0F1FF3609F10105A5EB09002BE045
:100A5000B9F1010F01DA4FF001090020B9F1110FCE
:100A60000090484601DD112300E003460AAA01A9CF
:100A70000CA8FFF7ABFEDDE90C704D46002683465F
:100A8000207800070AD4AB4500DA5D4601A8012DA5
:100A900004DD411911F8011C302907D04F4502DA55
:100AA00017F1040F04DA012082460FE06D1EEEE715
:100AB000002F02DCED1B3E4403E0781CA84200DD61
:100AC0007D1CB81B00F1010A4FF000472078000799
:100AD00003D4AA4501DB4FF0FF3A0021B7F1004FE4
:100AE0000DF143088DF8431024D002202B23002F52
:100AF00001DA7F422D230A21021EA0F1010000DC51
:100B00005FB197FBF1FC97FBF1F201FB1C7C1746F0
:100B10000CF1300C08F801CDEEE7A8F101000370EC
:100B20002188090501D5452100E06521A0F10108D2
:100B300000F8011C09980FA9A1EB0807FF1D00B1DF
:100B40000120411901EBEA70A1693844081A401EDE
:100B5000A0612078C00602D42046FFF7AFFB0998B9
:100B600028B1D4E901219047206A401C20622078F6
:100B7000C00622D52046FFF7A1FB1EE0002E04DBB5
:100B8000B34502DD01A8805D00E03020D4E90121F9
:100B90009047206A401C2062761CAAF101005FEA9F
:100BA000000A0AD100F08AF8C0680168405CD4E904
:100BB00001219047206A401C2062281EA5F10105F2
:100BC000DCDC07E0D4E9012118F8010B9047206A2A
:100BD000401C2062381EA7F10107F3DC2046FFF716
:100BE00083FB032011B041E6074B70B50D467B44F3
:100BF00000F005F90446284603F036FA10B14FF02C
:100C0000FF3070BD204670BD7F3400002DE9F041FB
:100C1000074615460E461020FFF71EFD04000AD0B9
:100C20006760C4E9026500F04DF801682160046066
:100C30000020BDE8F0810120FBE710B500F066FA66
:100C4000BDE8104000F05DBA10B5203AC0F00B804E
:100C5000B1E81850A0E81850B1E81850A0E81850B2
:100C6000203ABFF4F5AF5FEA027C24BFB1E8185028
:100C7000A0E8185044BF18C918C0BDE810405FEA8A
:100C8000827C24BF51F8043B40F8043B08BF704706
:100C9000D20728BF31F8023B48BF11F8012B28BF0B
:100CA00020F8023B48BF00F8012B7047004870470E
:100CB00034010020004870473C0100200048704784
:100CC00054010020004870476C01002070477047B5
:100CD0007047704738B504460A4600206946AFF3AE
:100CE0000080002808BF38BD02460099204600F069
:100CF0004AFA012038BD012000F040BBF8B5AFF33F
:100D00000080054600200C46102000BF0646A819AA
:100D1000A0420DD9324669460020AFF3008007009B
:100D200008BF00F02BFB0098A04218BF0546C4196D
:100D3000FFF7C0FF05600746F01D20F007004619C9
:100D4000284600F00AF8B44208BFF8BDA21B31469D
:100D50003868BDE8F84000F016BA00210160C0E92B
:100D6000011070471020704730B5B0F10A0271F1E0
:100D700000034FEA900E4EEA817EB0EB0E0061EB6D
:100D800091014FEA101E4EEA017E10EB0E0041EB7E
:100D900011114FEA102E4EEA016E10EB0E0041EBDE
:100DA00011214FEA104E4EEA014E10EB0E0041EBBE
:100DB0001141401841F100014FEAD00040EA417072
:100DC0004FEAD1014FEA810444EA907410EB8005A8
:100DD00044EB01046D1944EB0404521BA3414FF092
:100DE000000348BF0A3200D530BD401C41F100016C
:100DF00030BD000001694A1C02610878704700B5E7
:100E00008FB0CDE901310021059105497944CDE943
:100E1000031011466846FFF7A5FA0FB000BD0000A9
:100E2000E5FFFFFF2DE9F0411F4604460326016858
:100E3000072A01F4006004DB08B116A505E016A539
:100E400003E008B115A500E015A521F01000206011
:100E5000A069C01EA0610FB1401EA0612046FFF72F
:100E60002DFA4FB1D4E9012138469047206A401C41
:100E70002062C01C206206E0206AFAE7D4E9012162
:100E800015F8010B9047761EF8D22046FFF72CFA92
:100E9000BDE8F0814E414E006E616E00494E460045
:100EA000696E66002DE9F047814616468AB03548DE
:100EB00078440DC88DE80D0032487844801C03AC9E
:100EC0000DC884E80D0041F69B300844372190FBA3
:100ED000F1F290FBF1F5A5F1800501FB12041B3C3A
:100EE00002D56442012000E00020DFF898A080468F
:100EF0000027FA44AAF1BE0A0EE0E0070AD0324603
:100F0000684607EB470101230AEB810103F08EFCE1
:100F10008DE8070064107F1C002CEED1194F7F4430
:100F2000AE3F19E0E80715D007EB04100DF1180AE1
:100F300090E80E008AE80E00C068F04201D19819CE
:100F400008903246012306A903A803F06FFC03AB07
:100F500083E807006D10641C002DE3D14FF00103FE
:100F600032466946B8F1000F03A802D003F049FCED
:100F700001E003F05BFCC9E90001C9F808200AB0F0
:100F8000BDE8F0872064000010B542485421FFF707
:100F900021FB41485421FFF71DFB40485421FFF736
:100FA00019FB3F493B483C4A3F4B08603D490A60BA
:100FB0003A491960531C0365481C106501200865F7
:100FC0003B48344A39A1784400F01AF920B938482E
:100FD00078440A3800F0CBF937482F4A35A17844D5
:100FE00000F00EF920B9344878440A3800F0BFF90F
:100FF00032482A4A2FA1784400F002F920B92F483C
:1010000078440A3800F0B3F940232248DC0000217C
:10101000224600F0D2F820B125487844543800F038
:10102000A6F91D4822464023002100F0C6F820B151
:1010300021487844543800F09AF918482246102381
:10104000002100F0BAF8002806D01C487844BDE81A
:101050001040563800F08BB910BD104870B5006DC7
:1010600020F001040B4800F043F90B4800F040F970
:101070000A4800F03DF909E0206D20F00105204606
:1010800000F036F92046FFF716FB2C46002CF3D172
:1010900070BD0000380000208C000020E00000201F
:1010A0000000002004000020080000207200000062
:1010B00022630000770000000E630000FA62000067
:1010C0002DE9F0410646FFF7FDFD8046454613E059
:1010D00016B1E068B0420ED120682860D4E9010161
:1010E000D8F8007088472046FFF7E5FAD8F80000E6
:1010F000B842EBD100E025462C68002CE8D1BDE8D1
:10110000F081002801D002F087BF704710B50021A0
:1011100002A000F013F9012010BD0000534947411F
:101120004252543A2041626E6F726D616C20746558
:10113000726D696E6174696F6E0000007546FFF72D
:10114000B5FDAE4605006946534620F007008546CA
:1011500018B020B5FFF792F8BDE820404FF0000628
:101160004FF000074FF000084FF0000BAC46ACE822
:10117000C009ACE8C009ACE8C009ACE8C00921F07E
:1011800007018D467047034640688C46002818BF0B
:1011900088423CBF03464068F8D318681844884228
:1011A00007D00CF1030020F00700001D411A521A6D
:1011B0000146081D0A60FFF77EBA70B5C468A5072E
:1011C00013D0650211D4B2F5807F09D0B2F5007F4B
:1011D00006D0B2F5806F08D1012300F1240106E0AA
:1011E0005D1E6FF07F46B54201D3012070BD0161E5
:1011F000C361416024F470611143C160002070BD7F
:101200002DE9F0410C461646070047D0104600F085
:101210006FF82078611C61280AD0722802D07728E4
:101220003CD102E00125002405E00225042402E06F
:10123000082448F2020511F8010B2B2806D0622879
:1012400009D011F8010C74280AD00BE045F0030511
:1012500044F00204EFE745F0040544F00104EAE736
:1012600044F010043846214602F0DEFE411C15D041
:101270000021316171604FF40071F560F1617061BE
:10128000200704D530460222002100F0BFF8306D5F
:1012900040F0010030653046BDE8F0810020FBE7FA
:1012A0002DE9F0410D460646104C206DC10704D0D3
:1012B000410804D020F00104F7E722460EE0542054
:1012C000FFF7CAF907000ED0206D47F0010108436F
:1012D000542120653846FFF77DF93A4629463046C5
:1012E000BDE8F0418CE70020D6E700003800002080
:1012F0002DE9F04704464FF000094FF0FF37C5686D
:10130000D4E90486A80707D0204600F02FF930461C
:1013100002F080FE002802DA3846BDE8F087280592
:1013200002D54046FFF7C7F94C212046FFF752F996
:10133000206D20F0010020654846EEE770B50546B7
:101340000C460A2000E06D1C02F076FE35B12878CC
:101350000028F8D102E0641C02F06EFE14B120787F
:101360000028F8D1BDE870400A2002F065BE10B533
:1013700000F040F9BDE81040FFF7C3BE10B500F023
:1013800053F9BDE81040FFF7BCBE000000000000AC
:1013900030B44FF0013C50F8042B51F8043BCCFA28
:1013A00052F4D51A20D1FCB950F8042B51F8043B63
:1013B000CCFA52F4D51A17D1B4B950F8042B51F81D
:1013C000043BCCFA52F4D51A0ED16CB950F8042B68
:1013D00051F8043BCCFA52F4D51A05D1002CDAD0DE
:1013E00030BC4FF00000704729BAB1FA81F111F01A
:1013F0001801D1F120008440F2D1CA40CB4012F054
:10140000FF0213F0FF0330BCD01A70472DE9F04102
:10141000044616460D464769007B80072ED03846A5
:1014200002F000FE50BB3EB3012E02D0022E25D1A9
:1014300004E0204600F020F905441DE0384602F0A3
:10144000EDFDE168002841F01001E16005DA204679
:1014500000F058F80120BDE8F081C9030BD562689F
:10146000E16A914200D81146A26911442269891AA1
:10147000814200DD08460544002D01DA0220EAE73A
:10148000E16A6068E268814206D29103E06203D5B6
:1014900022F4003141F01002A6690027AE4213DCAD
:1014A000E16A814201D90B4600E0034603EB060CDA
:1014B0002369ACEB030CAC4506DD814201D98C46B7
:1014C00000E084469C4505D1A760276042F02000DB
:1014D000A5620DE0AD1BE669AE1B8142A66000D996
:1014E0000846C01A281A20605819606022F02000AF
:1014F00003490840E060002084F84870ABE7000032
:10150000BFCFD7FFC16821F4001141F08001C16055
:1015100000218160016070472DE9F0478146144643
:101520000E464FF0FF383248D5685769054209D05A
:101530003846A16902F07AFD002811DB2C48C0432F
:101540000540E5602B4632464946384602F072FDBA
:10155000A16920F00042B21A11440028A16103D011
:101560002046FFF7CFFF4046BDE8F08770B5044640
:101570000569C06A6168884200D80846E16821F4BC
:101580002011E160C90312D5A84208D02246411BB0
:101590002846FFF7C1FF10B14FF0FF3070BD0020AB
:1015A000E562C4E90150E06820F48030E06000208A
:1015B00070BD10B50446C06820F02000E060A16A4C
:1015C000A06988420DD02046FFF7D0FFE06820F4E4
:1015D000405040F01000E060A06AA0612069E06225
:1015E000606044F24001E0688843E06010BD0000A4
:1015F0001000020010B5014602A0FFF79FFE012077
:1016000010BD000053494752545245443A20526598
:101610006469726563743A2063616E2774206F7029
:10162000656E3A200000000010B5012805D00021A9
:1016300003A0FFF783FE012010BD09A1F8E7000019
:1016400053494752544D454D3A204F7574206F66AB
:101650002068656170206D656D6F72790000000013
:101660003A2048656170206D656D6F727920636FF7
:10167000727275707465640010B50146C268900797
:1016800003D0900607D5886A0AE0FEF7E1FF012142
:101690000160881E10BD8B69486818440B69C01A28
:1016A00091F848301BB191F84910401A10BD110350
:1016B000FCD50028FADD401E10BD0000826800291C
:1016C00042F0010308BF22F001038360704700006D
:1016D00080B542F2043CC4F2010CDCF8002043F275
:1016E000E003CFF6FC7302EA030ED0E90031D0E943
:1016F000022043EA0E03194311430843CCF80000CB
:1017000080BD000010B542684FF6FF63CFF6FF437F
:1017100002EA030C0B680A7943EA0C0343EA02224B
:10172000426082684FF2FD73CCF2FF0302EA030EBF
:101730000A69D1E902C342EA0E024C791A4342EA2D
:101740000C0242EA44028260C26A097D22F47002FD
:101750000139C9B242EA0151C16210BD70B58CB005
:1017600001200121012500F0ABFC4FF48070012124
:1017700000F0BEFC082042F200040A900320C4F2EC
:1017800001048DF82C00002604F560400AA98DF8AC
:101790002F6000F01FFB4FF48070012100F0B4FCBB
:1017A0004FF48070002100F0AFFC4FF4806006968B
:1017B000CDE908604FF48030079006A8FFF788FF56
:1017C000694620460096ADF80460029604968DF8AE
:1017D0001450FFF797FF20460121FFF76FFF0CB071
:1017E00070BD0000FEE7000010B546F2B844C4F238
:1017F000020448F20001C2F60001204600F0C0F8E1
:1018000020460021BDE8104000F0D4B880B582B079
:101810008DF807000DF1070001F080FA02B080BDDD
:1018200080B501F0A1FA012080BD000001F080BA6E
:1018300001F084BA01F012BB01F060B901F0B2B955
:1018400080B582B00068002818BF01208DF807001D
:101850000DF1070001F078FA02B080BD80B582B0CA
:101860000068002818BF01208DF807000DF107005F
:1018700001F072FA02B080BD47F200420123C4F2C7
:10188000000203FA00F0002911680CBF21EA0000F1
:10189000084310607047000010B547F2004CC4F2D6
:1018A000000CDCF8003040F6FE72824023EA020EA3
:1018B000D1E90032D1E902411A432243114301FA2E
:1018C00000F040EA0E00CCF8000010BD81B000220C
:1018D000009247F20042C4F200020092009A1044C3
:1018E000083000900098016001B0704781B000227C
:1018F000009247F20042C4F200020092009A1044A3
:10190000143000900098016001B0704780B584B039
:101910000120012100F0E0FB0920029042F2CF00FB
:1019200001900020ADF80C0001A94FF0804000F0BC
:1019300017FD4FF080404121012200F009FD1C20DD
:10194000C0F203100090684600F07CFB4FF080402E
:10195000012100F0E9FC04B080BD000080B546F232
:10196000B84048F20001C4F20200C2F6000100F0E3
:101970005BF9002808BF80BDBDE88040FFF734BF99
:1019800046F20002C4F2020202F58263984240F677
:101990007D7002F58062C0F67D703CBF46F20002A9
:1019A000C4F202028B0000EA010054BF9060D060D4
:1019B000704700000268002942F0010308BF22F0CE
:1019C0000103036070470000016821F0010101601C
:1019D0000021016041608160C160016146F20F41F8
:1019E000C4F2020188424FF02101416122DC46F23B
:1019F0006F01C4F20201884240DC46F23F01C4F2AA
:101A0000020188426FDC46F21001C4F202018842F2
:101A100000F0C28046F22801C4F20201884201BFF0
:101A200046F20800C4F202004FF47461016008BF7E
:101A30007047704746F26F41C4F20201884238DCB9
:101A400046F23F41C4F20201884262DC46F2104194
:101A5000C4F20201884200F0A68046F22841C4F296
:101A60000201884201BF46F20800C4F202004FF4AE
:101A70007461C0F8001408BF7047704746F29F01B8
:101A8000C4F2020188425BDC46F27001C4F202013A
:101A9000884200F0908046F28801C4F20201884238
:101AA00040F0BD8046F20800C4F2020040F64071EA
:101AB00086E046F29F41C4F20201884256DC46F2BB
:101AC0007041C4F2020188427ED046F28841C4F2DD
:101AD0000201884218BF704746F20C40C4F202006F
:101AE00040F6407175E046F24001C4F202018842BE
:101AF00073D046F25801C4F20201884201BF46F297
:101B00000800C4F202004FF07461016008BF704722
:101B1000704746F24041C4F20201884265D046F265
:101B20005841C4F20201884201BF46F20800C4F2E3
:101B300002004FF07461C0F8001408BF704770478E
:101B400046F2A001C4F20201884257D046F2B80121
:101B5000C4F20201884201BF46F20800C4F202004A
:101B60004FF03D51416008BF7047704746F2A041B9
:101B7000C4F2020188424AD046F2B841C4F20201DE
:101B8000884201BF46F20C40C4F202004FF03D51C2
:101B9000016008BF7047704746F20800C4F20200B7
:101BA0003D210160704746F20800C4F202003D2169
:101BB000C0F80014704746F20800C4F202003D214C
:101BC000C2F200014160704746F20C40C4F20200CC
:101BD0003D21C2F200010160704746F20800C4F2E4
:101BE00002004FF474110160704746F20800C4F21D
:101BF00002004FF47411C0F80014704746F2080058
:101C00000021C4F20200C2F23D014160704746F279
:101C10000C400021C4F20200C2F23D010160704795
:101C2000006800F00100704780B546F20003C4F27E
:101C3000020340F63C7C03F58262C0F63C7C03F56F
:101C4000806390423CBF46F20003C4F2020311EAF3
:101C50000C0F05D04FF01E0E02680EEAD12001E0F5
:101C60004069802210408A0048BF04331A680CF192
:101C700041131940114018BF0121002818BF01204D
:101C8000084080BD0B0608D5D0F814C0002A4CF0DF
:101C9000800308BF2CF080034361802908BF704790
:101CA00001F01E011AB10268114301607047026819
:101CB00022EA0101016070472DE9F04F026848F205
:101CC0003F03CFF21C03D1F800901A40D1E9038EF4
:101CD00001F1140C9CE8F01042EA090242EA080201
:101CE00022432A4332438B6A3A43D1E90DAB42EA9D
:101CF0000C021A4342EA0A0242EA0B0202604269FB
:101D0000D1E90B3722F007021A433A434261C0F887
:101D100004E04A6882608968C160BDE8F08F000015
:101D200010B586B00120012100F0CAF94FF0005033
:101D3000012100F0D1F91020049003208DF8140047
:101D400000200224C4F2020004A98DF8174000F01C
:101D500041F80020CDE90000CDE9020469460020E9
:101D6000FFF79AFD00200121FFF786FD00200021EA
:101D7000FFF7ACFD06B010BD10B586B00120012103
:101D800000F09EF94FF00050012100F0A5F920204D
:101D9000049003208DF8140000200224C4F20200F5
:101DA00004A98DF8174000F015F80020CDE90000D7
:101DB000CDE9020469461020FFF76EFD10200121D5
:101DC000FFF75AFD00200021FFF790FD06B010BD7F
:101DD000704700002DE9F041D1F8008000234FF05A
:101DE000030C4FF0010E00240FE000BFC268AA43AD
:101DF000C260CA79C5689A402A43C2600134102C77
:101E000003F1020308BFBDE8F08128FA04F5ED07ED
:101E1000F4D006680CFA03F5AE4306600E79076845
:101E200006FA03F2013E3A43012E0260DED88268D0
:101E3000EE43324082604A798E7987689A403A430D
:101E4000826042680EFA04F7BA43426006FA04F26E
:101E5000466892B232434260C8E700001C2303EA9E
:101E6000810C6FF0030303EA510108440F23016A58
:101E700003FA0CF399430162016A02FA0CF211436E
:101E80000162704701837047FEE7000010B582B021
:101E900001200121012400F013F94FF44070009457
:101EA000ADF8040002208DF807000020C4F2020003
:101EB0006946FFF78FFF02B010BD000010B582B079
:101EC0000120012100F0FCF80220009040F20130D6
:101ED0000024C0F20010C4F20204019069462046BA
:101EE000FFF778FF20460221FFF7CCFF02B010BDBC
:101EF000F0B591B046F2B8454FF480000121C4F22C
:101F0000020500F0DDF828460021FFF753FD2846C2
:101F1000FFF75AFD2846FFF783FE0028FAD141F269
:101F200000044FF00060C4F20104029040F29410EB
:101F3000261DC2F200000396049040200590002068
:101F40004FF48061CDE90600CDE908104FF440312F
:101F5000CDE90A00CDE90C100321CDE90E10109057
:101F600002A92846FFF7A8FE4FF4806000F09CF815
:101F700040F24620C0F20110019001A800F062F882
:101F800028460021FFF716FD284610210122FFF701
:101F900079FEA5F58060FFF717FD00BF2846FFF723
:101FA0003FFE0028FAD14FF00060CDE9020640F272
:101FB000F810C2F200000490002014210590CDE931
:101FC00006104FF48061CDE908104FF48031CDE95F
:101FD0000A00CDE90C100321783DCDE90E101090D8
:101FE00002A92846FFF768FE4FF4C06000F05CF8D5
:101FF0000B2701AEC0F202173046019700F022F81D
:102000004FF4C06000F050F83046019700F01AF825
:1020100020468021012200F0CBFA204640210122F7
:1020200000F0C6FA28460121FFF7C4FC2846FFF756
:10203000F7FD0128FAD111B0F0BD0000FEE7000065
:102040007047000010B5C17800294EF20011CEF2A1
:1020500000011CD04EF60C52CEF20002126807238B
:1020600023EA12220F23C2F1040C23FA02FE427863
:1020700084785FFA8CF390F800C09A4004EA0E036B
:102080001A43120101EB0C0383F8002300E08031B6
:102090000078012300F01F0203FA02F2C0F342109D
:1020A00041F8202010BD000040F080604EF60C5139
:1020B00040F0FD70CEF200010860704770470000EC
:1020C000002943F63001C4F202010A680CBF22EA7B
:1020D0000000104308607047002943F64001C4F235
:1020E00002010A680CBF22EA000010430860704732
:1020F000002943F64401C4F202010A680CBF22EA37
:102100000000104308607047002943F62401C4F220
:1021100002010A680CBF22EA000010430860704701
:1021200010B543F60404C4F20204626802F00C0322
:1021300042F20042082BC0F2F40206D0042B20D158
:1021400041F20022C0F27A021BE0D4F800C02368FA
:1021500003F03F0E5FEA4C2341F20023C0F27A0302
:1021600058BF13462268B3FBFEFCC2F388122368F3
:1021700002FB0CFCC3F30143022202EB4302BCFB53
:10218000F2F20260626847F2F823C2F30312C0F66B
:1021900000039A5C0168D14041606268C2F3822208
:1021A0009A5C21FA02F282606268C2F342329A5C5F
:1021B000D140C16010BD00007047000082B043F6FE
:1021C00008000021C4F202000191009150F8081C9F
:1021D00041F4803140F8081C50F8081C01F400312B
:1021E0000091019901310191009919B90199B1F555
:1021F000A04FF1D150F8081C890354BF00210121E0
:1022000000910099012936D1816B41F080518163A1
:1022100047F20001C4F200010A6842F440420A6039
:1022200001680160016841F400410160016841F406
:10223000A051016045F20841C0F2407140F8041C11
:1022400050F8081C41F0807140F8081C50F8081C38
:102250008901FBD540F20571C0F8F813016821F03F
:1022600003010160016841F002010160016801F0B1
:102270000C010829FAD102B0704700004EF210019B
:10228000CEF200010A68042822F0040308BF42F0DD
:1022900004030B60704700007047000010B54EF655
:1022A0008854CEF2000420684FF6FF7340F47000AB
:1022B000206043F60000C4F202000168CFF6F66326
:1022C00041F0010101600021816002681A40026052
:1022D00043F21002C2F200424260026822F48022FD
:1022E0000260C160FFF76AFF4FF0006044F8800CA5
:1022F00010BD000010B54FF080400121012400F016
:102300001DF8002808BF10BD4FF08040012100F0EB
:1023100007F840F20C00C2F20000047010BD00008B
:10232000C9430182704700000288002942F001037E
:1023300008BF22F00103038070470000028A8089F1
:102340000A4018BF0122084018BF01201040704702
:10235000002A82890CBF22EA010111438181704762
:1023600010B540F6FF32B0F800E0C4F2000240F2CF
:10237000004C9042C4F2010C0FDCB0F1804F19D038
:1023800040F20042C4F20002904213D040F6000234
:10239000C4F2000290420DD011E040F60042C4F2B7
:1023A0000002904206D0604504D00022C4F201022F
:1023B000904204D14A882EF0700342EA030E41F2A3
:1023C000004340F48062C4F200039A4204D00C89B6
:1023D0002EF4407344EA030EA0F800E04B68624517
:1023E000C3620B88038504BF897A0186012181823B
:1023F00010BD000010B541F20004C4F201042046F3
:1024000040F2255100F0DCF830B3204600F06AF9C4
:1024100040F25C24C2F2000421880A0448BF10BDC7
:102420004A04C0B205D40D280DD141F4804020806B
:1024300010BD0A2811D141F4004101202180BDE8DE
:102440001040FFF7FDB9FFF7E1F92088013081B2B4
:10245000C72988BF0020208010BD0020208010BD2B
:1024600010B544F20044C4F20004204640F2255165
:1024700000F0A6F830B3204600F034F940F25C24B6
:10248000C2F2000421880A0448BF10BD4A04C0B249
:1024900005D40D280DD141F48040208010BD0A28BC
:1024A00011D141F4004101202180BDE81040FFF727
:1024B000C7B9FFF7ABF92088013081B2C72988BFBF
:1024C0000020208010BD0020208010BD70B58AB093
:1024D000054608200121FFF7F3FD4FF400300121EC
:1024E000FFF7FAFD44F20044C4F2000404F5E436B8
:1024F000304605210722FFF7B1FC304606210722AE
:10250000FFF7ACFC304607210722FFF7A7FCE020CD
:10251000089040F20220C0F20010099008A930464D
:10252000FFF758FC00204FF44021049505900691D8
:10253000ADF81C0004A9204600F078F84FF40060C4
:1025400001904FF08070029001A9204600F014F82D
:10255000204640F22551012200F050F840F226308A
:10256000C0F20310039003A8FFF76CFD2046012181
:1025700000F014F80AB070BD80B5028A0B8822F40E
:10258000706C4A88B1F804E043EA0C03C9881A4326
:1025900042EA0E021143018280BD000082890029B7
:1025A00042F4005308BF22F40053838170470000B7
:1025B000002A828A0CBF22EA0101114381827047FE
:1025C00001F01F024FF0010CC1F34213022B0CFA71
:1025D00002F206D0012B14BF00F1140300F10C032A
:1025E00001E000F110031B880088090A1A4020FA54
:1025F00001F018BF0122104070470000C1F34213E0
:1026000001F01F0C1421022B08BF1021012B4FF0E9
:10261000010308BF0C21002A03FA0CF243580CBF37
:1026200023EA02021A4342507047000070B584B09A
:102630000446008A0D46C98820F440500843208291
:10264000A0894EF6F3110840A9882A896B890843AE
:1026500010431843A081A08AA98920F44070084340
:102660006E46A0823046FFF75BFD41F2004144F424
:102670008060C4F20101884214BF06F1080006F12F
:102680000C0000681922B4F90C1050432A68022388
:10269000002948BF012302FA03F1B0FBF1F048F230
:1026A0001F51C5F2EB11A0FB01235A096FF0630320
:1026B00002FB0300B4F90C300426002B48BF0326AC
:1026C00000FA06F000F13200A0FB01014FF00F000C
:1026D00048BF072000EA511040EA0210208104B0F0
:1026E00070BD000080886FF35F207047FEE7000038
:1026F00001F0ECBB80B501F001FC01F015FC01F02C
:1027000029FC01F03DFC01F047FC01F051FC01F017
:102710005BFCBDE8804001F061BC000000000000EF
:1027200070B588B040F21C02C2F200021278802A12
:1027300053D1054640F29020C2F20000006840F2FA
:10274000280628610020A860C2F2000630680C4606
:1027500004F068FB9FED221B41EC100B02F0C0FA65
:1027600051EC100B03F07CFD286096ED000A01EEA1
:10277000100A40F22400C2F2000030EE000ABFEE60
:10278000002A90ED003A30EE020A81EE034AB1EEE3
:10279000411AB1EE405A82EE032A81EE031A85EE09
:1027A000035A684685ED010A0490042006AD0590A1
:1027B00004A9284601228DED004A8DED011A8DED08
:1027C000025A8DED032A00F067FF04F11800294634
:1027D00000F0F4FF284600F0D9FF002008B070BDDB
:1027E00000000000000000402DE9F04188B01546CF
:1027F00040F21C02C2F2000212780446402A25D0A0
:10280000802A2BD118680DF11008019001A80290C0
:10281000012001F11806039002A94046012200F0B0
:102820003BFF06AF3846022142462B4600F022FE0F
:10283000204631463A4601F079F8384600F0A6FFC6
:10284000404600F0A3FF08B0BDE8F08118312046F3
:102850002A4601F06BF808B0BDE8F08147F2083075
:10286000C0F60000FDF71EFD0020049004A80690AD
:102870000120079006A92046012200F00DFF08B0B4
:10288000BDE8F081B0B5044691E80D504D6984E88B
:102890000D5004F118001831656100F0BFFE2046AC
:1028A000B0BD000070B586B000F11805044628469A
:1028B00000F058FF0020C4E90000C4E90200C4E9A8
:1028C0000400019001A80290012004AE039002A927
:1028D0003046012200F0E0FE2846314600F06EFF4F
:1028E000304600F053FF204606B070BD10B50446D8
:1028F000183000F04BFF204610BD000090ED000A9C
:1029000040F28020C2F2000080ED000A7047000013
:1029100090ED000A40F28420C2F2000080ED000A2F
:102920007047000090ED000A40F28820C2F20000DB
:1029300080ED000A7047000090ED000A40F224008C
:10294000C2F2000080ED000A7047000090ED000A1E
:1029500040F22800C2F2000080ED000A704700003B
:1029600090ED000A40F22C00C2F2000080ED000A57
:1029700070470000007840F28C21C2F2000108701C
:102980007047000040F29020C2F2000090ED000A73
:102990007047000040F21D00C2F20000007870474E
:1029A00090ED000A40F21000C2F2000080ED000A33
:1029B00070470000007840F21D01C2F200010028BB
:1029C00018BF01200870704790ED000A40F2902077
:1029D000C2F2000080ED000A7047000040F21400CF
:1029E000C2F2000000787047007840F21401C2F291
:1029F0000001002818BF01200870704790ED000A00
:102A000040F21800C2F2000080ED000A704700009A
:102A100040F21C00C2F2000000787047007840F2DB
:102A20001C01C2F2000108707047000090ED000A1E
:102A300040F26020C2F2000080ED000A7047000002
:102A400040F21E00C2F2000000787047007840F2A9
:102A50001E01C2F2000108707047000090ED000AEC
:102A600040F22000C2F2000080ED000A7047000032
:102A700090ED000A40F26820C2F2000080ED000AEA
:102A80007047000090ED000A40F26C20C2F2000096
:102A900080ED000A7047000090ED000A40F27020BF
:102AA000C2F2000080ED000A7047000090ED000ABD
:102AB00040F27420C2F2000080ED000A704700006E
:102AC00090ED000A40F27820C2F2000080ED000A8A
:102AD0007047000090ED000A40F27C20C2F2000036
:102AE00080ED000A7047000000210160704700007F
:102AF000017180ED000A70470170704710B52DED2F
:102B0000028B84B040F29420C2F20000006840F2D0
:102B1000D424C2F2000420600178EB2927D1411CA3
:102B200021604078902828D19FED1D8A02A80021BD
:102B3000B0EE480AFFF7DCFF01A8B0EE480A00F04B
:102B4000BFF9216801384A1C226049788DF80C10C1
:102B5000042100BF2268013902F101032360527889
:102B600000F8012FF6D101A8FFF72EFF0AE007A019
:102B7000FDF7BCFC9FED0A0A04E004A0FDF7B6FCDB
:102B80009FED070A04B0BDEC028B10BD496E766163
:102B90006C6964204865616465722E0D0000000058
:102BA000000000002DE9F04F81B040F2A020C2F2F9
:102BB0000000006840F2D827C2F2000738600178B0
:102BC000EB296DD1411C39604078902868D10120F3
:102BD00001F068F9002104460025FFF78DFF04206D
:102BE00001F060F99FED3C0A834600F069F90DF1B0
:102BF00003008DF80350FFF7DDFE3868411C396093
:102C000040780228207052D340F2C429ABF1010A67
:102C10004FF00108C2F200091DE000BFD9F8001012
:102C2000023001EBC601496838608847D9F80000D6
:102C300008F1010500EBC600416838688847024684
:102C40002EA03146FDF72EFB05F1010820785FFA32
:102C500088F181422BD23868411C396046783106B0
:102C6000DCD50420514600BF3A68013802F1010367
:102C70003B60527801F8012FF6D1D9F8000008F135
:102C8000040550F836105846884710EE100A04F034
:102C9000C9F802460B4611A03146FDF703FBD3E706
:102CA00008A0FDF723FC002001B0BDE8F08F20460E
:102CB00001F0F4F8584601F0F1F8012001B0BDE848
:102CC000F08F00BF496E76616C696420486561646D
:102CD00065722E0D000000000000000049445F7482
:102CE0006D70203D2025233034782C206461746180
:102CF000203D2025312E32660D0A000049445F74C4
:102D00006D70203D2025233034782C20646174615F
:102D1000203D2025233034780D0A000040F2942213
:102D2000C2F20002007812686FF39F31505470476E
:102D300040F2B820C2F200000078704740F2D02084
:102D4000C2F2000000787047007840F2B821C2F269
:102D50000001087070470000007840F2D021C2F2F4
:102D6000000108707047000040F2C420C2F2000069
:102D7000016842F6B510C0F60000C86442F6E910DA
:102D8000C0F60000486542F61D20C0F60000C86588
:102D900042F64D20C0F60000486642F6FD10C0F62F
:102DA0000000C1F8600442F65D20C0F60000C1F8E2
:102DB000680442F67510C0F60000486742F64D10F0
:102DC000C0F60000C1F8880442F66110C0F60000A9
:102DD000C1F8900442F63910C0F60000C1F898041A
:102DE00042F6A110C0F60000C1F8A00442F625107A
:102DF000C0F60000C1F8C80442F61110C0F6000089
:102E0000C1F8D00442F6FD00C0F60000C1F8D804B5
:102E100042F67120C0F60000C1F8880542F69920FC
:102E2000C0F60000C1F8900542F68520C0F600000B
:102E3000C1F8C80542F6AD20C0F60000C1F8D005C3
:102E400042F6C120C0F6000042F6D522C1F848067D
:102E5000C0F600020120C1F88826704770B540F224
:102E6000300640F29424C2F20006C820C2F20004E8
:102E700030802046C82100F0ABFF40F2A025318809
:102E8000C2F20005284600F0A3FF318840F2AC26CC
:102E9000C2F20006304600F09BFF206840F2D421C9
:102EA000C2F200010860286840F2D821C2F2000195
:102EB0000860306840F2DC21C2F20001086070BD99
:102EC00080ED000A7047000080B540F2E021C2F2B8
:102ED000000100F0A3FB80BD2DE9F04F81B02DED86
:102EE0000A8B9CB040F2180BC2F2000B9BED000A5B
:102EF000B7EE00AA05468AEE001A4FF07E50F8EEB3
:102F0000000A11908DED121A02F012FD9BED001ACD
:102F100011A88AEE011A14904FF000094FF07E506C
:102F2000B6EE00BA0322CDF838900F900EA9CDE985
:102F30000B990D900BA820EE0B0A159216910E46D8
:102F400017921890044619921AA814A903228DED1D
:102F5000130A8DED101A00F09FFB95ED0F0AB0EEED
:102F6000089AF0EE490A02F0E3FC3AEE400A8DEDD1
:102F70000E0A149695ED0F0A4FF0010820EE091A7B
:102F8000B0EE008AF0EE490ACDF8548038EE41CA1E
:102F900002F0CEFC9BED001A30EE0C0A21EE000A86
:102FA0008DED0B0A169495ED0F0AF0EE490ACDF857
:102FB0005C803AEE400A02F0BBFC9BED001AB0EEDA
:102FC000409AF0EE480AB0EE410A02F0B1FC09A8BE
:102FD00011AC29EE000ACDE9180814A920460322F5
:102FE0008DED090A00F058FB05F1240A50462146F0
:102FF00000F0E4FB204600F0C9FB09AF384600F0C2
:10300000B1FB14AE30461AA9524600F08FFC384688
:10301000314600F0D3FB304600F0B8FB9BED000AD0
:1030200040F224068AEE000AC2F2000696ED009AEB
:10303000F0EE480A02F07CFC9BED001A29EE000A33
:103040008AEE011A20EE0B0A8DED110A96ED000AA8
:10305000149414AC0EAF0DF12C0B07A821460322DB
:10306000CDF85480CDE91678CDF82C9020EE010AE9
:103070008DED0E0ACDE918B800F00EFB4FF07E5032
:10308000CDE914091194032005AE11AC129030461D
:1030900021460122CDF8589000F0FEFACDE91448FF
:1030A0000DF10C0814A940460122CDF8449000F01F
:1030B000F3FA4FF07E500321CDE91109CDE91394C5
:1030C0001591CDE90E904FF07E50CDE91671032198
:1030D000CDE90B990D90CDE918B101A814A90322EF
:1030E000CDF8409000F0D8FA11AC0DF1240B204639
:1030F00059463246B14600F019FC14AE30461AA9C2
:10310000224600F0B3FB281D314600F057FB304645
:1031100000F03CFB204600F039FB0EAC204659463F
:10312000424600F003FC11AE304607A9224600F0EB
:103130009DFB14AF3846012132465B4600F09AF9F8
:1031400005F10C00394600F039FB384600F01EFB53
:10315000304600F01BFB204600F018FB11AC204667
:1031600051464A4600F0E2FB14AE0DF10409304628
:103170004946224600F07AFB05F11400314600F082
:103180001DFB304600F002FB204600F0FFFA0DF177
:10319000380840460321012200F0B6FA0BAC0DF1CD
:1031A0000C0B204651465A4600F0C0FB11AE30468B
:1031B0004146224600F05AFB14AF38460121324600
:1031C000534600F057F905F11C00394600F0F6FAB5
:1031D000384600F0DBFA304600F0D8FA204600F01E
:1031E000D5FA404600F0D2FA484600F0CFFA5846E9
:1031F00000F0CCFA05A800F0C9FA07A800F0C6FA5A
:1032000009A800F0C3FA1AA800F0C0FA00201CB008
:10321000BDEC0A8B01B0BDE8F08F00002DE9F04F46
:103220008BB0814609A80D4600F09CFA40F21C00C4
:10323000C2F20000007880286ED140F26020C2F215
:10324000000040F264210068C2F2000109680090A9
:10325000684603900120029102A907AC0490CDE9D1
:10326000051003A92046022200F016FA05F13407E2
:103270003846214600F0A2FA204600F087FA05F110
:103280002C0B0DF11C0A291D50465A4600F04EFB2E
:103290006C4605F10C0120463A4600F047FB03AEB0
:1032A00030465146224600F011FC0DF124084046FC
:1032B000314600F083FA304600F068FA204600F00C
:1032C00065FA504600F062FA07AC05F11401204699
:1032D0005A4600F02BFB05F11C016D4628463A4684
:1032E00000F024FB03AE304621462A4600F0EEFBF8
:1032F00040F2E020C2F20000314600F05FFA3046B2
:1033000000F044FA284600F041FA204600F03EFA68
:103310005846414600F052FA40F2E021C2F2000164
:10332000484600F07BF909A800F030FA0BB0BDE880
:10333000F08F00002DE9F04F85B000F1040804463D
:1033400040460D4600F00EFA04F10C07384600F036
:1033500009FA04F1140A504600F004FA04F11C0BB7
:10336000584600F0FFF904F12400009000F0FAF94B
:1033700004F12C00019000F0F5F904F13400029002
:1033800000F0F0F90DF10C09484629462A4625704F
:1033900000F0BAF94046494600F010FA484600F0FD
:1033A000F5F9217803AE3046022200F0ADF9384637
:1033B000314600F003FA304600F0E8F903AE30463B
:1033C00029462A4600F0A0F95046314600F0F6F9A9
:1033D000304600F0DBF903AE30462946022200F009
:1033E00093F95846314600F0E9F9304600F0CEF93D
:1033F00003AE30462946012200F086F90098314696
:1034000000F0DCF9304600F0C1F903AE3046294641
:10341000012200F079F90198314600F0CFF93046E9
:1034200000F0B4F903AD28460221012200F06CF946
:103430000298294600F0C2F9284600F0A7F940F2A8
:103440001800C2F2000090ED000ABFEE001A40F230
:103450002C0081EE000AC2F2000090ED001A20EE6E
:10346000010A01F045FB204684ED0F0A05B0BDE8D6
:10347000F08F00002DE9F04F83B099469246022963
:10348000804667D0012940F0B6809AF8041099F878
:103490000400814240F0AF809AF8050099F80520B9
:1034A0001044C2B201A800F02FF99DF809000028CD
:1034B00000F0A98001999DF808B09DF809C0A1F11C
:1034C000040E002304E000BF0133634580F09B80BD
:1034D0009AF805700024BB4238BF0124BBF1000FED
:1034E0001AD0BB4218D2DAF8001072460D1F012123
:1034F00055F8044F52F8047F54F8234047F823400E
:103500009AF805700024BB4238BF0124594503D204
:10351000BB4201F10101EBD3002CD5D1BBF1000F6F
:10352000D2D0D9F80020D91B043A0125774600BF34
:1035300052F8046F57F8040F56F821605D4540F8C3
:1035400023604FF0000028BF0120204305F1010552
:10355000EED0B9E79AF8052099F8050082424AD1E1
:103560009AF8040099F804100844C1B201A800F0C8
:10357000CBF89DF80800002845D09DF808C09DF8BC
:103580000910002229B900BF013262453BD200294F
:10359000FAD09AF80470019D9DF80930002400BF0C
:1035A000BA420FD2DAF8006055F8220056F82260CD
:1035B00056F8246040F8246001349C42F0D323B9CB
:1035C000E2E700BF0B46002BDED09AF80470BA4247
:1035D000DAD3019ED9F80050D71B55F8277056F85A
:1035E0002260043F351F00BF57F8040F013B45F828
:1035F000040FF9D1C8E740460121012200F084F808
:1036000003B0BDE8F08F01AD4046294600F006F852
:10361000284600F0BBF803B0BDE8F08F2DE9F04379
:1036200081B00F7991F805900446077180F80590F4
:10363000B800884600F034FC206047B34FEA8906A2
:10364000002500BF304600F02BFC216841F8250022
:103650000135AF42F6D1D7B10020B9F1000F05D145
:103660000130B84213D0B9F1000FF9D02168D8F871
:10367000002051F8201052F820200439043A4B461B
:1036800052F8046F013B41F8046FF9D1E8E7204696
:1036900001B0BDE8F08300002DE9F04381B04E6831
:1036A0005FFA82F80446027146714FEA88000D46BF
:1036B00000F0F6FBB8F1000F206020D0F7B24FEA1F
:1036C0008709002605E000BF0136464505F10805DB
:1036D00015D0484600F0E4FB2168002F41F8260091
:1036E000F2D02068296850F82600043904383A4698
:1036F00051F8043F013A40F8043FF9D1E4E720468D
:1037000001B0BDE8F08300002DE9F04105460171EC
:103710004271880090460E4600F0C2FB2860F6B168
:103720004FEA8807002400BF384600F0B9FB29683B
:1037300041F824000134A642F6D186B10024B8F144
:10374000000F05D10134A64209D0B8F1000FF9D01D
:103750002868394650F82400FCF73CFFF2E7284679
:10376000BDE8F081B0B5044640F20110A08004200D
:1037700000F096FB05462060042000F091FB014616
:103780002860002220460A60B0BD0000B0B5017973
:103790000446006859B1002550F82500002818BFDC
:1037A00000F07AFB2179013520688D42F4D300289E
:1037B00018BF00F071FB2046B0BD00002DE9F043BA
:1037C00081B00446884248D088462179206861B19A
:1037D000002500BF50F82500002818BF00F05CFB52
:1037E0002179013520688D42F4D3002818BF00F0FC
:1037F00053FB98F8047098F80590B800277184F886
:10380000059000F04DFB20603FB34FEA890600258C
:10381000304600F045FB216841F825000135AF42F4
:10382000F6D1D7B10020B9F1000F05D10130B8426F
:1038300013D0B9F1000FF9D02168D8F8002051F861
:10384000201052F820200439043A4B4652F8046FF5
:10385000013B41F8046FF9D1E8E7204601B0BDE82B
:10386000F0830000006850F8210070472DE9F04314
:1038700081B089469046097999F80520FFF744FF01
:1038800099F8041098F8042091422ED199F8056017
:1038900098F80520964228D121B300232EB900BF05
:1038A00001338B421ED0002EFAD0D9F800200768D1
:1038B000D8F8005052F8232057F8237055F82350B9
:1038C0003C1F2F1F151F324695ED010A97ED011A77
:1038D000043530EE410A043784ED010A0434013A1C
:1038E000F2D1DDE701B0BDE8F08303A0FCF7DAFC1C
:1038F0000020FCF711FE00BF4D6174726978204D05
:1039000061747269783A3A6F70657261746F722D82
:1039100028636F6E7374204D617472697820266D10
:103920003229204552524F522E0000002DE9F04F0F
:1039300083B091468A4609795279804601A8FFF7FB
:10394000E3FE9AF804109AF8052099F8043002FB77
:1039500001F0012831D199F8052040461946FFF7BA
:10396000D3FE98F80400002800F09A8098F804002C
:1039700098F8056000222EB90132824280F09080D2
:10398000002EF9D0DAF80010D9F800700B68D8F8DA
:10399000001057F8225051F82210043D0F1F3146F5
:1039A00093ED000A95ED011A043520EE010A87ED2A
:1039B000010A04370139F3D1DEE799F805E00EFB7F
:1039C00003F001282DD14046FFF79EFE98F8040031
:1039D000002865D098F8040098F80560002226B900
:1039E000013282425CD2002EFAD0D9F80010DAF807
:1039F00000700B68D8F8001057F8225051F82210C8
:103A0000043D0F1F314600BF93ED000A95ED011AEA
:103A1000043520EE010A87ED010A04370139F3D19C
:103A2000DEE79A4242D1B9B34FF0000BBEF1000F6E
:103A300007D100BF0BF1010B8B452DD0BEF1000F5C
:103A4000F8D0DDF804C000272AB900BF0137774558
:103A5000F0D0002AFAD0DAF800005CF82B4050F8D9
:103A60002B00D9F8005004EB8704043D04381646B7
:103A700055F8043F90ED010A03EB870393ED001A1C
:103A8000043020EE010A94ED001A013E30EE010AE6
:103A900084ED000AECD1D9E701A94046FFF7BEFD4D
:103AA00001A8FFF773FE03B0BDE8F08F02A0FCF79A
:103AB0001DFD0020FCF730FD4F70657261746F7260
:103AC0002A204552524F522E0D0000002DE9F0439E
:103AD00081B089469046097999F80520FFF714FED0
:103AE00099F8041098F8042091422ED199F80560B5
:103AF00098F80520964228D121B300232EB900BFA3
:103B000001338B421ED0002EFAD0D9F8002007686E
:103B1000D8F8005052F8232057F8237055F8235056
:103B20003C1F2F1F151F324695ED010A97ED011A14
:103B3000043530EE010A043784ED010A0434013AF9
:103B4000F2D1DDE701B0BDE8F08303A0FCF7AAFBEA
:103B50000020FCF7E1FC00BF4D6174726978204DD4
:103B600061747269783A3A6F70657261746F722B22
:103B700028636F6E7374204D617472697820266DAE
:103B80003229204552524F522E000000C0E9003227
:103B90007047FCF7CAFC00006FF0604070470000FF
:103BA0006FF000407047000010B50446006828B16F
:103BB0002168A2686160511A00F05CF8204610BDCF
:103BC00010B50446006828B12168A2686160511AE6
:103BD00000F050F8204610BD80B584B00A4600F1D0
:103BE000080101A800F012F8DDE90101884208D0BF
:103BF000002100BF0170DDE9010201309042019017
:103C0000F8D101A800F00AF804B080BD0B68036089
:103C10000B681A44C0E901217047000001688268FE
:103C20001160704770B516460D4604460020E060EE
:103C3000236111B1284600F035F981194219C4E910
:103C400000012046A160E26070BD000010B504468E
:103C5000D0E90110884203D001388142FCD1A06034
:103C6000206820B12168E268511A00F003F820466C
:103C700010BD0000AFF3008000F010B910B504468D
:103C8000002000F0F9FA44F24021C0F20F01A0FB3D
:103C90000101C4E9000110BDB0B50D460446FFF7AF
:103CA0007BFFA8420BD3B5F1005F0BD2E80000F018
:103CB000F9F800EBC501C4E90000A160B0BD2046E1
:103CC000FFF767FFFCF731FC01604968416001EBD9
:103CD000C201816070470000D0E900124A6070475D
:103CE00070B584B004460020C4E90000A060D1B1E2
:103CF000204615460E46FFF7CFFF01A82146324663
:103D0000FFF7E2FFDDE90201884209D0D5E90012A0
:103D1000C0E90012DDE90201083088420290F5D1C5
:103D200001A8FFF7D9FF204604B070BDFFF73CBFE4
:103D3000B0B50D460446FFF733FFA84207D3284627
:103D400000F0B0F84119C4E90000A160B0BD204600
:103D5000FFF71FFF80B584B00A46014601A800F0B6
:103D600011F8DDE90201884207D000210170DDE988
:103D70000202013090420290F8D101A800F008F848
:103D800004B080BD016049684160114481607047A2
:103D9000D0E900124A607047B0B50C460546D0E93C
:103DA00000106368421A981A012A6060A8BFFCF7E5
:103DB000CCFB6068296828606160A06869686860F9
:103DC000A160E068A968A8606068E1602060B0BD9B
:103DD000D0E900239A1A8A4202D2891A00F006B862
:103DE00098BF70470268114441607047F0B585B0D4
:103DF00004464068A2680D46111AA94228D22646F8
:103E000056F8081B401A47192046FFF7C9FEB8426A
:103E100025D301462068A268121AB2EB510F04D2D2
:103E2000B7EB420F98BF5700394662686F46121AC7
:103E300038463346FFF7F6FE2946FFF7CDFE20460B
:103E40003946FFF7A9FF3846FFF700FF05B0F0BD80
:103E50002046294605B0BDE8F040FFF77BBF20466D
:103E6000FFF797FEB0B504460020C4E90000A0604B
:103E700039B120460D46FFF75BFF20462946FFF784
:103E800069FF2046B0BD0000FFF79ABE40F2E8206F
:103E9000C2F2000000687047AFF30080FCF70BBC73
:103EA000AFF3008010B50446002808BF012400BF0E
:103EB0002046FCF7D1FB002818BF10BDFFF7E6FF36
:103EC00008B18047F4E7002010BD000010B540F2B3
:103ED000E024C2F20004204603210122FFF714FC73
:103EE00043F28D7040F20002C0F60000C0F60002FE
:103EF0002146BDE81040FCF723BB000010B540F29E
:103F00009424C2F200042046C821FFF7ABFF43F619
:103F1000896040F20002C0F60000C0F600022146AF
:103F2000BDE81040FCF70CBB10B540F2A024C2F273
:103F300000042046C821FFF795FF43F6896040F250
:103F40000002C0F60000C0F600022146BDE81040A5
:103F5000FCF7F6BA10B540F2AC24C2F200042046D9
:103F6000C821FFF77FFF43F6896040F20002C0F6E8
:103F70000000C0F600022146BDE81040FCF7E0BAA0
:103F800040F29420C2F20000006840F2D421C2F254
:103F9000000108607047000040F2A020C2F200005B
:103FA000006840F2D821C2F20001086070470000AA
:103FB00040F2AC20C2F20000006840F2DC21C2F204
:103FC000000108607047000040F2BC20C2F200000F
:103FD000002100220023FFF7D9BD000010B540F2F8
:103FE000C424C2F2000440F2BC22C2F20002204605
:103FF0004FF48071FFF774FE43F62D5040F200023B
:10400000C0F60000C0F600022146BDE81040FCF7F3
:1040100097BA000000207047FEE700004FF0FF3025
:104020007047000000207047012070474FF0FF30BC
:1040300070470000002070477047000010B504462C
:104040006FF00400FEF71AF940F2EE21E008C2F228
:10405000000108704FF47A71484340F2EC21C2F23B
:104060000001088010BD00004FF0FF3070470000D5
:1040700041F20001C4F201010A885206FCD5C2B225
:104080008A807047AAB029A8FEF72EFDFDF7D2FB63
:10409000FDF7C6FB19A80321FFF74CF9FEF71CFF3B
:1040A00011AD2846FEF7FEFB09AC20462946FEF777
:1040B000E9FB28462146FEF733FB2046FEF716FCB7
:1040C0004FF4A060FDF7F0FFA820FFF7B7FF4FF413
:1040D000E13000F0D3F84FF4E130FEF7F7F9FDF7E7
:1040E00007FFFDF7EBFEFDF7D1FEFDF737FBFDF710
:1040F00017FEFDF741FEFDF709FC002000214FF0FF
:104100000008FDF7E3FB00200021FDF7EFFB40F284
:104110005C2940F20C06C2F200090DF1180A50A504
:104120000DF1100B44A44AA7C2F20006FDF780FB74
:1041300048B100BF5046A9F80080CDF81880FDF7BF
:104140008DFBFDF77BFBFEF725FC0028EED0FDF78D
:104150006FFB002860D1FDF769FB28B35046FFF7DD
:104160008DFD2FA0FCF7C2F95846A9F80080CDF8C4
:104170001080FDF765FBFDF75FFB10EE100A02F003
:1041800051FE024620460B46FCF78CF85846FFF7D6
:1041900075FD04AB0FCB801A994102F0BFFA0246BD
:1041A00038460B46FCF77EF830780128CBD1FEF775
:1041B00015FC70B3FEF72CFC8028C4D15846FEF7DE
:1041C00083FEFEF7DFFB504611A95A4603AB8DED87
:1041D000030AFEF709FB50460021FFF743FBFEF7F9
:1041E00025FC5046FFF7D2FA5846FFF7CFFAD046E3
:1041F000CA46D9460DF1040B584619A9FFF70EF827
:104200005846CB46D146C2464FF00008FFF7BEFAEB
:1042100099E7FEF715FC96E72846FCF767F989E76A
:104220004943204D657373616765207265636569F5
:104230007665642E0D0000007265666572656E63BA
:1042400065203D202523312E30660D0A0000000038
:104250002566207573207370656E742E0D0A00003C
:104260005043204D657373616765207265636569AE
:104270007665642E0D0000000020704770B588B090
:10428000054601200121FDF71BFF10200121FDF74C
:104290002FFF41F20004C4F2010404F570463046D9
:1042A00009210722FDF7DAFD30460A210722FDF732
:1042B000D5FD4FF4C060069040F20220C0F200101D
:1042C000079006A93046FDF785FD00204FF44021F8
:1042D000029503900491ADF8140002A92046FEF760
:1042E000A5F9204640F225510122FEF787F940F258
:1042F0002530C0F20310019001A8FDF7A3FE20466F
:104300000121FEF74BF908B070BD5FEA400C08BF11
:1043100091F0000F4FEA8C234FEAC12243EA51513A
:104320004FEA1C5018BF00F5F0404FEA300018BFAC
:1043300041F000415FEA6C5C00F02980BCF1FF3F76
:1043400008BF40F080407047130C06BF12044FF0C6
:10435000100C4FF0000C130E04BF12020CF1080CED
:10436000130F04BF12010CF1040C930F04BF920051
:104370000CF1020CD30F04BF52000CF1010C1146DA
:104380004FF00002A0F11F00A0EB0C00704711F0ED
:10439000004F08BF704731F000413FF4D5AF0B0C20
:1043A00006BF09044FF0100C4FF0000C0B0E04BFB9
:1043B00009020CF1080C0B0F04BF09010CF1040CED
:1043C0008B0F04BF89000CF1020CCB0F04BF490016
:1043D0000CF1010CCCF1200322FA03F341EA0301B2
:1043E00002FA0CF2A0EB0C0000F10100704723F080
:1043F0007F4720F07F4C80EA030000F00040ACEBE8
:10440000070303F57C5303F1FF032DE9804909B449
:104410004FEA144324EA03484FEA154B25EA0B4EB2
:104420000FF2042606EB13273E7803FB0667C7F559
:10443000000707FB06F64FEAD64606F102064FEAEA
:10444000543707FB066CCCF1005C4FEA1C472CEAA2
:10445000074C0CFB06F507FB06F404EB15464FEA88
:10446000961649085FEA320234BF00204FF0004040
:104470004FEAD13706FB07FC4FEA1C4C0CFB0BF74D
:10448000D21B03FB0CF761EB07010CFB0EF7B0EB43
:10449000074072EB17420CFB08F734BFA2EB074250
:1044A000B2EB074261EB17414FEA0C444FEA910728
:1044B00006FB07FC4FEA1C4C0CFB0BF7B0EBC740AC
:1044C00072EB573203FB0CF734BFA2EBC742B2EBDF
:1044D000C74261EB57310CFB0EF7B0EBC70072EB34
:1044E00057720CFB08F734BFA2EBC702B2EBC7024E
:1044F00061EB57714FEA816141EA92114FEA8262A2
:1045000042EA90124FEA806004EBCC04039F4FEA2A
:10451000D13706FB07FC4FEA1C4C0CFB0BF7D21BF8
:1045200003FB0CF761EB07010CFB0EF7B0EB074048
:1045300072EB17420CFB08F734BFA2EB0742B2EB59
:10454000074261EB17414FEA8C5504EB9C244FEA7C
:10455000910706FB07FC4FEA1C4C0CFB0BF7B0EB7A
:10456000C74072EB573203FB0CF734BFA2EBC742D4
:10457000B2EBC74261EB57310CFB0EF7B0EBC70053
:1045800072EB57720CFB08F734BFA2EBC702B2EB19
:10459000C70261EB57714FEA816141EA92114FEA1C
:1045A000826242EA90124FEA806015EB4C2544F19A
:1045B00000044FEAD13706FB07FC4FEA1C4C0CFB0A
:1045C0000BF7D21B03FB0CF761EB07010CFB0EF79B
:1045D000B0EB074072EB17420CFB08F734BFA2EBBD
:1045E0000742B2EB074261EB17414FEA813141EAE2
:1045F00092414FEA823242EA90424FEA80304FEADB
:104600000C7615EB1C1544F1000448EA03434EEA0E
:104610000B484FF0000EB2EB080C71EB030724BF00
:10462000624639464EEB0E0E4FF0000B0018524119
:1046300049414BEB0B0BB2EB080C71EB03077BF121
:10464000000B24BF624639464EEB0E0E4FF0000BB6
:104650000018524149414BEB0B0BB2EB080C71EBCC
:1046600003077BF1000B24BF624639464EEB0E0E6A
:1046700051EA020718BF46F0010616EB0E7655F117
:10468000000254F1000103D5BDE88901BDE80088AE
:10469000BDE88901BDE80048B619524141EB01016E
:1046A000A3F10103704780807F7E7D7C7B7A7978DF
:1046B000777676757473727171706F6E6E6D6C6CE7
:1046C0006B6A6A6968686766666564646363626189
:1046D0006160605F5F5E5E5D5D5C5C5B5B5A5A590A
:1046E0005958585757565655555554545353525276
:1046F0005251515050504F4F4F4E4E4D4D4D4C4CCE
:104700004C4B4B4B4A4A4A49494948484847474716
:104710004746464645454544444444434343434253
:104720004242424141419C46002B30D477002BD07D
:104730004FEA37071CB503B44FF010004FF01001DB
:10474000BAF1000F06D0BCF1000FDCBF40F008004A
:1047500040F008014FF000000FBCBDE810400BF125
:10476000010BBBF1010F08BF5FEA170722BF12F16F
:10477000010211F101014FF0004143F1000300F08B
:10478000004043EA00007047F9D35708D0E746EAF3
:1047900006464FEA164613F1400F1FDD13F1200FB6
:1047A000DFBF16430A46002120335B42BED0C3F16F
:1047B000200746EA06464FEA164602FA07F746EA97
:1047C000070622FA03F2C3F1200701FA07F742EACB
:1047D000070221FA03F14FF00003A7E746EA0206B9
:1047E00046EA06464FEA164646EA0106BCBF46EAD6
:1047F0000646360C4FF000034FF000024FF0000168
:1048000094E72DE9804C70B49A46934691E83800BD
:1048100007C831EA400C48BF34EA430C03D5FFF720
:10482000E6FDFFF780FFF0BCBDE8008C2DE9804C71
:1048300070B49A46934691E8380007C810F0804F4C
:1048400008BF13F0804F03D100F005F8FFF76BFFAE
:10485000F0BCBDE8008C20F07F4723F07F4C80EA5D
:10486000030000F0004007EB0C03A3F57C53A3F119
:10487000FE0392F0000F00F0B38095F0000F00F0FF
:1048800077802DE901494FEA114021EA00484FEABB
:10489000144624EA064700FB06FC08FB06F607FB65
:1048A00008F818EB06484CEB164C00FB07F718EB22
:1048B00007484CEB17404FEA124B22EA0B4E4FEAE7
:1048C000154625EA06470BFB06FC0EFB06F607FB22
:1048D0000EFE1EEB064E4CEB164C0BFB07F71EEBC9
:1048E000074E4CEB174B18EB0B0840F1000018EB90
:1048F0000E0B58EB000840F100008F1A4FF000013A
:104900004FF000063CBFC943661B14BFB5EB040C57
:1049100000213CBFC943F61B4FEA174427EA044570
:104920004FEA1C472CEA074C04FB076205FB07F71C
:104930000CFB05F616EB074642EB174204FB0CFC9A
:1049400016EB0C4642EB1C421BEB060658EB020230
:1049500041414EEA8E0E46EA9E0601D5BDE8018928
:10496000B619524141EB0101A3F10103BDE80189F0
:104970004FEA144524EA05464FEA114721EA074C5D
:1049800005FB07F406FB07F70CFB06F111EB0741EB
:1049900044EB174405FB0CFC11EB0C4144EB1C44AD
:1049A0004FEA124722EA074C05FB07F206FB07F71E
:1049B0000CFB06F616EB074642EB174205FB0CFC18
:1049C00016EB0C4642EB1C456A1854F1000148BF37
:1049D0007047B619524141EB0101A3F10103704741
:1049E00095F0000F37D04FEA114221EA02464FEA14
:1049F000144724EA074C02FB07F106FB07F70CFB00
:104A000006F414EB074441EB174102FB0CFC14EBDA
:104A10000C4441EB1C414FEA154725EA074C02FBC9
:104A200007F506FB07F70CFB06F616EB074645EB0A
:104A3000174502FB0CFC16EB0C4645EB1C42121909
:104A400051F1000148BF7047B619524141EB0101D5
:104A5000A3F1010370474FEA144524EA05464FEAE3
:104A6000114721EA074C05FB07F106FB07F70CFB92
:104A700006F212EB074241EB174105FB0CFC12EB6F
:104A80000C4251EB1C414FF0000648BF7047921892
:104A900041EB0101A3F10103704703B40198410008
:104AA000009850EAC12018BF04204A0D18BF40F0FA
:104AB000010040F2FF72B2EB515F08BF40F002000C
:104AC000012808BF052002B070474100080218BF46
:104AD00004200A0E18BF40F001004FF07F4232EA76
:104AE000010108BF40F00200012808BF05207047FF
:104AF00010B510EE104A4FF019406949002200EB42
:104B000044002DED028B884257D8DFED660A14F081
:104B1000004F60EE200A14BFBEEE001AB6EE001A77
:104B200071EE200AFDEEE00A10EE900A00EE900A07
:104B3000F8EEE00A9FED5C1A00EEC10A9FED5B1AE9
:104B400000EEC10ADFED5A0A9FED5A1A00EE201A54
:104B5000DFED590A40EE010A9FED581A584B00F05C
:104B6000030100EE201A21EE000A7B4403EB8103CF
:104B7000D3ED000A534B7B4403EB810393ED001A02
:104B8000514B41EE000A7B4403EB8101801091ED13
:104B9000000A70EE800AEABB00EE100AB8EEC01AF6
:104BA000DFED4A1A9FED4A0ABDEC028B01EE210AA5
:104BB000BCEEC00A20EE200A10BD4FF0FF40A0431B
:104BC0001DD04FF0CE40B0EB440F81BFF7EE000A8E
:104BD00030EE200ABDEC028B10BD3E48B0EB440F16
:104BE00028BF012291D20220FBF791FD14F0004F63
:104BF00015D0BDEC028BBDE8104001F0BDBA14F534
:104C0000000F02BF9FED340ABDEC028B10BDBDEC5E
:104C1000028B00E009E0BDE8104001F097BABDEC5E
:104C2000028BBDE8104001F09FBA00EBD073591021
:104C30004FF07E5202EBC15100EE101AA0EB630060
:104C400002EBC05060EE200A00EE100A20EE208A2F
:104C500018EE100A88B118EE100AB0F1FF4F15D007
:104C600018EE100AFFF731FF042808BF01F084FA9C
:104C7000B0EE480ABDEC028B10BD0220FBF747FDE9
:104C8000BDEC028BBDE8104001F076BA0220FBF7C4
:104C90003EFDBDEC028BBDE8104001F065BA00009E
:104CA0000000501E3BAAB8400070313EF4FD0537AD
:104CB00012BB2A3D12BB2A3EFFFFFF3EFFFF7F3F94
:104CC000FA240000FE240000CE2400000000004B67
:104CD00000007E4E0000A0850000000000000000E3
:104CE0002DE9F04D2DED040B2DED0E8B96B0DDE989
:104CF0002550279CDDF890A025F0004624F00048C0
:104D0000BAF1000F14BF0121002101EB4502FC495B
:104D100053184A1093422AD3002814BF01230023BA
:104D200003EB44030B44F7498B4220D358EA0001BC
:104D30009FEDF59B76D0DFF8D8B35D4503D1BAF18E
:104D4000000F05D188E0BAF1000F08BF002100D0A4
:104D5000012101EB450111F5001F08D8002814BFFF
:104D60000121002101EB440111F5001F0BD99DED3C
:104D7000261B9DED240B16B0BDEC0E8B04B0BDE8D8
:104D8000F04D01F09DB90027002DBCBFE1498845D9
:104D900021DAE1498845A8BF02271CDAC3451ADC9D
:104DA000DE4901EB2851142908DDC1F1340220FA53
:104DB00002F101FA02F282420DD108E058B9C1F1C4
:104DC000140228FA02F101FA02F2424503D101F07D
:104DD0000101C1F1020756EA0A0124D1002C22DAAE
:104DE000002D18BF022F01D0012F0AD00220FBF79F
:104DF0008EFC16B0BDEC0E8B04B0BDE8F04D01F09A
:104E000047B90220FBF783FC01F042F951EC100B8B
:104E100001F01AFA41EC100B16B0BDEC0E8B04B089
:104E2000BDE8F08D18E09FEDBEAB9FEDBF8B002875
:104E300071D1B848804522D105F1804010F580102D
:104E400008BFBAF1000F07D0B3450ADC002CA8BF99
:104E50009DED260BE0DA0DE0B0EE490AF0EE690AAE
:104E6000DAE7002C06DA9DED260B51EC100B01F071
:104E7000EBF96FE0AE48784490ED000BCCE7D845F5
:104E80004DD1002C48DA2EB186423AD1BAF1000F4A
:104E900042D126E0BAF1000F13D00220FBF737FC15
:104EA00001F02AF98DED020B9DED240B8DED000B29
:104EB00010EE900A039961F31E0003909DED020B22
:104EC000AAE78DED02AB9DED240B1AEE901A10EEC1
:104ED000900A8DED000B61F31E0003909DED020B17
:104EE0009AE78DED028B9DED240B18EE901A10EED3
:104EF000900A8DED000B61F31E0003909DED020BF7
:104F00008AE709DA9DED240B51EC190B53EC102BB9
:104F100001F094FA1EE020E09DED240B7CE7864230
:104F20001BDAB4F1804F0DD0A4F10050B0F1FF5066
:104F300013D1002D11DB9DED240B51EC100B01F072
:104F400036F907E09DED240B53EC102B51EC100BC0
:104F500000F0C2BC41EC100B5EE79DED240B51EC60
:104F6000100B01F018F9BAF1000FCDE90E0142D192
:104F70009FED710B46B3A6F1E040B0F17F600CD01D
:104F80005E4538D1002D00DAA7B3022F0CBF0120F7
:104F90004FF0FF3001F0AAFBDCE7002D01DD002C13
:104FA0000DDA002D01DD002C1FDB002D16DA002CA0
:104FB00014DB012F08BF9FED620B3FF42DAFB0EE65
:104FC0004A0AF0EE6A0A27E7022F18BF002D0CD01C
:104FD000012F0AD1002DFFF61FAF06E0002DB8BF4C
:104FE000002C08DA012F3FF417AFB0EE480AF0EEBC
:104FF000680A11E71BE0012000EBE57050EA0701A9
:1050000015D0791EB0EE498AF0EE698A084308BFD0
:105010009FED4D8B4E480025804570DD4D494E4833
:10502000884514DDB0420DDB002C19DB2FE0012098
:10503000FBF76DFB16B0BDEC0E8B04B0BDE8F04D78
:1050400001F04AB8B34502DC002C09DC1FE08642BF
:1050500002DA002C1BDA03E05E452BDD002C16DDA6
:105060000220FBF754FB01F047F88DED020B53ECE7
:105070001A2B51EC180B01F0DFFBCDE9000103996D
:10508000019861F31E0003909DED020BC4E602201F
:10509000FBF73DFB01F040F810EE901A18EE900A75
:1050A0008DED020B8DED008B61F31E0003909DEDE5
:1050B000020BB1E69DED0E0B53EC192B51EC100BCE
:1050C00001F0C6FD9FED260BCDE9080153EC102B36
:1050D0009DED080B51EC100B01F0AEFB9FED221B78
:1050E00053EC112B01F0DCFC9DED081B53EC112B54
:1050F00001F0A2FB9FED1E1B53EC112B3CE08CE05A
:10510000FFFF1F00FFFF0F00000000000000F03F46
:105110000000F03F0000F07F0000404301FCFFFF73
:10512000000000000000F07F000000000000000010
:10513000D6230000000000000000000000000080F6
:10514000000000000000F0FF000000000000F0BFC1
:105150000000E0410000F043FFFFEF3F00000000CF
:10516000000000000000D03F555555555555D53F1E
:10517000000000000000E03F01F092FC9DED080BF4
:1051800041EC1A0B53EC102B51EC100B01F054FBBB
:1051900053EC1A2B01F050FB41EC1A0B9FEDFE0B68
:1051A00053EC102B9DED080B51EC100B01F044FB60
:1051B00041EC1B0B9FEDFA0B51EC1A0B53EC102B2F
:1051C00001F03AFB41EC1A0B9FEDF70B53EC102B5F
:1051D0009DED080B51EC100B01F02EFB53EC1A2B3C
:1051E00001F036FD41EC1A0B51EC1B0B53EC1A2B62
:1051F00001F068F80690CDE906519DED060B53ECE1
:105200001B2B51EC100B01F023FD53EC1A2B01F07A
:1052100047FC41EC100B00F0A1B90020B6F5801F4F
:105220000EDA9FEDE30B53EC102B9DED0E0B51ECC2
:10523000100B01F001FBCDE90E016FF034000E46BA
:1052400000EB2650A0F2FF37C6F31300DA4940F016
:105250007F6646F040568842D8BF002408DDD74913
:105260008142C8BF012403DC0024A6F580167F1C00
:10527000D348784400EBC4000F9690ED00CB9DED31
:105280000E0B53EC1C2B51EC100B01F0E1FC9DEDCF
:105290000E0B41EC1B0B53EC1C2B51EC100B01F0D3
:1052A00011F841EC100B51EC190B53EC102B01F0E1
:1052B000C5F841EC1D0B51EC1B0B53EC1D2B01F001
:1052C000BBFA41EC1A0BBF488DED10AB784410953A
:1052D00090ED000B4FF0005040EA660000EB844078
:1052E0008DED080B00F5002009909DED080B53ECA7
:1052F0001C2B51EC100B01F0ABFC9DED0E1B53EC85
:10530000112B01F0CDFB41EC100B53EC102B9DED5C
:10531000100B51EC100B01F08FFA9DED080B41ECD6
:105320001C0B53EC102B9DED100B51EC100B01F0EE
:1053300083FA53EC1B2B01F0B3FB53EC1C2B01F055
:1053400087FC53EC1D2B01F077FA41EC1C0B53EC5E
:105350001A2B51EC1A0B01F06FFA41EC1B0B9A4817
:105360000621B0EE4B0AF0EE6B0A784400F012FE14
:10537000B0EE401AF0EE601AB0EE41DAF0EE61DA0B
:1053800053EC1B2B51EC1B0B01F056FA53EC1D2B6D
:1053900001F052FA9DED100B41EC1B0B53EC1A2B54
:1053A00051EC100B00F08EFF53EC1C2B01F044FA73
:1053B00053EC1B2B00F086FF9DED100B41EC1B0BFB
:1053C00053EC102B51EC100B01F036FA41EC1D0B95
:1053D0009FED7FEB53EC1E2B00F074FF53EC1B2B67
:1053E00000F070FF0890CDE908519DED080B53ECDB
:1053F0001E2B51EC100B01F02BFC53EC1D2B01F07C
:1054000027FC53EC1B2B01F04BFB9DED080B41ECF3
:105410001D0B53EC102B9DED100B51EC100B01F0FC
:105420000BFA41EC1B0B53EC1A2B51EC1D0B01F04A
:1054300003FA9DED080B41EC1A0B53EC102B51ECC9
:105440001C0B01F0F9F953EC1A2B00F03BFF41EC77
:105450001A0B51EC1B0B53EC1A2B00F033FF0C9082
:10546000CDE90C519DED0C0B53EC1B2B51EC100BAB
:1054700001F0EEFB53EC1A2B01F012FB41EC1B0B7D
:105480009FED550B53EC102B9DED0C0B51EC100BBD
:1054900001F0D2F941EC1A0B9FED510B51EC1B0BB3
:1054A00053EC102B01F0C8F941EC1B0B9FED4E0B98
:1054B00053EC102B9DED0C0B51EC100B01F0BCF9D3
:1054C00053EC1B2B00F0FEFE41EC100B48487844D7
:1054D00000EBC40090ED001B51EC100B53EC112BB2
:1054E00000F0F0FE41EC1B0B384601F0FFF8CDE96F
:1054F000080153EC1B2B51EC1A0B00F0E3FE41ECBE
:10550000100B3C48784400EBC40090ED00CB51EC0C
:10551000100B53EC1C2B00F0D5FE9DED081B53EC3B
:10552000112B00F0CFFE0690CDE906519DED080B42
:1055300053EC102B9DED060B51EC100B01F088FB8A
:1055400053EC1C2B01F084FB53EC1A2B01F080FB75
:1055500053EC1B2B01F0A4FA41EC100B9DED261B24
:1055600053EC102B8DED001B00959DED260B51EC9F
:10557000100B01F061F99DED000B41EC1A0B53EC9F
:10558000102B9DED260B51EC100B01F061FB9DEDF6
:10559000061B53EC112B2FE0000000604715F73F6E
:1055A000FE822B654715F73F44DF5DF80BAE543E96
:1055B00000000000000040438E9803007AB60B0004
:1055C000121E0000801F00004A1D000000000000A5
:1055D0000000000000000840000000E009C7EE3FA6
:1055E000FD033ADC09C7EE3FF5015B14E02F3EBE38
:1055F000D61B0000901B000001F01EF953EC1A2B83
:1056000000F060FE9DED060B41EC1A0B53EC102BE5
:105610009DED000B51EC100B01F00EF9CDE90C01E2
:105620009DED0C0B51EC1A0B53EC102B00F04AFEC5
:10563000CDE902010C46AA498C422FDB611A0843CE
:1056400018D19DED0C0B53EC102B9DED020B51EC82
:10565000100B01F0FDFA41EC1B0B9FEDA30B51EC7D
:105660001A0B53EC102B00F02DFE53EC1B2B01F00A
:10567000E1F92DD20220FBF74AF800F03DFD10EED3
:10568000901A18EE900A8DED020B8DED008B61F3F0
:105690001E0003909DED020BFFF7BEBB944A24F061
:1056A0000041914214D39349214408437FF4EFAC65
:1056B0009DED0C0B53EC102B9DED020B51EC100BE0
:1056C00001F0C6FA53EC1A2B01F0B4F97FF6DFAC07
:1056D00024F000408849894A002601EB205182428B
:1056E0002BDA481C4FF4801121FA00F02044844A40
:1056F000C0F30A517A44A1F2FF3192ED000B814AC6
:105700008DED080BCA4020EA0202C0F3130040F4FA
:105710008010C1F1140120FA01F60992002CB8BFE3
:1057200076429DED080B53EC102B9DED0C0B51ECCC
:10573000100B01F08DFACDE90C019DED0C0B51EC35
:105740001A0B53EC102B00F0BDFD9FED6F0B089072
:10575000CDE9085153EC102B9DED080B51EC100BCB
:1057600001F06AF841EC1B0B9FED690B53EC102B19
:105770009DED080B51EC100B01F05EF89DED0C0B4C
:1057800041EC1C0B53EC102B9DED080B51EC100B56
:1057900001F05EFA53EC1A2B01F082F99FED5E1BCB
:1057A00053EC112B01F048F853EC1C2B00F08AFD50
:1057B00041EC1A0B51EC1B0B53EC1A2B00F082FD41
:1057C000CDE902019DED020B53EC1B2B51EC100BAC
:1057D00001F03EFA53EC1A2B01F062F99DED020B39
:1057E00041EC1A0B53EC102B51EC100B01F024F888
:1057F000CDE908014A489DED080B0521784400F0E9
:10580000C9FB9DED081B51EC100B53EC112B01F063
:1058100013F89DED021B53EC112B01F041F9CDE97A
:1058200006019DED020B53EC1A2B51EC100B01F00D
:1058300003F853EC1A2B00F045FD9FED3B0B41ECB8
:105840001A0B53EC102B9DED060B51EC100B01F0D5
:10585000FFF99DED060B41EC1B0B53EC102B9DED5E
:10586000020B51EC100B00F0E7FF53EC1B2B00F088
:10587000E5FD53EC1A2B01F0EBF99DED021B53EC07
:10588000112B01F0E5F953EC192B01F009F9CDE9E1
:10589000020101EB065001150029C8BF039015DC79
:1058A0009DED020B324651EC100B01F072FBFFF73D
:1058B000F4F8042808BF00F02FFC32469DED020BDF
:1058C00051EC100B01F065FBCDE902019DED020BDF
:1058D00051EC180B53EC102B00F0AEFFFFF73ABB66
:1058E0000000904000000000FE822B654715973CA9
:1058F00000CC904000346F3F01FCFFFF0000E03F10
:10590000581B0000FFFF0F0000000000432EE63F81
:10591000396CA80C615C20BEEF39FAFE422EE63FDE
:10592000E818000000000000000000000000004037
:1059300010B510EE100A2DED068BB7EE001A10EE22
:10594000901AB0EE418A0022A0F5000CDFEDFE9A1D
:105950004FF00073BCF1FE4F4FF07F4403EB410C5E
:1059600080F0B481BCF1804FC0F02082F74901443F
:105970009FEDF73AB1F5005F40F2D48200F5802147
:10598000CB0C03F00F0101EE901AC3F307137F3B1A
:10599000A0EBC350B8EEE12A00EE100A1A44DFED86
:1059A000ED2AF0EE411A42EE221AF0EE613A70EE64
:1059B000232A30EE632A12EE900A00F500606FF39E
:1059C0000B0001EE900A73EEE13A33EE804AC1EE2D
:1059D000223A22EE230A10EE100A00F500606FF35F
:1059E0000B0000EE100A00EE612A00EE442A62EE7F
:1059F000232A70EE221A21EEA12ADFEDD73A02EE19
:105A0000233A23EE023A20EE012A22EE811A03EE17
:105A1000211A32EE010A10EE100A00F500606FF351
:105A20000B0000EE100A72EE401A31EE812A9FED53
:105A3000CB1A60EE011A9FEDCA1A20EE011A9FEDF3
:105A4000C90A02EE001A31EE810A10EE100A00F5C2
:105A500000606FF30B0000EE100AC34871EEC01A2D
:105A600031EE812A784400EBC10090ED003AD0ED90
:105A7000011A100101EE100AF8EEC12A32EE211AC5
:105A800031EE001A31EE031A31EE221A11EE100A2D
:105A900000F500606FF30B0009EE100A39EE621A90
:105AA00031EE431A31EE400A30EE610A32EE40AA7E
:105AB00010EE900A002100F500606FF30B0008EE75
:105AC000900A084670EEE8AA4FF0000029EE280A76
:105AD00000F00C01F0EEC00A10EE900AB0F18B4F0E
