:020000040800F2
:10000000181700206102000821220008692000085A
:100010001D22000859190008CD2800080000000022
:10002000000000000000000000000000992300080C
:10003000811F0008000000009D22000879240008AC
:100040007B0200087B0200087B0200087B0200089C
:100050007B0200087B0200087B0200087B0200088C
:100060007B0200087B0200087B0200087B0200087C
:100070007B0200087B0200087B0200087B0200086C
:100080007B0200087B0200087B0200087B0200085C
:100090007B0200087B0200087B0200087B0200084C
:1000A0007B0200087B0200087B0200087B0200083C
:1000B000D52400087B0200087B0200087B020008B0
:1000C0007B0200087B0200087B0200087B0200081C
:1000D0007B020008D5250008412600087B020008A5
:1000E0007B0200087B0200087B0200087B020008FC
:1000F0007B0200087B0200087B0200087B020008EC
:100100007B0200087B0200087B0200087B020008DB
:100110007B0200087B0200087B0200087B020008CB
:100120007B0200087B0200087B0200087B020008BB
:100130007B0200087B0200087B0200087B020008AB
:100140007B0200087B0200087B0200087B0200089B
:100150007B0200087B020008111B00087B020008DC
:100160007B0200087B0200087B0200087B0200087B
:100170007B0200087B0200087B0200087B0200086B
:100180007B0200087B02000800F002F800F059F83A
:100190000AA090E8000C82448344AAF10107DA45E2
:1001A00001D100F04EF8AFF2090EBAE80F0013F0DB
:1001B000010F18BFFB1A43F0010318470C7400002D
:1001C0002C740000103A24BF78C878C1FAD85207BE
:1001D00024BF30C830C144BF04680C6070470000C1
:1001E0000023002400250026103A28BF78C1FBD840
:1001F000520728BF30C148BF0B607047662906F020
:10020000C687782900F0FA80002070471FB506F0F5
:10021000ACFF9DE8030000F0E9FD00F0C7FD04001D
:100220000020002106F07EF9E06000F025FF00F0DC
:1002300073FA1FBD10B5002000F0BAFF00F085FF73
:1002400010BD00F0F3FF1146FFF7E0FF04F04CF89B
:1002500000F0DAF903B4FFF7EDFF03BC04F00EF889
:100260000948804709480047FEE7FEE7FEE7FEE74A
:10027000FEE7FEE7FEE7FEE7FEE7FEE70448054986
:10028000054A064B704700007D24000889010008DC
:10029000180300201817002018130020181300203E
:1002A000704753EA020C00F069802DE9F04B4FF0E3
:1002B0000006002B1FBFB3FA83F503FA05F424FAF6
:1002C00005F65E4012BF1643B2FA82F502FA05F453
:1002D000C5F120051EBF22FA05FC44EA0C042035B6
:1002E00056EA044C4FEA144418BF641C4FF000084F
:1002F0004FF00009904271EB030C39D3002919BF6C
:10030000B1FA81F701FA07F6B0FA80F700FA07F6BA
:10031000C7F120071EBF20FA07FC46EA0C0620376B
:10032000B6FBF4FCA7EB0507103F07F01F0BCBF162
:1003300020062CFA06F60CFA0BFB44BFB346002647
:10034000202FA4BF5E464FF0000B5BEA060C08BFEF
:100350004FF0010B19EB0B0948EB0608ABFB027CD5
:1003600006FB02CC0BFB03CCC01B71EB0C01C1E7FD
:100370000B46024641464846BDE8F08B13B508439C
:1003800018BF4FF0FF300146AFF30080BDE81C40BE
:10039000704700000FB4044910B503AA029800F09A
:1003A0009BFC10BC5DF814FB8C00002070B504466B
:1003B00085690068C10601D5302600E02026C00707
:1003C00007D070BDD4E9012130469047206A401C17
:1003D00020626D1EF6D570BD70B504468569007843
:1003E000C00707D170BDD4E9012120209047206AC1
:1003F000401C20626D1EF6D570BD000070B504462D
:100400000D4621461068AFF300802188090502D50A
:100410000F4A7A4402E00E4A7A440E32002104F177
:10042000240305E000F00F060009965D5E54491CA8
:100430000028F7D120780023000704D5702D02D0C2
:1004400009B1022311322046BDE8704000F0DDB949
:100450006C6E00002DE9F05F894604464FF0000AFB
:10046000DFF874B1FB44C0F820A02046E16888475B
:10047000002874D0252806D0D4E901219047206AAD
:10048000401C2062F1E700265F462046E16888476D
:100490002028054607DB312D05D2781910F8200CED
:1004A00008B10643F1E7B00701D526F00406C4F809
:1004B0001CA00027C4F818A02A2D09D0284605F052
:1004C000E7FF38B304EB8708303DC8F8185019E04F
:1004D00059F8041B204604EB87029161E1688847C4
:1004E000012F054618D1E069002820DA26F0200601
:1004F0001DE0D8F8180000EB800005EB4000303814
:10050000C8F818002046E1688847054605F0C0FF96
:100510000028EED1012F0AD02E2D08D12046E16807
:1005200088477F1C0546022F46F02006C4DBA069E1
:10053000002803DA404246F00106A061F00701D02E
:1005400026F010066C2D0BD0682D09D04C2D39D01B
:100550006A2D35D0742D35D07A2D33D016E038E0A1
:10056000E1682F4620468847B842054609D16C2FDE
:1005700026D04FF48060E168064320468847054650
:1005800004E06C2F1AD04FF4807006430DB3A5F130
:100590004100192802D8203546F400664A4629460B
:1005A000204626604E46FFF729FE80B101280BD079
:1005B000F61D26F0070000F1080956E74020E4E7A1
:1005C0008020D8E70020D6E706F104094DE7284649
:1005D00052E7206ABDE8F09F426E000010B5044665
:1005E00003E003F077FE401C09D014F8010B054925
:1005F0000028F6D1BDE810400A2003F06BBE4FF092
:10060000FF3010BD8C00002010B50446AFF3008011
:100610002046BDE81040FFF71DBE10B5002000F0D9
:1006200084FBFFF707FEBDE81040012003F026BE63
:100630000B460146184600F061BB032A40F23080A9
:1006400010F0030C00F0158011F8013BBCF1020F13
:10065000624498BF11F801CB00F8013B38BF11F894
:10066000013BA2F1040298BF00F801CB38BF00F8AB
:10067000013B11F0030300F05F83083AC0F00880EB
:1006800051F8043B083A51F804CBA0E80810F5E70C
:10069000121D5CBF51F8043B40F8043BAFF30080EF
:1006A000D20724BF11F8013B11F801CB48BF11F864
:1006B000012B24BF00F8013B00F801CB48BF00F834
:1006C000012B70474FF0000200B513469446964642
:1006D000203922BFA0E80C50A0E80C50B1F1200155
:1006E000BFF4F7AF090728BFA0E80C5048BF0CC003
:1006F0005DF804EB890028BF40F8042B08BF704761
:1007000048BF20F8022B11F0804F18BF00F8012BD2
:10071000704770477047704770B5064C7C44064D73
:100720007D4404E02046016808448047241DAC4213
:10073000F8D170BDE46E0000E86E00007047000064
:10074000004870473401002070B5064600F02AFBCF
:10075000056806F10B0020F00704B4429CBF00209E
:1007600070BD2B466A68BAB11068A04210D304F17C
:10077000080188423CBF5068586007D3516810197F
:1007800041601168091B016058601460101D70BD44
:1007900013465268002AE7D12146284600F012FB92
:1007A0000028DED170BD70B50446051F00F0FAFACE
:1007B0000068002C14BF446870BD002C18BFAC4208
:1007C0003CBF20466468F8D301680A18AA4218BFE3
:1007D000456003D12A680546114401602868411923
:1007E000A1421CBF6C6070BD6168696021680844EB
:1007F000286070BD10B5FFF7A3FF006810BD10B5ED
:100800000446FFF79DFF046010BD2DE9F0470D463B
:1008100099469246044600F124080168880604D5EA
:10082000E06921F01001216000E00120A84201DD13
:10083000471B00E00027A1697A1902EB0900081A9A
:10084000A0612078C00602D42046FFF7AFFD002645
:1008500008E0D4E901211AF806009047206A401CFC
:10086000761C20624E45F4DB2078C0060AD520466F
:10087000FFF79CFD06E0D4E9012130209047206A73
:10088000401C2062381EA7F10107F4DC07E0D4E920
:10089000012118F805009047206A401C2062281E9C
:1008A000A5F10105F3DC2046FFF796FD2078000650
:1008B00002D50220BDE8F0870120FBE72DE9FF4FBC
:1008C0000C461E464FF0FF378BB0D2E90001DDF831
:1008D00060800A908A46C1F30A5505B93D46002159
:1008E00008464FF00000BAF1000F00F4400005DAAE
:1008F00000EB80004FF4400101EA50004FEA9059AC
:10090000B9F1010F00DDB9460A9850EA4A000ED04D
:1009100044F61050A5F2FF3545432F14B8F1000FEF
:100920001ED07542291E1EDDC9F100021CE0B8F17F
:10093000010F4FF0000001D0302103E0F24305E049
:100940002154401CB042FBDB3046002200212154E0
:100950000B99C1F80880C1E900200FB0BDE8F08F05
:10096000BD1B6D1CDEE74A4600DA694206A800F0AE
:1009700011FB06AB93E8070003AB83E80700504682
:100980000A9903F048FE8DE80700A0F500501F38D3
:1009900000900398002D0ADD42F21F014A460844E8
:1009A000002303A90390684604F0B1F809E0A0F51C
:1009B00000504A461F38002303A90390684604F0FC
:1009C000BBF88DE807000004000C03D04FF0FF30A7
:1009D000410800E01046B8F1000F03D00022009259
:1009E00015461EE0751E05D400F036FA3032625509
:1009F0006D1EF9D5B3460122084302D000227F1CA8
:100A000004E02078302801D100227F1E002A0997B7
:100A100084D01DE0112D07DA00F01EFA3032625545
:100A20006D1C50EA0102F5D1084302D00098C8B10C
:100A30000EE00021681E05E0235C625C63542254D2
:100A4000401E491C8142F7DBAB46A81B401E0990A3
:100A5000002004F80B000B98099AC0F80880C0E940
:100A6000002B7AE711264FF0000857E72DE9F04FE9
:100A700088460446D21D22F0070191B0D1E9000159
:100A8000CDE90A0104F08FF902460B98C00F01D09E
:100A90002D2007E02068810701D52B2002E02021CE
:100AA00001EAC000032A099001D0072A05DB0346AA
:100AB0004146204600F02EFA0BE12078800601D551
:100AC000E06900E00620B8F1650F814606D0B8F174
:100AD000660F18D0B8F1670F70D131E00020B9F17E
:100AE000110F009001DB112301E009F101030AAAB3
:100AF00001A90CA8FFF7E2FEDDE90C70002609F160
:100B00000105834647E001204B4600904FF0004727
:100B10000AAA01A90CA8FFF7D1FEDDE90DB00C99D6
:100B20005D46002610B909F101000D18B9EB05006A
:100B300003D4C0F1FF3609F10105A5EB09002BE054
:100B4000B9F1010F01DA4FF001090020B9F1110FDD
:100B50000090484601DD112300E003460AAA01A9DE
:100B60000CA8FFF7ABFEDDE90C704D46002683466E
:100B7000207800070AD4AB4500DA5D4601A8012DB4
:100B800004DD411911F8011C302907D04F4502DA64
:100B900017F1040F04DA012082460FE06D1EEEE724
:100BA000002F02DCED1B3E4403E0781CA84200DD70
:100BB0007D1CB81B00F1010A4FF0004720780007A8
:100BC00003D4AA4501DB4FF0FF3A0021B7F1004FF3
:100BD0000DF143088DF8431024D002202B23002F61
:100BE00001DA7F422D230A21021EA0F1010000DC60
:100BF0005FB197FBF1FC97FBF1F201FB1C7C174600
:100C00000CF1300C08F801CDEEE7A8F101000370FB
:100C10002188090501D5452100E06521A0F10108E1
:100C200000F8011C09980FA9A1EB0807FF1D00B1EE
:100C30000120411901EBEA70A1693844081A401EED
:100C4000A0612078C00602D42046FFF7AFFB0998C8
:100C500028B1D4E901219047206A401C2062207805
:100C6000C00622D52046FFF7A1FB1EE0002E04DBC4
:100C7000B34502DD01A8805D00E03020D4E9012108
:100C80009047206A401C2062761CAAF101005FEAAE
:100C9000000A0AD100F08AF8C0680168405CD4E913
:100CA00001219047206A401C2062281EA5F1010501
:100CB000DCDC07E0D4E9012118F8010B9047206A39
:100CC000401C2062381EA7F10107F3DC2046FFF725
:100CD00083FB032011B041E6074B70B50D467B4402
:100CE00000F005F90446284603F0F0FA10B14FF081
:100CF000FF3070BD204670BDF33500002DE9F04196
:100D0000074615460E461020FFF71EFD04000AD0C8
:100D10006760C4E9026500F04DF801682160046075
:100D20000020BDE8F0810120FBE710B500F066FA75
:100D3000BDE8104000F05DBA10B5203AC0F00B805D
:100D4000B1E81850A0E81850B1E81850A0E81850C1
:100D5000203ABFF4F5AF5FEA027C24BFB1E8185037
:100D6000A0E8185044BF18C918C0BDE810405FEA99
:100D7000827C24BF51F8043B40F8043B08BF704715
:100D8000D20728BF31F8023B48BF11F8012B28BF1A
:100D900020F8023B48BF00F8012B7047004870471D
:100DA00034010020004870473C0100200048704793
:100DB00054010020004870476C01002070477047C4
:100DC0007047704738B504460A4600206946AFF3BD
:100DD0000080002808BF38BD02460099204600F078
:100DE0004AFA012038BD012000F040BBF8B5AFF34E
:100DF0000080054600200C46102000BF0646A819BA
:100E0000A0420DD9324669460020AFF300800700AA
:100E100008BF00F02BFB0098A04218BF0546C4197C
:100E2000FFF7C0FF05600746F01D20F007004619D8
:100E3000284600F00AF8B44208BFF8BDA21B3146AC
:100E40003868BDE8F84000F016BA00210160C0E93A
:100E5000011070471020704730B5B0F10A0271F1EF
:100E600000034FEA900E4EEA817EB0EB0E0061EB7C
:100E700091014FEA101E4EEA017E10EB0E0041EB8D
:100E800011114FEA102E4EEA016E10EB0E0041EBED
:100E900011214FEA104E4EEA014E10EB0E0041EBCD
:100EA0001141401841F100014FEAD00040EA417081
:100EB0004FEAD1014FEA810444EA907410EB8005B7
:100EC00044EB01046D1944EB0404521BA3414FF0A1
:100ED000000348BF0A3200D530BD401C41F100017B
:100EE00030BD000001694A1C02610878704700B5F6
:100EF0008FB0CDE901310021059105497944CDE953
:100F0000031011466846FFF7A5FA0FB000BD0000B8
:100F1000E5FFFFFF2DE9F0411F4604460326016867
:100F2000072A01F4006004DB08B116A505E016A548
:100F300003E008B115A500E015A521F01000206020
:100F4000A069C01EA0610FB1401EA0612046FFF73E
:100F50002DFA4FB1D4E9012138469047206A401C50
:100F60002062C01C206206E0206AFAE7D4E9012171
:100F700015F8010B9047761EF8D22046FFF72CFAA1
:100F8000BDE8F0814E414E006E616E00494E460054
:100F9000696E66002DE9F047814616468AB03548ED
:100FA00078440DC88DE80D0032487844801C03ACAD
:100FB0000DC884E80D0041F69B300844372190FBB2
:100FC000F1F290FBF1F5A5F1800501FB12041B3C49
:100FD00002D56442012000E00020DFF898A080469E
:100FE0000027FA44AAF1BE0A0EE0E0070AD0324612
:100FF000684607EB470101230AEB810103F09CFDE2
:101000008DE8070064107F1C002CEED1194F7F443F
:10101000AE3F19E0E80715D007EB04100DF1180AF0
:1010200090E80E008AE80E00C068F04201D19819DD
:1010300008903246012306A903A803F07DFD03AB07
:1010400083E807006D10641C002DE3D14FF001030D
:1010500032466946B8F1000F03A802D003F057FDED
:1010600001E003F069FDC9E90001C9F808200AB0F0
:10107000BDE8F0879865000010B542485421FFF79D
:1010800021FB41485421FFF71DFB40485421FFF745
:1010900019FB3F493B483C4A3F4B08603D490A60C9
:1010A0003A491960531C0365481C10650120086506
:1010B0003B48344A39A1784400F01AF920B938483D
:1010C00078440A3800F0CBF937482F4A35A17844E4
:1010D00000F00EF920B9344878440A3800F0BFF91E
:1010E00032482A4A2FA1784400F002F920B92F484B
:1010F00078440A3800F0B3F940232248DC0000218C
:10110000224600F0D2F820B125487844543800F047
:10111000A6F91D4822464023002100F0C6F820B160
:1011200021487844543800F09AF918482246102390
:10113000002100F0BAF8002806D01C487844BDE829
:101140001040563800F08BB910BD104870B5006DD6
:1011500020F001040B4800F043F90B4800F040F97F
:101160000A4800F03DF909E0206D20F00105204615
:1011700000F036F92046FFF716FB2C46002CF3D181
:1011800070BD0000380000208C000020E00000202E
:101190000000002004000020080000207200000071
:1011A0009A6400007700000086640000726400000A
:1011B0002DE9F0410646FFF7FDFD8046454613E068
:1011C00016B1E068B0420ED120682860D4E9010170
:1011D000D8F8007088472046FFF7E5FAD8F80000F5
:1011E000B842EBD100E025462C68002CE8D1BDE8E0
:1011F000F081002801D003F041B8704710B50021FC
:1012000002A000F013F9012010BD0000534947412E
:101210004252543A2041626E6F726D616C20746567
:10122000726D696E6174696F6E0000007546FFF73C
:10123000B5FDAE4605006946534620F007008546D9
:1012400018B020B5FFF71AF8BDE820404FF00006AF
:101250004FF000074FF000084FF0000BAC46ACE831
:10126000C009ACE8C009ACE8C009ACE8C00921F08D
:1012700007018D467047034640688C46002818BF1A
:1012800088423CBF03464068F8D318681844884237
:1012900007D00CF1030020F00700001D411A521A7C
:1012A0000146081D0A60FFF77EBA70B5C468A5073D
:1012B00013D0650211D4B2F5807F09D0B2F5007F5A
:1012C00006D0B2F5806F08D1012300F1240106E0B9
:1012D0005D1E6FF07F46B54201D3012070BD0161F4
:1012E000C361416024F470611143C160002070BD8E
:1012F0002DE9F0410C461646070047D0104600F095
:101300006FF82078611C61280AD0722802D07728F3
:101310003CD102E00125002405E00225042402E07E
:10132000082448F2020511F8010B2B2806D0622888
:1013300009D011F8010C74280AD00BE045F0030520
:1013400044F00204EFE745F0040544F00104EAE745
:1013500044F010043846214602F098FF411C15D095
:101360000021316171604FF40071F560F1617061CD
:10137000200704D530460222002100F0BFF8306D6E
:1013800040F0010030653046BDE8F0810020FBE709
:101390002DE9F0410D460646104C206DC10704D0E2
:1013A000410804D020F00104F7E722460EE0542063
:1013B000FFF7CAF907000ED0206D47F0010108437E
:1013C000542120653846FFF77DF93A4629463046D4
:1013D000BDE8F0418CE70020D6E70000380000208F
:1013E0002DE9F04704464FF000094FF0FF37C5687C
:1013F000D4E90486A80707D0204600F02FF930462C
:1014000002F03AFF002802DA3846BDE8F0872805E6
:1014100002D54046FFF7C7F94C212046FFF752F9A5
:10142000206D20F0010020654846EEE770B50546C6
:101430000C460A2000E06D1C02F030FF35B1287820
:101440000028F8D102E0641C02F028FF14B12078D3
:101450000028F8D1BDE870400A2002F01FBF10B587
:1014600000F040F9BDE81040FFF7C3BE10B500F032
:1014700053F9BDE81040FFF7BCBE000000000000BB
:1014800030B44FF0013C50F8042B51F8043BCCFA37
:1014900052F4D51A20D1FCB950F8042B51F8043B72
:1014A000CCFA52F4D51A17D1B4B950F8042B51F82C
:1014B000043BCCFA52F4D51A0ED16CB950F8042B77
:1014C00051F8043BCCFA52F4D51A05D1002CDAD0ED
:1014D00030BC4FF00000704729BAB1FA81F111F029
:1014E0001801D1F120008440F2D1CA40CB4012F063
:1014F000FF0213F0FF0330BCD01A70472DE9F04112
:10150000044616460D464769007B80072ED03846B4
:1015100002F0BAFE50BB3EB3012E02D0022E25D1FE
:1015200004E0204600F020F905441DE0384602F0B2
:10153000A7FEE168002841F01001E16005DA2046CD
:1015400000F058F80120BDE8F081C9030BD56268AE
:10155000E16A914200D81146A26911442269891AB0
:10156000814200DD08460544002D01DA0220EAE749
:10157000E16A6068E268814206D29103E06203D5C5
:1015800022F4003141F01002A6690027AE4213DCBC
:10159000E16A814201D90B4600E0034603EB060CE9
:1015A0002369ACEB030CAC4506DD814201D98C46C6
:1015B00000E084469C4505D1A760276042F02000EA
:1015C000A5620DE0AD1BE669AE1B8142A66000D9A5
:1015D0000846C01A281A20605819606022F02000BE
:1015E00003490840E060002084F84870ABE7000041
:1015F000BFCFD7FFC16821F4001141F08001C16065
:1016000000218160016070472DE9F0478146144652
:101610000E464FF0FF383248D5685769054209D069
:101620003846A16902F034FE002811DB2C48C04383
:101630000540E5602B4632464946384602F02CFE0E
:10164000A16920F00042B21A11440028A16103D020
:101650002046FFF7CFFF4046BDE8F08770B504464F
:101660000569C06A6168884200D80846E16821F4CB
:101670002011E160C90312D5A84208D02246411BBF
:101680002846FFF7C1FF10B14FF0FF3070BD0020BA
:10169000E562C4E90150E06820F48030E060002099
:1016A00070BD10B50446C06820F02000E060A16A5B
:1016B000A06988420DD02046FFF7D0FFE06820F4F3
:1016C000405040F01000E060A06AA0612069E06234
:1016D000606044F24001E0688843E06010BD0000B3
:1016E0001000020010B5014602A0FFF79FFE012086
:1016F00010BD000053494752545245443A205265A8
:101700006469726563743A2063616E2774206F7038
:10171000656E3A200000000010B5012805D00021B8
:1017200003A0FFF783FE012010BD09A1F8E7000028
:1017300053494752544D454D3A204F7574206F66BA
:101740002068656170206D656D6F72790000000022
:101750003A2048656170206D656D6F727920636F06
:10176000727275707465640010B50146C2689007A6
:1017700003D0900607D5886A0AE0FEF7E1FF012151
:101780000160881E10BD8B69486818440B69C01A37
:1017900091F848301BB191F84910401A10BD11035F
:1017A000FCD50028FADD401E10BD0000826800292B
:1017B00042F0010308BF22F001038360704700007C
:1017C00080B542F2043CC4F2010CDCF8002043F284
:1017D000E003CFF6FC7302EA030ED0E90031D0E952
:1017E000022043EA0E03194311430843CCF80000DA
:1017F00080BD0000C06C80B27047000000680840E7
:1018000018BF01207047000010B542684FF6FF6313
:10181000CFF6FF4302EA030C0B680A7943EA0C0394
:1018200043EA0222426082684FF2FD73CCF2FF036A
:1018300002EA030E0A69D1E902C342EA0E024C79B8
:101840001A4342EA0C0242EA44028260C26A097DFB
:1018500022F470020139C9B242EA0151C16210BDDD
:10186000B0B501EB410C4FF0100E092988BFACF167
:101870001E0C88BF4FF00C0E50F80E40072505FADD
:101880000CF5AC4303FA0CF32343062A40F80E3060
:1018900003D834306FF0040307E00C2A87BF2C30E4
:1018A0006FF0400330306FF0220302EB82020568D4
:1018B0001A441F23934025EA030391401943016012
:1018C000B0BD0000816841F0804181607047000038
:1018D00070B58CB001200121012500F0E1FC4FF42E
:1018E0008070012100F0F4FC082042F200040A900C
:1018F0000320C4F201048DF82C00002604F560409A
:101900000AA98DF82F6000F03DFB4FF48070012193
:1019100000F0EAFC4FF48070002100F0E5FC4FF489
:1019200080600696CDE908604FF48030079006A8E5
:10193000FFF746FF694620460096ADF80460029620
:1019400004968DF81450FFF75FFF20460121FFF742
:101950002DFF0CB070BD0000FEE7000010B546F290
:10196000B844C4F2020448F20001C2F60001204665
:1019700000F0DEF82046002100F0F4F810BD000071
:1019800080B546F2B841C4F2020148600846012120
:1019900000F0E8F880BD000080B582B08DF8070047
:1019A0000DF1070001F0EAFA02B080BD80B501F048
:1019B00015FB012080BD000080B582B08DF80700C6
:1019C0000DF1070001F0E4FA02B080BD80B501F02E
:1019D000E9FA80BD80B501F0EBFA80BD80B501F079
:1019E0007DFB80BD80B501F0C9F980BD80B501F0F7
:1019F00019FA80BD80B582B00068002818BF0120A8
:101A00008DF807000DF1070001F0D8FA02B080BD93
:101A100080B582B00068002818BF01208DF807004B
:101A20000DF1070001F0D2FA02B080BD47F200428A
:101A30000123C4F2000203FA00F0002911680CBF70
:101A400021EA0000084310607047000010B547F21B
:101A5000004CC4F2000CDCF8003040F6FE7282400C
:101A600023EA020ED1E90032D1E902411A432243AE
:101A7000114301FA00F040EA0E00CCF8000010BD5E
:101A800081B00022009247F20042C4F200020092AC
:101A9000009A1044083000900098016001B070472F
:101AA00081B00022009247F20042C4F2000200928C
:101AB000009A1044143000900098016001B0704703
:101AC00080B584B00120012100F0F6FB09200290CE
:101AD00042F2CF0001900020ADF80C0001A94FF0B8
:101AE000804000F02DFD4FF080404121012200F0A8
:101AF0001FFD1C20C0F203100090684600F092FB0E
:101B00004FF08040012100F0FFFC04B080BD0000D8
:101B100080B546F2B84048F20001C4F20200C2F6B5
:101B2000000100F059F9002818BFFFF717FF80BD2A
:101B300046F20002C4F2020202F58263984240F6C5
:101B40007D7002F58062C0F67D703CBF46F20002F7
:101B5000C4F202028B0000EA010054BF9060D06022
:101B6000704700000268002942F0010308BF22F01C
:101B70000103036070470000016821F0010101606A
:101B80000021016041608160C160016146F20F4146
:101B9000C4F2020188424FF02101416122DC46F289
:101BA0006F01C4F20201884240DC46F23F01C4F2F8
:101BB000020188426FDC46F21001C4F20201884241
:101BC00000F0C28046F22801C4F20201884201BF3F
:101BD00046F20800C4F202004FF47461016008BFCD
:101BE0007047F4E046F26F41C4F20201884238DCEB
:101BF00046F23F41C4F20201884262DC46F21041E3
:101C0000C4F20201884200F0A68046F22841C4F2E4
:101C10000201884201BF46F20800C4F202004FF4FC
:101C20007461C0F8001408BF7047D0E046F29F010D
:101C3000C4F2020188425BDC46F27001C4F2020188
:101C4000884200F0908046F28801C4F20201884286
:101C500040F0BD8046F20800C4F2020040F6407138
:101C600086E046F29F41C4F20201884256DC46F209
:101C70007041C4F2020188427ED046F28841C4F22B
:101C80000201884218BF704746F20C40C4F20200BD
:101C900040F6407175E046F24001C4F2020188420C
:101CA00073D046F25801C4F20201884201BF46F2E5
:101CB0000800C4F202004FF07461016008BF704771
:101CC00085E046F24041C4F20201884265D046F206
:101CD0005841C4F20201884201BF46F20800C4F232
:101CE00002004FF07461C0F8001408BF70476EE046
:101CF00046F2A001C4F20201884257D046F2B80170
:101D0000C4F20201884201BF46F20800C4F2020098
:101D10004FF03D51416008BF704758E046F2A04186
:101D2000C4F2020188424AD046F2B841C4F202012C
:101D3000884201BF46F20C40C4F202004FF03D5110
:101D4000016008BF704742E046F20800C4F202009A
:101D50003D210160704746F20800C4F202003D21B7
:101D6000C0F80014704746F20800C4F202003D219A
:101D7000C2F200014160704746F20C40C4F202001A
:101D80003D21C2F200010160704746F20800C4F232
:101D900002004FF474110160704746F20800C4F26B
:101DA00002004FF47411C0F80014704746F20800A6
:101DB0000021C4F20200C2F23D014160704746F2C8
:101DC0000C400021C4F20200C2F23D0101607047E4
:101DD000006800F00100704780B546F20003C4F2CD
:101DE000020340F63C7C03F58262C0F63C7C03F5BE
:101DF000806390423CBF46F20003C4F2020311EA42
:101E00000C0F05D04FF01E0E02680EEAD12001E043
:101E10004069802210408A0048BF04331A680CF1E0
:101E200041131940114018BF0121002818BF01209B
:101E3000084080BD0B0608D5D0F814C0002A4CF02D
:101E4000800308BF2CF080034361802908BF7047DE
:101E500001F01E011AB10268114301607047026867
:101E600022EA0101016070472DE9F04F026848F253
:101E70003F03CFF21C03D1F800901A40D1E9038E42
:101E800001F1140C9CE8F01042EA090242EA08024F
:101E900022432A4332438B6A3A43D1E90DAB42EAEB
:101EA0000C021A4342EA0A0242EA0B020260426949
:101EB000D1E90B3722F007021A433A434261C0F8D6
:101EC00004E04A6882608968C160BDE8F08F000064
:101ED00010B586B00120012100F0E2F94FF000506A
:101EE000012100F0E9F91020049003208DF814007E
:101EF00000200224C4F2020004A98DF8174000F06B
:101F000041F80020CDE90000CDE902046946002037
:101F1000FFF79CFD00200121FFF788FD0020002134
:101F2000FFF7AEFD06B010BD10B586B0012001214F
:101F300000F0B6F94FF00050012100F0BDF920206B
:101F4000049003208DF8140000200224C4F2020043
:101F500004A98DF8174000F015F80020CDE9000025
:101F6000CDE9020469461020FFF770FD1020012121
:101F7000FFF75CFD00200021FFF792FD06B010BDC9
:101F8000704700002DE9F041D1F8008000234FF0A8
:101F9000030C4FF0010E00240FE000BFC268AA43FB
:101FA000C260CA79C5689A402A43C2600134102CC5
:101FB00003F1020308BFBDE8F08128FA04F5ED073C
:101FC000F4D006680CFA03F5AE4306600E79076894
:101FD00006FA03F2013E3A43012E0260DED882681F
:101FE000EE43324082604A798E7987689A403A435C
:101FF000826042680EFA04F7BA43426006FA04F2BD
:10200000466892B232434260C8E700001C2303EAEC
:10201000810C6FF0030303EA510108440F23016AA6
:1020200003FA0CF399430162016A02FA0CF21143BC
:10203000016270470183704710B542F20004C4F298
:1020400001040146204601220723FFF709FC204630
:10205000FFF738FC20460221FFF7D0FB0028F9D01B
:102060002046FFF7C7FB10BDFEE7000010B582B0A9
:1020700001200121012400F013F94FF44070ADF864
:10208000040002208DF807000020C4F20200694617
:102090000094FFF777FF02B010BD000010B582B0CA
:1020A0000120012100F0FCF80220009040F20130F4
:1020B0000024C0F20010C4F20204019069462046D8
:1020C000FFF760FF20460221FFF7B4FF02B010BD0A
:1020D000F0B591B046F2B8454FF480000121C4F24A
:1020E000020500F0DDF828460021FFF73BFD2846F9
:1020F000FFF742FD2846FFF76BFE0028FAD14FF0AC
:102100000060029040F2941041F20004C2F200001C
:10211000C4F2010404904020261D059000204FF4D5
:1021200080610396CDE90600CDE908104FF44031F7
:10213000CDE90A00CDE90C100321CDE90E10109075
:1021400002A92846FFF790FE4FF4806000F09CF84B
:1021500040F24620C0F20110019001A800F062F8A0
:1021600028460021FFF7FEFC284610210122FFF738
:1021700061FEA5F58060FFF7FFFC00BF2846FFF772
:1021800027FE0028FAD14FF00060CDE9020640F2A8
:10219000F810C2F200000490002014210590CDE94F
:1021A00006104FF48061CDE908104FF48031CDE97D
:1021B0000A00CDE90C100321783DCDE90E101090F6
:1021C00002A92846FFF750FE4FF4C06000F05CF80B
:1021D0000B2701AEC0F202173046019700F022F83B
:1021E0004FF4C06000F050F83046019700F01AF844
:1021F00020468021012200F0CBFA20464021012216
:1022000000F0C6FA28460121FFF7ACFC2846FFF78C
:10221000DFFD0128FAD111B0F0BD0000FEE700009B
:102220007047000010B5C17800294EF20011CEF2BF
:1022300000011CD04EF60C52CEF2000212680723A9
:1022400023EA12220F23C2F1040C23FA02FE427881
:1022500084785FFA8CF390F800C09A4004EA0E0389
:102260001A43120101EB0C0383F8002300E08031D4
:102270000078012300F01F0203FA02F2C0F34210BB
:1022800041F8202010BD000040F080604EF60C5157
:1022900040F0FD70CEF2000108607047704700000A
:1022A000002943F63001C4F202010A680CBF22EA99
:1022B0000000104308607047002943F64001C4F253
:1022C00002010A680CBF22EA000010430860704750
:1022D000002943F64401C4F202010A680CBF22EA55
:1022E0000000104308607047002943F62401C4F23F
:1022F00002010A680CBF22EA000010430860704720
:1023000010B543F60404C4F20204626802F00C0340
:1023100042F20042082BC0F2F40206D0042B20D176
:1023200041F20022C0F27A021BE0D4F800C0236818
:1023300003F03F0E5FEA4C2341F20023C0F27A0320
:1023400058BF13462268B3FBFEFCC2F38812236811
:1023500002FB0CFCC3F30143022202EB4302BCFB71
:10236000F2F20260626847F26053C2F30312C0F6F1
:1023700000039A5C0168D14041606268C2F3822226
:102380009A5C21FA02F282606268C2F342329A5C7D
:10239000D140C16010BD00007047000082B043F61C
:1023A00008000021C4F202000191009150F8081CBD
:1023B00041F4803140F8081C50F8081C01F4003149
:1023C0000091019901310191009919B90199B1F573
:1023D000A04FF1D150F8081C890354BF00210121FE
:1023E00000910099012936D1816B41F080518163C0
:1023F00047F20001C4F200010A6842F440420A6058
:1024000001680160016841F400410160016841F424
:10241000A051016045F20841C0F2407140F8041C2F
:1024200050F8081C41F0807140F8081C50F8081C56
:102430008901FBD540F20571C0F8F813016821F05D
:1024400003010160016841F002010160016801F0CF
:102450000C010829FAD102B0704700004EF21001B9
:10246000CEF200010A68042822F0040308BF42F0FB
:1024700004030B60704700007047000010B54EF673
:102480008854CEF2000420684FF6FF7340F47000C9
:10249000206043F60000C4F202000168CFF6F66344
:1024A00041F0010101600021816002681A40026070
:1024B00043F21002C2F200424260026822F480221B
:1024C0000260C160FFF76AFF4FF0006044F8800CC3
:1024D00010BD000010B54FF080400121012400F034
:1024E0001DF8002808BF10BD4FF08040012100F00A
:1024F00007F840F20C00C2F20000047010BD0000AA
:10250000C9430182704700000288002942F001039C
:1025100008BF22F00103038070470000028A80890F
:102520000A4018BF0122084018BF01201040704720
:10253000002A82890CBF22EA010111438181704780
:1025400010B540F6FF32B0F800E0C4F2000240F2ED
:10255000004C9042C4F2010C0FDCB0F1804F19D056
:1025600040F20042C4F20002904213D040F6000252
:10257000C4F2000290420DD011E040F60042C4F2D5
:102580000002904206D0604504D00022C4F201024D
:10259000904204D14A882EF0700342EA030E41F2C1
:1025A000004340F48062C4F200039A4204D00C89D4
:1025B0002EF4407344EA030EA0F800E04B68624535
:1025C000C3620B88038504BF897A01860121818259
:1025D00010BD000010B541F20004C4F20104204611
:1025E00040F2255100F0DCF828B3204600F06AF9EB
:1025F00040F25C24C2F2000421880A0448BF10BDE6
:102600004A04C0B205D40D280CD141F4804020808A
:1026100010BD0A2810D141F4004020800120FFF7AE
:10262000F7F910BDFFF7C8F92088013081B2C7293A
:1026300088BF0020208010BD0020208010BD000039
:1026400010B544F20044C4F20004204640F2255183
:1026500000F0A6F828B3204600F034F940F25C24DC
:10266000C2F2000421880A0448BF10BD4A04C0B267
:1026700005D40D280CD141F48040208010BD0A28DB
:1026800010D141F4004020800120FFF7B3F910BDC4
:10269000FFF782F92088013081B2C72988BF002066
:1026A000208010BD0020208010BD000070B58AB0D1
:1026B000054608200121FFF7F3FD4FF4003001210A
:1026C000FFF7FAFD44F20044C4F2000404F5E436D6
:1026D000304605210722FFF799FC304606210722E4
:1026E000FFF794FC304607210722FFF78FFCE0201C
:1026F000089040F20220C0F20010099008A930466C
:10270000FFF740FC00204FF4402105900691ADF802
:102710001C0004A92046049500F078F84FF40060EE
:1027200001904FF08070029001A9204600F014F84B
:10273000204640F22551012200F050F840F22630A8
:10274000C0F20310039003A8FFF76CFD204601219F
:1027500000F014F80AB070BD80B5028A0B8822F42C
:10276000706C4A88B1F804E043EA0C03C9881A4344
:1027700042EA0E021143018280BD000082890029D5
:1027800042F4005308BF22F40053838170470000D5
:10279000002A828A0CBF22EA01011143818270471C
:1027A00001F01F024FF0010CC1F34213022B0CFA8F
:1027B00002F206D0012B14BF00F1140300F10C0348
:1027C00001E000F110031B880088090A1A4020FA72
:1027D00001F018BF0122104070470000C1F34213FE
:1027E00001F01F0C1421022B08BF1021012B4FF008
:1027F000010308BF0C21002A03FA0CF243580CBF56
:1028000023EA02021A4342507047000070B584B0B8
:102810000446008A0D46C98820F4405008432082AF
:10282000A0894EF6F3110840A9882A896B890843CC
:1028300010431843A081A08AA98920F4407008435E
:102840006E46A0823046FFF75BFD41F2004144F442
:102850008060C4F20101884214BF06F1080006F14D
:102860000C0000681922B4F90C1050432A680223A6
:10287000002948BF012302FA03F1B0FBF1F048F24E
:102880001F51C5F2EB11A0FB01235A096FF063033E
:1028900002FB0300B4F90C300426002B48BF0326CA
:1028A00000FA06F000F13200A0FB01014FF00F002A
:1028B00048BF072000EA511040EA0210208104B00E
:1028C00070BD000080886FF35F207047FEE7000056
:1028D00080B501F02FFC80BD80B501F041FC01F016
:1028E00055FC01F069FC01F07DFC01F087FC01F072
:1028F00091FC01F09BFC01F0A5FC80BD70B582B09D
:10290000054600F05FF940F2E824C2F200042846D0
:1029100084ED000A00F098F8284684ED010A00F0E2
:102920008BF86E46304684ED030A00F00DFC30460D
:10293000002101F0D3F8006801212061304601F048
:10294000CDF8006802216061304601F0C7F80068E8
:10295000A061284600F074F884ED070A00F086F9BB
:10296000304684ED020A01F04FF8204602B070BDF7
:10297000B0B588B040F21C01C2F20001097880298C
:1029800052D1044640F29020C2F20000006840F2AA
:10299000280520610020C2F20005A060286804F02C
:1029A00073FB41EC100B9FED221B02F01DFB51EC61
:1029B000100B03F0D9FD206095ED000A01EE100A1E
:1029C00040F22400C2F2000030EE000ABFEE002AFE
:1029D00090ED003A30EE020A81EE034AB1EE411A60
:1029E000B1EE405A81EE031A85EE035A82EE032AB5
:1029F00068460490042006AD059004A928460122EB
:102A000084ED010A8DED004A8DED011A8DED025A1B
:102A10008DED032A00F080FF04F11800294601F033
:102A20000BF8284600F0F0FF002008B0B0BD00BF52
:102A3000000000000000004090ED020A7047000016
:102A400090ED030A7047000090ED040A7047000003
:102A50002DE9F04188B0154640F21C02C2F2000296
:102A600012780446402A25D0802A2BD118680DF10F
:102A70001008019001A80290012001F118060390AE
:102A800002A94046012200F047FF06AF3846022166
:102A900042462B4600F030FE204631463A4601F0D1
:102AA00081F8384600F0B0FF404600F0ADFF08B0B6
:102AB000BDE8F081183120462A4601F073F808B0CD
:102AC000BDE8F08147F27050C0F60000FDF762FCEF
:102AD0000020049004A806900120079006A9204633
:102AE000012200F019FF08B0BDE8F08170B588B090
:102AF00000F118050446284600F072FF0020C4E9E2
:102B00000000C4E90200C4E90400CDE90200CDE9F7
:102B1000000068460490042006AE059004A93046E3
:102B2000012200F0F9FE2846314600F085FF3046CC
:102B300000F06AFF204608B070BD000090ED000A6A
:102B400040F28020C2F2000080ED000A70470000D1
:102B500090ED000A40F28420C2F2000080ED000AED
:102B60007047000090ED000A40F28820C2F2000099
:102B700080ED000A7047000090ED000A40F224004A
:102B8000C2F2000080ED000A7047000090ED000ADC
:102B900040F22800C2F2000080ED000A70470000F9
:102BA00090ED000A40F22C00C2F2000080ED000A15
:102BB00070470000007840F28C21C2F200010870DA
:102BC0007047000040F29020C2F2000090ED000A31
:102BD0007047000040F21D00C2F20000007870470C
:102BE00090ED000A40F21000C2F2000080ED000AF1
:102BF00070470000007840F21D01C2F20001002879
:102C000018BF01200870704790ED000A40F2902034
:102C1000C2F2000080ED000A7047000040F214008C
:102C2000C2F2000000787047007840F21401C2F24E
:102C30000001002818BF01200870704790ED000ABD
:102C400040F21800C2F2000080ED000A7047000058
:102C500040F21C00C2F2000000787047007840F299
:102C60001C01C2F2000108707047000040F26420AD
:102C7000C2F2000090ED000A7047000090ED000ADB
:102C800040F26020C2F2000080ED000A70470000B0
:102C900080B50320FFF7D0F90130000B00EE100AD9
:102CA0009FED061AB8EEC00A40F2642020EE010A39
:102CB000C2F2000080ED000A80BD00BF33335340F4
:102CC00040F21E00C2F2000000787047007840F227
:102CD0001E01C2F2000108707047000090ED000A6A
:102CE00040F22000C2F2000080ED000A70470000B0
:102CF00090ED000A40F26820C2F2000080ED000A68
:102D00007047000090ED000A40F26C20C2F2000013
:102D100080ED000A7047000090ED000A40F270203C
:102D2000C2F2000080ED000A7047000090ED000A3A
:102D300040F27420C2F2000080ED000A70470000EB
:102D400090ED000A40F27820C2F2000080ED000A07
:102D50007047000090ED000A40F27C20C2F20000B3
:102D600080ED000A704700000021016070470000FC
:102D7000017180ED000A70470170704710B52DEDAC
:102D8000028B84B040F29420C2F20000006840F24E
:102D9000D424C2F2000420600178EB2927D1411C21
:102DA00021604078902828D19FED1D8A02A800213B
:102DB000B0EE480AFFF7DCFF01A8B0EE480A00F0C9
:102DC000BFF9216801384A1C226049788DF80C103F
:102DD000042100BF2268013902F101032360527807
:102DE00000F8012FF6D101A8FFF70EFF0AE007A0B7
:102DF000FDF7F4FB9FED0A0A04E004A0FDF7EEFBEB
:102E00009FED070A04B0BDEC028B10BD496E7661E0
:102E10006C6964204865616465722E0D00000000D5
:102E2000000000002DE9F04784B040F2A020C2F27B
:102E30000000006840F2D825C2F200052860017841
:102E4000EB2963D1411C2960407890285ED103A80A
:102E500000210026FFF790FF02AC9FED370A2046C5
:102E600000F06EF90DF107008DF80760FFF7C2FE64
:102E70002868411C2960407802288DF80C004CD34A
:102E800040F2C42A0126C2F2000A0FF2D0080FF263
:102E9000AC091AE0DAF80010023001EBC70149680A
:102EA00028608847DAF80000013600EBC700416867
:102EB00028688847024640463946FDF76BFA0136D6
:102EC0009DF80C00F1B2814227D22868411C29608C
:102ED00047783906DED5032029684A1C2A604978DC
:102EE00021540138411CF7D1DAF80000043650F8BB
:102EF00037102046884710EE100A04F0C5F8024645
:102F00000B4648463946FDF745FAD8E705A0FDF7D8
:102F100065FB002004B0BDE8F087012004B0BDE8E7
:102F2000F08700BF496E76616C6964204865616412
:102F300065722E0D000000000000000049445F741F
:102F40006D70203D2025233034782C20646174611D
:102F5000203D2025312E32660D0A000049445F7461
:102F60006D70203D2025233034782C2064617461FD
:102F7000203D2025233034780D0A000040F29422B1
:102F8000C2F20002007812686FF39F31505470470C
:102F900040F2A022C2F20002007812686FF39F3163
:102FA0005054704740F2B820C2F2000000787047D9
:102FB00040F2D020C2F2000000787047007840F262
:102FC000B821C2F20001087070470000007840F29A
:102FD000D021C2F2000108707047000040F2C42006
:102FE000C2F20000016842F6F530C0F60000C86485
:102FF00042F62940C0F60000486542F65D40C0F642
:103000000000C86542F6CD40C0F60000486642F6B2
:103010003D40C0F60000C1F8600442F6DD40C0F655
:103020000000C1F8680442F6B530C0F600004867F9
:1030300042F60940C0F60000C1F8780642F68D302D
:10304000C0F60000C1F8880442F6A130C0F60000C6
:10305000C1F8900442F67930C0F60000C1F8980437
:1030600042F6E130C0F60000C1F8A00442F6653037
:10307000C0F60000C1F8C80442F65130C0F60000A6
:10308000C1F8D00442F63D30C0F60000C1F8D804C3
:1030900042F6F140C0F60000C1F8880542F619502A
:1030A000C0F60000C1F8900542F60550C0F60000D9
:1030B000C1F8C80542F62D50C0F60000C1F8D00591
:1030C00042F64150C0F6000042F65552C1F848069B
:1030D000C0F600020120C1F88826704770B540F2A2
:1030E000300640F29424C2F20006C820C2F2000466
:1030F00030802046C82100F09DFF40F2A025318895
:10310000C2F20005284600F095FF318840F2AC2657
:10311000C2F20006304600F08DFF206840F2D42154
:10312000C2F200010860286840F2D821C2F2000112
:103130000860306840F2DC21C2F20001086070BD16
:1031400080ED000A7047000080B540F2E021C2F235
:10315000000100F0A5FB80BD2DE9F04F81B02DED01
:103160000A8B9CB040F2180BC2F2000B9BED000AD8
:10317000B7EE00AA8AEE001A05464FF07E50F8EE30
:10318000000A11908DED121A02F056FD9BED001A07
:1031900011A88AEE011A14904FF000094FF07E50EA
:1031A000B6EE00BA03220F900EA9CDE90B990D904F
:1031B0000BA820EE0B0A159216910E461792189046
:1031C000044619921AA814A903228DED130ACDF80A
:1031D00038908DED101A00F09FFB95ED0F0AB0EEC0
:1031E000089AF0EE490A02F027FD3AEE400A8DED0A
:1031F0000E0A95ED0F0A4FF0010820EE091AB0EE05
:10320000008AF0EE490A1496CDF8548038EE41CA8F
:1032100002F012FD9BED001A30EE0C0A21EE000ABE
:103220008DED0B0A95ED0F0AF0EE490A3AEE400AD1
:103230001694CDF85C8002F0FFFC9BED001AB0EE16
:10324000409AB0EE410AF0EE480A02F0F5FC09A8F7
:1032500011AC29EE000ACDE9180814A92046032272
:103260008DED090A00F058FB05F1240A504621466D
:1032700000F0E2FB204600F0C7FB09AF384600F043
:10328000AFFB14AE30461AA9524600F08BFC38460C
:10329000314600F0D1FB304600F0B6FB9BED000A52
:1032A00040F224068AEE000AC2F2000696ED009A69
:1032B000F0EE480A02F0C0FC9BED001A29EE000A6D
:1032C0008AEE011A20EE0B0A8DED110A96ED000A26
:1032D000149414AC0EAF0DF12C0B07A82146032259
:1032E000CDF85480CDE91678CDF82C9020EE010A67
:1032F0008DED0E0ACDE918B800F00EFB4FF07E50B0
:10330000CDE914091194032005AE11AC129030469A
:1033100021460122CDF8589000F0FEFACDE914487C
:103320000DF10C0814A940460122CDF8449000F09C
:10333000F3FA4FF07E500321CDE91109CDE9139442
:103340001591CDE90E904FF07E50CDE91671032115
:10335000CDE90B990D90CDE918B101A814A903226C
:10336000CDF8409000F0D8FA11AC0DF1240B2046B6
:1033700059463246B14600F015FC14AE30461AA943
:10338000224600F0AFFB281D314600F055FB3046C9
:1033900000F03AFB204600F037FB0EAC20465946C1
:1033A000424600F0FFFB11AE304607A9224600F06E
:1033B00099FB14AF3846012132465B4600F09CF978
:1033C00005F10C00394600F037FB384600F01CFBD5
:1033D000304600F019FB204600F016FB11AC2046E9
:1033E00051464A4600F0DEFB14AE0DF104093046AA
:1033F0004946224600F076FB05F11400314600F004
:103400001BFB304600F000FB204600F0FDFA0DF1FA
:10341000380840460321012200F0B6FA0BAC0DF14A
:103420000C0B204651465A4600F0BCFB11AE30460C
:103430004146224600F056FB14AF38460121324681
:10344000534600F059F905F11C00394600F0F4FA32
:10345000384600F0D9FA304600F0D6FA204600F09F
:10346000D3FA404600F0D0FA484600F0CDFA58466C
:1034700000F0CAFA05A800F0C7FA07A800F0C4FADD
:1034800009A800F0C1FA1AA800F0BEFA00201CB08A
:10349000BDEC0A8B01B0BDE8F08F00002DE9F04FC4
:1034A0008BB0814609A80D4600F09AFAFFF7F0FBB1
:1034B00040F21C00C2F20000007880286ED140F279
:1034C0006020C2F2000040F264210068C2F20001F4
:1034D00009680090684603900120029102A907AC98
:1034E0000490CDE9051003A92046022200F014FA49
:1034F00005F134073846214600F09EFA204600F0D8
:1035000083FA05F12C0B0DF11C0A291D50465A4671
:1035100000F048FB6C4605F10C0120463A4600F0ED
:1035200041FB03AE30465146224600F009FC0DF146
:1035300024084046314600F07FFA304600F064FA35
:10354000204600F061FA504600F05EFA07AC05F143
:10355000140120465A4600F025FB05F11C016D467A
:1035600028463A4600F01EFB03AE304621462A4666
:1035700000F0E6FB40F2E020C2F20000314600F02D
:103580005BFA304600F040FA284600F03DFA20464B
:1035900000F03AFA5846414600F04EFA40F2E02177
:1035A000C2F20001484600F07BF909A800F02CFAAD
:1035B0000BB0BDE8F08F00002DE9F04F85B000F1B1
:1035C0000408044640460D4600F00AFA04F10C07D0
:1035D000384600F005FA04F1140A504600F000FAEB
:1035E00004F11C0B584600F0FBF904F12400009094
:1035F00000F0F6F904F12C00019000F0F1F904F16B
:103600003400029000F0ECF90DF10C09484629460F
:103610002A46257000F0B8F94046494600F00CFAF9
:10362000484600F0F1F9217803AE3046022200F05E
:10363000ABF93846314600F0FFF9304600F0E4F9C6
:1036400003AE304629462A4600F09EF950463146E0
:1036500000F0F2F9304600F0D7F903AE30462946C3
:10366000022200F091F95846314600F0E5F9304663
:1036700000F0CAF903AE30462946012200F084F971
:103680000098314600F0D8F9304600F0BDF903AE9D
:1036900030462946012200F077F90198314600F0C2
:1036A000CBF9304600F0B0F903AD284602210122E3
:1036B00000F06AF90298294600F0BEF9284600F0A9
:1036C000A3F940F21800C2F2000090ED000ABFEE2C
:1036D000001A81EE000A40F22C00C2F2000090EDC8
:1036E000001A20EE010A01F089FB204684ED0F0A42
:1036F00005B0BDE8F08F00002DE9F04F83B099468A
:1037000092460229804667D0012940F0B5809AF898
:10371000041099F80400814240F0AE809AF8050048
:1037200099F805201044C2B201A800F02DF99DF8C7
:103730000900002800F0A88001999DF808B09DF8C4
:1037400009C0A1F1040E002304E000BF013363456A
:1037500080F09A809AF805700024BB4238BF01249B
:10376000BBF1000F1AD0BB4218D2DAF800100122C8
:103770000439754651F8044F55F8047F54F8234036
:1037800047F823409AF805700024BB4238BF012453
:103790005A4503D2BB4202F10102EBD3002CD5D132
:1037A000BBF1000FD2D0D9F80020D91B043A012573
:1037B000774600BF52F8046F57F8040F56F821609F
:1037C0005D4540F823604FF0000028BF01202043F2
:1037D00005F10105EED0B9E79AF8052099F8050042
:1037E000824249D19AF8040099F804100844C1B201
:1037F00001A800F0C9F89DF80800002844D09DF801
:1038000008C09DF80910002203E000BF01326245A4
:103810003AD20B46A9B19AF80470019D9DF809307F
:10382000002400BFBA420FD2DAF8006055F8220037
:1038300056F8226056F8246040F8246001349C4217
:10384000F0D323B9E2E700BF0B46002BDED09AF895
:103850000470D71BDAD3019D002400BFD9F8000003
:1038600055F8226050F8270050F8240046F824004C
:103870000134A342F2D1C9E740460121012200F000
:1038800083F803B0BDE8F08F01AD4046294600F053
:1038900007F8284600F0B8F803B0BDE8F08F000044
:1038A0002DE9F04381B00F7991F805900446077136
:1038B00080F80590B800884600F026FC206037B3F9
:1038C0004FEA8906002500BF304600F01DFC216844
:1038D00041F825000135AF42F6D1002003E000BFDA
:1038E0000130B84213D0B9F1000FF9D02168D8F8EF
:1038F000002051F8201052F820200439043A4B4699
:1039000052F8046F013B41F8046FF9D1E8E7204613
:1039100001B0BDE8F08300002DE9F04381B04E68AE
:103920005FFA82F80446027146714FEA88000D463C
:1039300000F0EAFBB8F1000F206020D0F7B24FEAA8
:103940008709002605E000BF0136464505F1080558
:1039500015D0484600F0D8FB2168002F41F826001A
:10396000F2D02068296850F82600043904383A4615
:1039700051F8043F013A40F8043FF9D1E4E720460A
:1039800001B0BDE8F08300002DE9F041054601716A
:103990004271880090460E4600F0B6FB2860E6B102
:1039A0004FEA8807002400BF384600F0ADFB2968C5
:1039B00041F824000134A642F6D1002403E000BF00
:1039C0000134A64209D0B8F1000FF9D02868394671
:1039D00050F82400FCF776FEF2E72846BDE8F081B7
:1039E000B0B5044640F20110A080042000F08CFB2A
:1039F00005462060042000F087FB01462860002275
:103A000020460A60B0BD0000B0B5017904460068E8
:103A100059B1002550F82500002818BF00F070FBB0
:103A20002179013520688D42F4D3002818BF00F0B9
:103A300067FB2046B0BD00002DE9F04381B004468D
:103A4000884246D088462179206861B1002500BFB0
:103A500050F82500002818BF00F052FB21790135ED
:103A600020688D42F4D3002818BF00F049FB98F875
:103A7000047098F80590B800277184F8059000F05C
:103A800043FB20602FB34FEA89060025304600F043
:103A90003BFB216841F825000135AF42F6D10020FB
:103AA00003E000BF0130B84213D0B9F1000FF9D0E4
:103AB0002168D8F8002051F8201052F8202004394D
:103AC000043A4B4652F8046F013B41F8046FF9D1B8
:103AD000E8E7204601B0BDE8F0830000006850F838
:103AE000210070472DE9F04381B08946904609795D
:103AF00099F80520FFF748FF99F8041098F804207A
:103B000091422ED199F8056098F80520964228D167
:103B100021B3002303E000BF01338B421ED0002EEF
:103B2000FAD0D9F800200768D8F8005052F82320BE
:103B300057F8237055F823503C1F2F1F151F32468E
:103B400095ED010A97ED011A043530EE410A04376C
:103B500084ED010A0434013AF2D1DDE701B0BDE899
:103B6000F08303A0FCF716FC0020FCF74DFD00BF1E
:103B70004D6174726978204D61747269783A3A6F58
:103B800070657261746F722D28636F6E7374204D4F
:103B9000617472697820266D3229204552524F5245
:103BA0002E0000002DE9F04F83B091468A46097936
:103BB0005279804601A8FFF7E7FE9AF804109AF8B8
:103BC000052099F8043002FB01F0012831D199F861
:103BD000052040461946FFF7D7FE98F80400002854
:103BE00000F0988098F8040098F80560002203E03F
:103BF0000132824280F08E80002EF9D0DAF8001077
:103C0000D9F800700B68D8F8001057F8225051F816
:103C10002210043D0F1F314693ED000A95ED011A65
:103C2000043520EE010A87ED010A04370139F3D18A
:103C3000DEE799F805E00EFB03F001282DD14046A0
:103C4000FFF7A2FE98F80400002863D098F804005B
:103C500098F80560002202E0013282425AD2002E1A
:103C6000FAD0D9F80010DAF800700B68D8F8001014
:103C700057F8225051F82210043D0F1F314600BF63
:103C800093ED000A95ED011A043520EE010A87ED47
:103C9000010A04370139F3D1DEE79A4240D1A9B3D2
:103CA0004FF0000B04E000BF0BF1010B8B452DD052
:103CB000BEF1000FF8D0DDF804C0002703E000BF1C
:103CC00001377745F0D0002AFAD0DAF800005CF826
:103CD0002B4050F82B00D9F8005004EB8704043D2A
:103CE0000438164655F8043F90ED010A03EB8703AC
:103CF00093ED001A043020EE010A94ED001A013E03
:103D000030EE010A84ED000AECD1D9E701A9404662
:103D1000FFF7C6FD01A8FFF777FE03B0BDE8F08FFF
:103D200002A0FCF75BFC0020FCF76EFC4F70657294
:103D300061746F722A204552524F522E0D000000BE
:103D40002DE9F04381B089469046097999F805201C
:103D5000FFF71AFE99F8041098F8042091422ED12A
:103D600099F8056098F80520964228D121B30023E0
:103D700003E000BF01338B421ED0002EFAD0D9F8E9
:103D800000200768D8F8005052F8232057F8237015
:103D900055F823503C1F2F1F151F324695ED010A81
:103DA00097ED011A043530EE010A043784ED010A5B
:103DB0000434013AF2D1DDE701B0BDE8F08303A09D
:103DC000FCF7E8FA0020FCF71FFC00BF4D6174729D
:103DD0006978204D61747269783A3A6F70657261E2
:103DE000746F722B28636F6E7374204D61747269E7
:103DF0007820266D3229204552524F522E00000065
:103E0000C0E900327047FCF708FC00006FF060402A
:103E1000704700006FF000407047000010B5044686
:103E2000006828B12168A2686160511A00F05CF84E
:103E3000204610BD10B50446006828B12168A2686C
:103E40006160511A00F050F8204610BD80B584B072
:103E50000A4600F1080101A800F012F8DDE90101AD
:103E6000884208D0002100BF0170DDE90102013065
:103E700090420190F8D101A800F00AF804B080BD8A
:103E80000B6803600B681A44C0E901217047000009
:103E9000016882681160704770B516460D46044689
:103EA0000020E060236111B1284600F02FF981194C
:103EB0004219C4E900012046A160E26070BD000023
:103EC00010B50446D0E90110884203D00138814280
:103ED000FCD1A060206820B12168E268511A00F08E
:103EE00003F8204610BD000080B500F001F880BD49
:103EF00080B500F007F980BDB0B50D460446FFF768
:103F000085FFA8420BD3B5F1005F0BD2E80000F0AB
:103F1000FDF800EBC501C4E90000A160B0BD20467A
:103F2000FFF771FFFCF779FB01604968416001EB25
:103F3000C201816070470000D0E900124A607047FA
:103F400070B584B004460020C4E90000A060D1B17F
:103F5000204615460E46FFF7CFFF01A82146324600
:103F6000FFF7E2FFDDE90201884209D0D5E900123E
:103F7000C0E90012DDE90201083088420290F5D163
:103F800001A8FFF7D9FF204604B070BD80B5FFF748
:103F900045FF80BDB0B50D460446FFF73BFFA84284
:103FA00007D3284600F0B2F84119C4E90000A16027
:103FB000B0BD2046FFF727FF80B584B00A46014612
:103FC00001A800F011F8DDE90201884207D00021C4
:103FD0000170DDE90202013090420290F8D101A89F
:103FE00000F008F804B080BD0160496841601144E8
:103FF00081607047D0E900124A607047B0B50C4646
:104000000546D0E900106368421A981A012A6060D8
:10401000A8BFFCF712FB606829682860A06861608F
:1040200069686860E068A160A968A8606068E1608C
:104030002060B0BD80B5D0E900239A1A8A4203D22D
:10404000891A00F007F880BD98BF80BD026811444E
:10405000416080BDF0B585B004464068A2680D4659
:10406000111AA94227D22168401A46192046FFF7A3
:10407000D1FEB04225D3234653F8081FD4E90027C8
:10408000891AB6EB410F98BF4E00BA1A6F46B1EBD2
:10409000500F28BF064638463146FFF7FDFE294639
:1040A000FFF7D4FE20463946FFF7A8FF3846FFF752
:1040B00007FF05B0F0BD20462946FFF77DFF05B09C
:1040C000F0BD2046FFF79FFEB0B504460020C4E9CE
:1040D0000000A06039B120460D46FFF75BFF204687
:1040E0002946FFF769FF2046B0BD000080B5FFF705
:1040F000A1FE80BD40F20830C2F2000000687047A7
:10410000AFF30080FCF74FBBAFF3008010B504465F
:10411000002808BF012400BF2046FCF715FB00283B
:1041200018BF10BDFFF7E6FF08B18047F4E7002095
:1041300010BD000010B540F2E024C2F20004204699
:1041400003210122FFF720FC43F6092040F2000280
:10415000C0F60000C0F600022146FCF769FA10BD67
:1041600010B540F29424C2F200042046C821FFF7A3
:10417000ABFF44F2ED0040F20002C0F60000C0F6D2
:1041800000022146FCF754FA10BD000010B540F2C1
:10419000A024C2F200042046C821FFF795FF44F294
:1041A000ED0040F20002C0F60000C0F60002214619
:1041B000FCF73EFA10BD000010B540F2AC24C2F28C
:1041C00000042046C821FFF77FFF44F2ED0040F2D3
:1041D0000002C0F60000C0F600022146FCF728FAF3
:1041E00010BD000040F29420C2F20000006840F2CE
:1041F000D421C2F2000108607047000040F2A02004
:10420000C2F20000006840F2D821C2F2000108604A
:104210007047000040F2AC20C2F20000006840F29B
:10422000DC21C2F2000108607047000080B540F256
:10423000BC20C2F20000002100220023FFF7E0FDB5
:1042400080BD000010B540F2C424C2F2000440F268
:10425000BC22C2F2000220464FF48071FFF770FECC
:1042600043F68D7040F20002C0F60000C0F6000276
:104270002146FCF7DDF910BD00207047FEE7000085
:104280004FF0FF307047000000207047012070475A
:104290004FF0FF307047000000207047704700006B
:1042A00010B504466FF00400FEF7D8F840F20E3166
:1042B000E008C2F2000108704FF47A71484340F2FE
:1042C0000C31C2F20001088010BD00004FF0FF3039
:1042D0007047000041F20001C4F201010A88520651
:1042E000FCD5C2B28A807047A6B025A8FEF73CFD77
:1042F000FDF774FBFDF75AFB15A80321FFF75CF9E6
:10430000FEF72AFF0DA8FEF7F1FBFEF731FB4FF495
:10431000A060FDF7B9FFA820FFF7C2FF4FF4E1301E
:1043200000F032F94FF4E130FEF7C0F9FDF7D0FEAE
:10433000FDF7B4FEFDF79AFEFDF7CAFAFDF7C8FDDA
:10434000FDF7F2FDFDF7BCFB002000214FF0000857
:10435000FDF796FB00200021FDF7A2FB4FA0FCF724
:104360003DF940F25C2AC2F2000A6E465CA750A4F6
:1043700055A54FF0000B4FF0000900BFFDF72AFBD9
:1043800040B13046AAF80080CDF80080FDF740FB30
:10439000FDF72CFBFEF71EFC0028EFD0FDF71AFB03
:1043A000002877D1FDF712FBB0B12046FCF716F9D3
:1043B0003046AAF80080CDF80080FDF71BFBFDF722
:1043C00011FB10EE100A02F05FFE024628460B4673
:1043D000FBF7E0FFFDF706FB40F20C01C2F2000123
:1043E00008780128D6D11BF1010081F8008049F13D
:1043F000000114220023FBF754FF9346994652EA2A
:104400000300C7D1FEF70AFC00283FD0FEF720FCCE
:104410008028BFD10BA8FEF797FEFEF7D3FB0BACAD
:1044200030460DA922460AAB8DED0A0AFEF710FBB5
:1044300030460021FFF752FBFEF720FC3046FFF725
:10444000E3FA2046FFF7E0FA08AC204615A9FFF78B
:1044500025F82046FFF7D8FA0DA8FEF74FFAD0E965
:1044600004C20368AE46D0E90154C1680093CDE9A7
:1044700004C2CDE902410195D0E906010CA4CDE9C1
:1044800006013046754600F037F883E7FEF718FC62
:1044900080E700BF3846FCF7A1F872E7496E6974FF
:1044A00069616C697A696E672E2E2E0D000000001E
:1044B0004943204D65737361676520726563656963
:1044C0007665642E0D0000007265666572656E6328
:1044D00065203D202523312E30660D0A00000000A6
:1044E0005043204D6573736167652072656365692C
:1044F0007665642E0D00000080B540F2941149F2FB
:10450000EB0240F2103EC2F20001C8F22D12C2F2DC
:10451000000E81230A608EF8003003684FF0870C8C
:104520004B6082230B724368C1F8093083234B73BD
:104530008368C1F80E3084238B74C368C1F81330CC
:104540008623CB75036981F81CC08B614269CEF864
:104550000030C1F81D20882281F8212082698EF860
:1045600000C0C1F82220852281F82620C069CEF83B
:104570000000C1F8270040F60D20A1F82B002D20E7
:10458000FDF7FEF980BD000070B588B0054601203A
:104590000121FDF785FE10200121FDF799FE41F272
:1045A0000004C4F2010404F57046304609210722D4
:1045B000FDF72CFD30460A210722FDF727FD4FF4B9
:1045C000C060069040F20220C0F20010079006A9D9
:1045D0003046FDF7D7FC00204FF4402103900491B2
:1045E000ADF8140002A920460295FEF70FF9204607
:1045F00040F225510122FEF7F1F840F22530C0F2D9
:104600000310019001A8FDF70DFE20460121FEF7E1
:10461000B5F808B070BD5FEA400C08BF91F0000F1C
:104620004FEA8C234FEAC12243EA51514FEA1C5012
:1046300018BF00F5F0404FEA300018BF41F00041CC
:104640005FEA6C5C00F02980BCF1FF3F08BF40F0DE
:1046500080407047130C06BF12044FF0100C4FF04F
:10466000000C130E04BF12020CF1080C130F04BF50
:1046700012010CF1040C930F04BF92000CF1020C18
:10468000D30F04BF52000CF1010C11464FF0000291
:10469000A0F11F00A0EB0C00704711F0004F08BF05
:1046A000704731F000413FF4D5AF0B0C06BF090451
:1046B0004FF0100C4FF0000C0B0E04BF09020CF170
:1046C000080C0B0F04BF09010CF1040C8B0F04BF85
:1046D00089000CF1020CCB0F04BF49000CF1010C56
:1046E000CCF1200322FA03F341EA030102FA0CF2AF
:1046F000A0EB0C0000F10100704723F07F4720F091
:104700007F4C80EA030000F00040ACEB070303F5A8
:104710007C5303F1FF032DE9804909B44FEA1443A8
:1047200024EA03484FEA154B25EA0B4E0FF2042604
:1047300006EB13273E7803FB0667C7F5000707FB68
:1047400006F64FEAD64606F102064FEA543707FB53
:10475000066CCCF1005C4FEA1C472CEA074C0CFBC2
:1047600006F507FB06F404EB15464FEA96164908D2
:104770005FEA320234BF00204FF000404FEAD137E9
:1047800006FB07FC4FEA1C4C0CFB0BF7D21B03FB90
:104790000CF761EB07010CFB0EF7B0EB074072EB77
:1047A00017420CFB08F734BFA2EB0742B2EB0742FB
:1047B00061EB17414FEA0C444FEA910706FB07FCF7
:1047C0004FEA1C4C0CFB0BF7B0EBC74072EB5732B7
:1047D00003FB0CF734BFA2EBC742B2EBC74261EB5D
:1047E00057310CFB0EF7B0EBC70072EB57720CFBA6
:1047F00008F734BFA2EBC702B2EBC70261EB5771F7
:104800004FEA816141EA92114FEA826242EA9012D4
:104810004FEA806004EBCC04039F4FEAD13706FBDC
:1048200007FC4FEA1C4C0CFB0BF7D21B03FB0CF7ED
:1048300061EB07010CFB0EF7B0EB074072EB174280
:104840000CFB08F734BFA2EB0742B2EB074261EB67
:1048500017414FEA8C5504EB9C244FEA910706FB65
:1048600007FC4FEA1C4C0CFB0BF7B0EBC74072EB9C
:10487000573203FB0CF734BFA2EBC742B2EBC7427F
:1048800061EB57310CFB0EF7B0EBC70072EB5772C0
:104890000CFB08F734BFA2EBC702B2EBC70261EB17
:1048A00057714FEA816141EA92114FEA826242EA0E
:1048B00090124FEA806015EB4C2544F100044FEA5A
:1048C000D13706FB07FC4FEA1C4C0CFB0BF7D21B45
:1048D00003FB0CF761EB07010CFB0EF7B0EB074095
:1048E00072EB17420CFB08F734BFA2EB0742B2EBA6
:1048F000074261EB17414FEA813141EA92414FEAA9
:10490000823242EA90424FEA80304FEA0C7615EB51
:104910001C1544F1000448EA03434EEA0B484FF0EB
:10492000000EB2EB080C71EB030724BF6246394658
:104930004EEB0E0E4FF0000B0018524149414BEB6D
:104940000B0BB2EB080C71EB03077BF1000B24BFE0
:10495000624639464EEB0E0E4FF0000B00185241E6
:1049600049414BEB0B0BB2EB080C71EB03077BF1EE
:10497000000B24BF624639464EEB0E0E51EA020789
:1049800018BF46F0010616EB0E7655F1000254F101
:10499000000103D5BDE88901BDE80088BDE88901B3
:1049A000BDE80048B619524141EB0101A3F10103F2
:1049B000704780807F7E7D7C7B7A7978777676758C
:1049C0007473727171706F6E6E6D6C6C6B6A6A6904
:1049D0006868676666656464636362616160605F9E
:1049E0005F5E5E5D5D5C5C5B5B5A5A595958585717
:1049F000575656555555545453535252525151507F
:104A000050504F4F4F4E4E4D4D4D4C4C4C4B4B4BD1
:104A10004A4A4A4949494848484747474746464617
:104A20004545454444444443434343424242424152
:104A300041419C46002B30D477002BD04FEA3707FA
:104A40001CB503B44FF010004FF01001BAF1000F85
:104A500006D0BCF1000FDCBF40F0080040F00801B8
:104A60004FF000000FBCBDE810400BF1010BBBF193
:104A7000010F08BF5FEA170722BF12F1010211F10F
:104A800001014FF0004143F1000300F0004043EA10
:104A900000007047F9D35708D0E746EA06464FEAC8
:104AA000164613F1400F1FDD13F1200FDFBF164331
:104AB0000A46002120335B42BED0C3F1200746EAFC
:104AC00006464FEA164602FA07F746EA070622FAB2
:104AD00003F2C3F1200701FA07F742EA070221FABD
:104AE00003F14FF00003A7E746EA020646EA06464E
:104AF0004FEA164646EA0106BCBF46EA0646360CB1
:104B00004FF000034FF000024FF0000194E72DE951
:104B1000804C70B49A46934691E8380007C831EA51
:104B2000400C48BF34EA430C03D5FFF7E6FDFFF71E
:104B300080FFF0BCBDE8008C2DE9804C70B49A4633
:104B4000934691E8380007C810F0804F08BF13F073
:104B5000804F03D100F005F8FFF76BFFF0BCBDE814
:104B6000008C20F07F4723F07F4C80EA030000F0A8
:104B7000004007EB0C03A3F57C53A3F1FE0392F076
:104B8000000F00F0B38095F0000F00F077802DE962
:104B900001494FEA114021EA00484FEA144624EA4D
:104BA000064700FB06FC08FB06F607FB08F818EBB7
:104BB00006484CEB164C00FB07F718EB07484CEB8C
:104BC00017404FEA124B22EA0B4E4FEA154625EAF0
:104BD00006470BFB06FC0EFB06F607FB0EFE1EEB64
:104BE000064E4CEB164C0BFB07F71EEB074E4CEB3F
:104BF000174B18EB0B0840F1000018EB0E0B58EBAD
:104C0000000840F100008F1A4FF000014FF000063D
:104C10003CBFC943661B14BFB5EB040C00213CBF6D
:104C2000C943F61B4FEA174427EA04454FEA1C47DD
:104C30002CEA074C04FB076205FB07F70CFB05F6A3
:104C400016EB074642EB174204FB0CFC16EB0C4636
:104C500042EB1C421BEB060658EB020241414EEAB6
:104C60008E0E46EA9E0601D5BDE80189B61952416D
:104C700041EB0101A3F10103BDE801894FEA1445AD
:104C800024EA05464FEA114721EA074C05FB07F4E1
:104C900006FB07F70CFB06F111EB074144EB174449
:104CA00005FB0CFC11EB0C4144EB1C444FEA124792
:104CB00022EA074C05FB07F206FB07F70CFB06F69A
:104CC00016EB074642EB174205FB0CFC16EB0C46B5
:104CD00042EB1C456A1854F1000148BF7047B619F1
:104CE000524141EB0101A3F10103704795F0000F20
:104CF00037D04FEA114221EA02464FEA144724EA2C
:104D0000074C02FB07F106FB07F70CFB06F414EB5C
:104D1000074441EB174102FB0CFC14EB0C4441EB44
:104D20001C414FEA154725EA074C02FB07F506FB35
:104D300007F70CFB06F616EB074645EB174502FB9B
:104D40000CFC16EB0C4645EB1C42121951F100010C
:104D500048BF7047B619524141EB0101A3F101036D
:104D600070474FEA144524EA05464FEA114721EA05
:104D7000074C05FB07F106FB07F70CFB06F212EBED
:104D8000074241EB174105FB0CFC12EB0C4251EBC7
:104D90001C414FF0000648BF7047921841EB0101DB
:104DA000A3F10103704703B401984100009850EA51
:104DB000C12018BF04204A0D18BF40F0010040F286
:104DC000FF72B2EB515F08BF40F00200012808BF3C
:104DD000052002B070474100080218BF04200A0EE7
:104DE00018BF40F001004FF07F4232EA010108BFD6
:104DF00040F00200012808BF0520704710B510EEF2
:104E0000104A4FF019406949002200EB44002DED93
:104E1000028B884257D8DFED660A14F0004F60EE2F
:104E2000200A14BFBEEE001AB6EE001A71EE200A78
:104E3000FDEEE00A10EE900A00EE900AF8EEE00AAD
:104E40009FED5C1A00EEC10A9FED5B1A00EEC10AED
:104E5000DFED5A0A9FED5A1A00EE201ADFED590ACB
:104E600040EE010A9FED581A584B00F0030100EE86
:104E7000201A21EE000A7B4403EB8103D3ED000AE4
:104E8000534B7B4403EB810393ED001A514B41EEEE
:104E9000000A7B4403EB8101801091ED000A70EE63
:104EA000800AEABB00EE100AB8EEC01ADFED4A1A1B
:104EB0009FED4A0ABDEC028B01EE210ABCEEC00A4E
:104EC00020EE200A10BD4FF0FF40A0431DD04FF050
:104ED000CE40B0EB440F81BFF7EE000A30EE200A5F
:104EE000BDEC028B10BD3E48B0EB440F28BF012241
:104EF00091D20220FBF783FC14F0004F15D0BDECDB
:104F0000028BBDE8104001F0BBBA14F5000F02BFE0
:104F10009FED340ABDEC028B10BDBDEC028B00E0AE
:104F200009E0BDE8104001F095BABDEC028BBDE888
:104F3000104001F09DBA00EBD07359104FF07E5233
:104F400002EBC15100EE101AA0EB630002EBC0505F
:104F500060EE200A00EE100A20EE208A18EE100AF9
:104F600088B118EE100AB0F1FF4F15D018EE100AF4
:104F7000FFF731FF042808BF01F082FAB0EE480ABB
:104F8000BDEC028B10BD0220FBF739FCBDEC028B9F
:104F9000BDE8104001F074BA0220FBF730FCBDEC14
:104FA000028BBDE8104001F063BA00000000501E03
:104FB0003BAAB8400070313EF4FD053712BB2A3DD4
:104FC00012BB2A3EFFFFFF3EFFFF7F3F522400003F
:104FD00056240000262400000000004B00007E4EF6
:104FE0000000A085000000002DE9F04D2DED040B20
:104FF0002DED0E8B96B0DDE92550279CDDF890A0B5
:1050000025F0004624F00048BAF1000F14BF01213A
:10501000002101EB4502FC4953184A1093422AD360
:10502000002814BF0123002303EB44030B44F7497A
:105030008B4220D358EA00019FEDF59B76D0DFF834
:10504000D8B35D4503D1BAF1000F05D188E0BAF1BC
:10505000000F08BF002100D0012101EB450111F52F
:10506000001F08D8002814BF0121002101EB4401D2
:1050700011F5001F0BD99DED261B9DED240B16B0DD
:10508000BDEC0E8B04B0BDE8F04D01F09DB90027DA
:10509000002DBCBFE149884521DAE1498845A8BF18
:1050A00002271CDAC3451ADCDE4901EB285114291A
:1050B00008DDC1F1340220FA02F101FA02F2824263
:1050C0000DD108E058B9C1F1140228FA02F101FA31
:1050D00002F2424503D101F00101C1F1020756EA93
:1050E0000A0124D1002C22DA002D18BF022F01D092
:1050F000012F0AD00220FBF782FB16B0BDEC0E8B0D
:1051000004B0BDE8F04D01F047B90220FBF777FB92
:1051100001F042F951EC100B01F01AFA41EC100BBE
:1051200016B0BDEC0E8B04B0BDE8F08D18E09FED1D
:10513000BEAB9FEDBF8B002871D1B848804522D10E
:1051400005F1804010F5801008BFBAF1000F07D0BC
:10515000B3450ADC002CA8BF9DED260BE0DA0DE07C
:10516000B0EE490AF0EE690ADAE7002C06DA9DEDA6
:10517000260B51EC100B01F0EBF96FE0AE487844D0
:1051800090ED000BCCE7D8454DD1002C48DA2EB17C
:1051900086423AD1BAF1000F42D126E0BAF1000FAF
:1051A00013D00220FBF72BFB01F02AF98DED020B47
:1051B0009DED240B8DED000B10EE900A039961F329
:1051C0001E0003909DED020BAAE78DED02AB9DED55
:1051D000240B1AEE901A10EE900A8DED000B61F37D
:1051E0001E0003909DED020B9AE78DED028B9DED65
:1051F000240B18EE901A10EE900A8DED000B61F35F
:105200001E0003909DED020B8AE709DA9DED240B49
:1052100051EC190B53EC102B01F094FA1EE020E036
:105220009DED240B7CE786421BDAB4F1804F0DD054
:10523000A4F10050B0F1FF5013D1002D11DB9DED12
:10524000240B51EC100B01F036F907E09DED240B17
:1052500053EC102B51EC100B00F0C2BC41EC100BC6
:105260005EE79DED240B51EC100B01F018F9BAF13B
:10527000000FCDE90E0142D19FED710B46B3A6F1AF
:10528000E040B0F17F600CD05E4538D1002D00DAEF
:10529000A7B3022F0CBF01204FF0FF3001F0AAFB93
:1052A000DCE7002D01DD002C0DDA002D01DD002CE6
:1052B0001FDB002D16DA002C14DB012F08BF9FED39
:1052C000620B3FF42DAFB0EE4A0AF0EE6A0A27E710
:1052D000022F18BF002D0CD0012F0AD1002DFFF690
:1052E0001FAF06E0002DB8BF002C08DA012F3FF4F5
:1052F00017AFB0EE480AF0EE680A11E71BE0012094
:1053000000EBE57050EA070115D0791EB0EE498A2E
:10531000F0EE698A084308BF9FED4D8B4E4800258B
:10532000804570DD4D494E48884514DDB0420DDBA7
:10533000002C19DB2FE00120FBF761FA16B0BDEC61
:105340000E8B04B0BDE8F04D01F04AB8B34502DC65
:10535000002C09DC1FE0864202DA002C1BDA03E095
:105360005E452BDD002C16DD0220FBF748FA01F02C
:1053700047F88DED020B53EC1A2B51EC180B01F092
:105380008DFBCDE900010399019861F31E000390A4
:105390009DED020BC4E60220FBF731FA01F040F864
:1053A00010EE901A18EE900A8DED020B8DED008B29
:1053B00061F31E0003909DED020BB1E69DED0E0B17
:1053C00053EC192B51EC100B01F074FD9FED260BE3
:1053D000CDE9080153EC102B9DED080B51EC100B9F
:1053E00001F05CFB9FED221B53EC112B01F08AFCBA
:1053F0009DED081B53EC112B01F050FB9FED1E1B84
:1054000053EC112B3CE08CE0FFFF1F00FFFF0F006F
:10541000000000000000F03F0000F03F0000F07FBF
:105420000000404301FCFFFF000000000000F07F8F
:105430000000000000000000362300000000000013
:105440000000000000000080000000000000F0FFED
:10545000000000000000F0BF0000E0410000F04349
:10546000FFFFEF3F00000000000000000000D03F01
:10547000555555555555D53F000000000000E03FFB
:1054800001F040FC9DED080B41EC1A0B53EC102B86
:1054900051EC100B01F002FB53EC1A2B01F0FEFA59
:1054A00041EC1A0B9FEDFE0B53EC102B9DED080BFE
:1054B00051EC100B01F0F2FA41EC1B0B9FEDFA0BD3
:1054C00051EC1A0B53EC102B01F0E8FA41EC1A0BDB
:1054D0009FEDF70B53EC102B9DED080B51EC100BCF
:1054E00001F0DCFA53EC1A2B01F0E4FC41EC1A0B4E
:1054F00051EC1B0B53EC1A2B01F068F80690CDE928
:1055000006519DED060B53EC1B2B51EC100B01F0DB
:10551000D1FC53EC1A2B01F0F5FB41EC100B00F021
:10552000A1B90020B6F5801F0EDA9FEDE30B53EC16
:10553000102B9DED0E0B51EC100B01F0AFFACDE9E5
:105540000E016FF034000E4600EB2650A0F2FF373C
:10555000C6F31300DA4940F07F6646F040568842B1
:10556000D8BF002408DDD7498142C8BF012403DC2D
:105570000024A6F580167F1CD348784400EBC400B5
:105580000F9690ED00CB9DED0E0B53EC1C2B51ECC8
:10559000100B01F08FFC9DED0E0B41EC1B0B53EC3F
:1055A0001C2B51EC100B01F011F841EC100B51ECDD
:1055B000190B53EC102B01F0C5F841EC1D0B51EC0D
:1055C0001B0B53EC1D2B01F069FA41EC1A0BBF4881
:1055D0008DED10AB7844109590ED000B4FF000501E
:1055E00040EA660000EB84408DED080B00F50020DA
:1055F00009909DED080B53EC1C2B51EC100B01F0A6
:1056000059FC9DED0E1B53EC112B01F07BFB41EC83
:10561000100B53EC102B9DED100B51EC100B01F007
:105620003DFA9DED080B41EC1C0B53EC102B9DED4E
:10563000100B51EC100B01F031FA53EC1B2B01F065
:1056400061FB53EC1C2B01F035FC53EC1D2B01F0DE
:1056500025FA41EC1C0B53EC1A2B51EC1A0B01F000
:105660001DFA41EC1B0B9A480621B0EE4B0AF0EEF6
:105670006B0A784400F012FEB0EE401AF0EE601AA9
:10568000B0EE41DAF0EE61DA53EC1B2B51EC1B0B60
:1056900001F004FA53EC1D2B01F000FA9DED100B04
:1056A00041EC1B0B53EC1A2B51EC100B00F08EFF4E
:1056B00053EC1C2B01F0F2F953EC1B2B00F086FF8E
:1056C0009DED100B41EC1B0B53EC102B51EC100B10
:1056D00001F0E4F941EC1D0B9FED7FEB53EC1E2B29
:1056E00000F074FF53EC1B2B00F070FF0890CDE925
:1056F00008519DED080B53EC1E2B51EC100B01F0E3
:10570000D9FB53EC1D2B01F0D5FB53EC1B2B01F007
:10571000F9FA9DED080B41EC1D0B53EC102B9DEDA0
:10572000100B51EC100B01F0B9F941EC1B0B53ECD1
:105730001A2B51EC1D0B01F0B1F99DED080B41EC5A
:105740001A0B53EC102B51EC1C0B01F0A7F953EC86
:105750001A2B00F03BFF41EC1A0B51EC1B0B53ECE6
:105760001A2B00F033FF0C90CDE90C519DED0C0B82
:1057700053EC1B2B51EC100B01F09CFB53EC1A2B40
:1057800001F0C0FA41EC1B0B9FED550B53EC102BB5
:105790009DED0C0B51EC100B01F080F941EC1A0B54
:1057A0009FED510B51EC1B0B53EC102B01F076F9D4
:1057B00041EC1B0B9FED4E0B53EC102B9DED0C0B96
:1057C00051EC100B01F06AF953EC1B2B00F0FEFEBC
:1057D00041EC100B4848784400EBC40090ED001BEE
:1057E00051EC100B53EC112B00F0F0FE41EC1B0BB5
:1057F000384601F0FFF8CDE9080153EC1B2B51ECC2
:105800001A0B00F0E3FE41EC100B3C48784400EB2F
:10581000C40090ED00CB51EC100B53EC1C2B00F0AE
:10582000D5FE9DED081B53EC112B00F0CFFE06902A
:10583000CDE906519DED080B53EC102B9DED060BA9
:1058400051EC100B01F036FB53EC1C2B01F032FB3A
:1058500053EC1A2B01F02EFB53EC1B2B01F052FAE8
:1058600041EC100B9DED261B53EC102B8DED001B16
:1058700000959DED260B51EC100B01F00FF99DEDFD
:10588000000B41EC1A0B53EC102B9DED260B51EC49
:10589000100B01F00FFB9DED061B53EC112B2FE0BD
:1058A000000000604715F73FFE822B654715F73F64
:1058B00044DF5DF80BAE543E0000000000004043A2
:1058C0008E9803007AB60B00721D0000E01E0000E7
:1058D000AA1C0000000000000000000000000840BA
:1058E000000000E009C7EE3FFD033ADC09C7EE3FC8
:1058F000F5015B14E02F3EBE361B0000F01A0000DD
:1059000001F0CCF853EC1A2B00F060FE9DED060B75
:1059100041EC1A0B53EC102B9DED000B51EC100BCE
:1059200001F0BCF8CDE90C019DED0C0B51EC1A0B0C
:1059300053EC102B00F04AFECDE902010C46AA49B7
:105940008C422FDB611A084318D19DED0C0B53ECF0
:10595000102B9DED020B51EC100B01F0ABFA41EC5A
:105960001B0B9FEDA30B51EC1A0B53EC102B00F00B
:105970002DFE53EC1B2B01F08FF92DD20220FAF7EC
:105980003EFF00F03DFD10EE901A18EE900A8DEDEE
:10599000020B8DED008B61F31E0003909DED020B59
:1059A000FFF7BEBB944A24F00041914214D39349BF
:1059B000214408437FF4EFAC9DED0C0B53EC102B0E
:1059C0009DED020B51EC100B01F074FA53EC1A2B05
:1059D00001F062F97FF6DFAC24F000408849894A83
:1059E000002601EB205182422BDA481C4FF4801133
:1059F00021FA00F02044844AC0F30A517A44A1F20B
:105A0000FF3192ED000B814A8DED080BCA4020EA70
:105A10000202C0F3130040F48010C1F1140120FA17
:105A200001F60992002CB8BF76429DED080B53ECAD
:105A3000102B9DED0C0B51EC100B01F03BFACDE956
:105A40000C019DED0C0B51EC1A0B53EC102B00F0DC
:105A5000BDFD9FED6F0B0890CDE9085153EC102B65
:105A60009DED080B51EC100B01F018F841EC1B0BED
:105A70009FED690B53EC102B9DED080B51EC100BB7
:105A800001F00CF89DED0C0B41EC1C0B53EC102BB2
:105A90009DED080B51EC100B01F00CFA53EC1A2B96
:105AA00001F030F99FED5E1B53EC112B00F0F6FF77
:105AB00053EC1C2B00F08AFD41EC1A0B51EC1B0B34
:105AC00053EC1A2B00F082FDCDE902019DED020B93
:105AD00053EC1B2B51EC100B01F0ECF953EC1A2B8F
