:020000040800F2
:100000007827002061020008E52200082D21000861
:10001000E122000859190008592A000800000000D0
:100020000000000000000000000000005D24000847
:100030001120000800000000612300083D25000891
:100040007B0200087B0200087B0200087B0200089C
:100050007B0200087B0200087B0200087B0200088C
:100060007B0200087B0200087B0200087B0200087C
:100070007B0200087B0200087B0200087B0200086C
:100080007B0200087B0200087B0200087B0200085C
:100090007B0200087B0200087B0200087B0200084C
:1000A0007B0200087B0200087B0200087B0200083C
:1000B000992500087B0200087B0200087B020008EB
:1000C0007B0200087B0200087B0200087B0200081C
:1000D0007B0200089926000805270008D52700089C
:1000E0007B0200087B0200087B0200087B020008FC
:1000F0007B0200087B0200087B0200087B020008EC
:100100007B0200087B0200087B0200087B020008DB
:100110007B0200087B0200087B0200087B020008CB
:100120007B0200087B0200087B0200087B020008BB
:100130007B0200087B0200087B0200087B020008AB
:100140007B0200087B0200087B0200087B0200089B
:100150007B0200087B020008F91A00087B020008F5
:100160007B0200087B0200087B0200087B0200087B
:100170007B0200087B0200087B0200087B0200086B
:100180007B0200087B02000800F002F800F059F83A
:100190000AA090E8000C82448344AAF10107DA45E2
:1001A00001D100F04EF8AFF2090EBAE80F0013F0DB
:1001B000010F18BFFB1A43F0010318472486000003
:1001C00044860000103A24BF78C878C1FAD8520794
:1001D00024BF30C830C144BF04680C6070470000C1
:1001E0000023002400250026103A28BF78C1FBD840
:1001F000520728BF30C148BF0B607047662908F01E
:10020000D480782900F0FA80002070471FB508F0EC
:10021000BAF89DE8030000F0E9FD00F0C7FD040016
:100220000020002107F056FAE06000F025FF00F002
:1002300073FA1FBD10B5002000F0BAFF00F085FF73
:1002400010BD00F0F3FF1146FFF7E0FF05F010F8D6
:1002500000F0DAF903B4FFF7EDFF03BC04F0D2FFBE
:100260000948804709480047FEE7FEE7FEE7FEE74A
:10027000FEE7FEE7FEE7FEE7FEE7FEE70448054986
:10028000054A064B70470000412500088901000817
:10029000780300207827002078230020782300208E
:1002A000704753EA020C00F069802DE9F04B4FF0E3
:1002B0000006002B1FBFB3FA83F503FA05F424FAF6
:1002C00005F65E4012BF1643B2FA82F502FA05F453
:1002D000C5F120051EBF22FA05FC44EA0C042035B6
:1002E00056EA044C4FEA144418BF641C4FF000084F
:1002F0004FF00009904271EB030C39D3002919BF6C
:10030000B1FA81F701FA07F6B0FA80F700FA07F6BA
:10031000C7F120071EBF20FA07FC46EA0C0620376B
:10032000B6FBF4FCA7EB0507103F07F01F0BCBF162
:1003300020062CFA06F60CFA0BFB44BFB346002647
:10034000202FA4BF5E464FF0000B5BEA060C08BFEF
:100350004FF0010B19EB0B0948EB0608ABFB027CD5
:1003600006FB02CC0BFB03CCC01B71EB0C01C1E7FD
:100370000B46024641464846BDE8F08B13B508439C
:1003800018BF4FF0FF300146AFF30080BDE81C40BE
:10039000704700000FB4044910B503AA029800F09A
:1003A0009BFC10BC5DF814FBBC00002070B504463B
:1003B00085690068C10601D5302600E02026C00707
:1003C00007D070BDD4E9012130469047206A401C17
:1003D00020626D1EF6D570BD70B504468569007843
:1003E000C00707D170BDD4E9012120209047206AC1
:1003F000401C20626D1EF6D570BD000070B504462D
:100400000D4621461068AFF300802188090502D50A
:100410000F4A7A4402E00E4A7A440E32002104F177
:10042000240305E000F00F060009965D5E54491CA8
:100430000028F7D120780023000704D5702D02D0C2
:1004400009B1022311322046BDE8704000F0DDB949
:10045000888000002DE9F05F894604464FF0000ACD
:10046000DFF874B1FB44C0F820A02046E16888475B
:10047000002874D0252806D0D4E901219047206AAD
:10048000401C2062F1E700265F462046E16888476D
:100490002028054607DB312D05D2781910F8200CED
:1004A00008B10643F1E7B00701D526F00406C4F809
:1004B0001CA00027C4F818A02A2D09D0284607F050
:1004C000BFF838B304EB8708303DC8F8185019E07E
:1004D00059F8041B204604EB87029161E1688847C4
:1004E000012F054618D1E069002820DA26F0200601
:1004F0001DE0D8F8180000EB800005EB4000303814
:10050000C8F818002046E1688847054607F098F8C3
:100510000028EED1012F0AD02E2D08D12046E16807
:1005200088477F1C0546022F46F02006C4DBA069E1
:10053000002803DA404246F00106A061F00701D02E
:1005400026F010066C2D0BD0682D09D04C2D39D01B
:100550006A2D35D0742D35D07A2D33D016E038E0A1
:10056000E1682F4620468847B842054609D16C2FDE
:1005700026D04FF48060E168064320468847054650
:1005800004E06C2F1AD04FF4807006430DB3A5F130
:100590004100192802D8203546F400664A4629460B
:1005A000204626604E46FFF729FE80B101280BD079
:1005B000F61D26F0070000F1080956E74020E4E7A1
:1005C0008020D8E70020D6E706F104094DE7284649
:1005D00052E7206ABDE8F09F5E80000010B5044637
:1005E00003E004F03BFE401C09D014F8010B054960
:1005F0000028F6D1BDE810400A2004F02FBE4FF0CD
:10060000FF3010BDBC00002010B50446AFF30080E1
:100610002046BDE81040FFF71DBE10B5002000F0D9
:1006200084FBFFF707FEBDE81040012004F0EABD9F
:100630000B460146184600F061BB032A40F23080A9
:1006400010F0030C00F0158011F8013BBCF1020F13
:10065000624498BF11F801CB00F8013B38BF11F894
:10066000013BA2F1040298BF00F801CB38BF00F8AB
:10067000013B11F0030300F05F83083AC0F00880EB
:1006800051F8043B083A51F804CBA0E80810F5E70C
:10069000121D5CBF51F8043B40F8043BAFF30080EF
:1006A000D20724BF11F8013B11F801CB48BF11F864
:1006B000012B24BF00F8013B00F801CB48BF00F834
:1006C000012B70474FF0000200B513469446964642
:1006D000203922BFA0E80C50A0E80C50B1F1200155
:1006E000BFF4F7AF090728BFA0E80C5048BF0CC003
:1006F0005DF804EB890028BF40F8042B08BF704761
:1007000048BF20F8022B11F0804F18BF00F8012BD2
:10071000704770477047704770B5064C7C44064D73
:100720007D4404E02046016808448047241DAC4213
:10073000F8D170BDFC80000000810000704700000F
:10074000004870476401002070B5064600F02AFB9F
:10075000056806F10B0020F00704B4429CBF00209E
:1007600070BD2B466A68BAB11068A04210D304F17C
:10077000080188423CBF5068586007D3516810197F
:1007800041601168091B016058601460101D70BD44
:1007900013465268002AE7D12146284600F012FB92
:1007A0000028DED170BD70B50446051F00F0FAFACE
:1007B0000068002C14BF446870BD002C18BFAC4208
:1007C0003CBF20466468F8D301680A18AA4218BFE3
:1007D000456003D12A680546114401602868411923
:1007E000A1421CBF6C6070BD6168696021680844EB
:1007F000286070BD10B5FFF7A3FF006810BD10B5ED
:100800000446FFF79DFF046010BD2DE9F0470D463B
:1008100099469246044600F124080168880604D5EA
:10082000E06921F01001216000E00120A84201DD13
:10083000471B00E00027A1697A1902EB0900081A9A
:10084000A0612078C00602D42046FFF7AFFD002645
:1008500008E0D4E901211AF806009047206A401CFC
:10086000761C20624E45F4DB2078C0060AD520466F
:10087000FFF79CFD06E0D4E9012130209047206A73
:10088000401C2062381EA7F10107F4DC07E0D4E920
:10089000012118F805009047206A401C2062281E9C
:1008A000A5F10105F3DC2046FFF796FD2078000650
:1008B00002D50220BDE8F0870120FBE72DE9FF4FBC
:1008C0000C461E464FF0FF378BB0D2E90001DDF831
:1008D00060800A908A46C1F30A5505B93D46002159
:1008E00008464FF00000BAF1000F00F4400005DAAE
:1008F00000EB80004FF4400101EA50004FEA9059AC
:10090000B9F1010F00DDB9460A9850EA4A000ED04D
:1009100044F61050A5F2FF3545432F14B8F1000FEF
:100920001ED07542291E1EDDC9F100021CE0B8F17F
:10093000010F4FF0000001D0302103E0F24305E049
:100940002154401CB042FBDB3046002200212154E0
:100950000B99C1F80880C1E900200FB0BDE8F08F05
:10096000BD1B6D1CDEE74A4600DA694206A800F0AE
:1009700011FB06AB93E8070003AB83E80700504682
:100980000A9904F0BAFE8DE80700A0F500501F3860
:1009900000900398002D0ADD42F21F014A460844E8
:1009A000002303A90390684605F023F909E0A0F5A8
:1009B00000504A461F38002303A90390684605F0FB
:1009C0002DF98DE807000004000C03D04FF0FF3034
:1009D000410800E01046B8F1000F03D00022009259
:1009E00015461EE0751E05D400F036FA3032625509
:1009F0006D1EF9D5B3460122084302D000227F1CA8
:100A000004E02078302801D100227F1E002A0997B7
:100A100084D01DE0112D07DA00F01EFA3032625545
:100A20006D1C50EA0102F5D1084302D00098C8B10C
:100A30000EE00021681E05E0235C625C63542254D2
:100A4000401E491C8142F7DBAB46A81B401E0990A3
:100A5000002004F80B000B98099AC0F80880C0E940
:100A6000002B7AE711264FF0000857E72DE9F04FE9
:100A700088460446D21D22F0070191B0D1E9000159
:100A8000CDE90A0105F001FA02460B98C00F01D02A
:100A90002D2007E02068810701D52B2002E02021CE
:100AA00001EAC000032A099001D0072A05DB0346AA
:100AB0004146204600F02EFA0BE12078800601D551
:100AC000E06900E00620B8F1650F814606D0B8F174
:100AD000660F18D0B8F1670F70D131E00020B9F17E
:100AE000110F009001DB112301E009F101030AAAB3
:100AF00001A90CA8FFF7E2FEDDE90C70002609F160
:100B00000105834647E001204B4600904FF0004727
:100B10000AAA01A90CA8FFF7D1FEDDE90DB00C99D6
:100B20005D46002610B909F101000D18B9EB05006A
:100B300003D4C0F1FF3609F10105A5EB09002BE054
:100B4000B9F1010F01DA4FF001090020B9F1110FDD
:100B50000090484601DD112300E003460AAA01A9DE
:100B60000CA8FFF7ABFEDDE90C704D46002683466E
:100B7000207800070AD4AB4500DA5D4601A8012DB4
:100B800004DD411911F8011C302907D04F4502DA64
:100B900017F1040F04DA012082460FE06D1EEEE724
:100BA000002F02DCED1B3E4403E0781CA84200DD70
:100BB0007D1CB81B00F1010A4FF0004720780007A8
:100BC00003D4AA4501DB4FF0FF3A0021B7F1004FF3
:100BD0000DF143088DF8431024D002202B23002F61
:100BE00001DA7F422D230A21021EA0F1010000DC60
:100BF0005FB197FBF1FC97FBF1F201FB1C7C174600
:100C00000CF1300C08F801CDEEE7A8F101000370FB
:100C10002188090501D5452100E06521A0F10108E1
:100C200000F8011C09980FA9A1EB0807FF1D00B1EE
:100C30000120411901EBEA70A1693844081A401EED
:100C4000A0612078C00602D42046FFF7AFFB0998C8
:100C500028B1D4E901219047206A401C2062207805
:100C6000C00622D52046FFF7A1FB1EE0002E04DBC4
:100C7000B34502DD01A8805D00E03020D4E9012108
:100C80009047206A401C2062761CAAF101005FEAAE
:100C9000000A0AD100F08AF8C0680168405CD4E913
:100CA00001219047206A401C2062281EA5F1010501
:100CB000DCDC07E0D4E9012118F8010B9047206A39
:100CC000401C2062381EA7F10107F3DC2046FFF725
:100CD00083FB032011B041E6074B70B50D467B4402
:100CE00000F005F90446284604F0B4FA10B14FF0BC
:100CF000FF3070BD204670BD7B4500002DE9F041FE
:100D0000074615460E461020FFF71EFD04000AD0C8
:100D10006760C4E9026500F04DF801682160046075
:100D20000020BDE8F0810120FBE710B500F066FA75
:100D3000BDE8104000F05DBA10B5203AC0F00B805D
:100D4000B1E81850A0E81850B1E81850A0E81850C1
:100D5000203ABFF4F5AF5FEA027C24BFB1E8185037
:100D6000A0E8185044BF18C918C0BDE810405FEA99
:100D7000827C24BF51F8043B40F8043B08BF704715
:100D8000D20728BF31F8023B48BF11F8012B28BF1A
:100D900020F8023B48BF00F8012B7047004870471D
:100DA00064010020004870476C0100200048704733
:100DB00084010020004870479C0100207047704764
:100DC0007047704738B504460A4600206946AFF3BD
:100DD0000080002808BF38BD02460099204600F078
:100DE0004AFA012038BD012000F040BBF8B5AFF34E
:100DF0000080054600200C46102000BF0646A819BA
:100E0000A0420DD9324669460020AFF300800700AA
:100E100008BF00F02BFB0098A04218BF0546C4197C
:100E2000FFF7C0FF05600746F01D20F007004619D8
:100E3000284600F00AF8B44208BFF8BDA21B3146AC
:100E40003868BDE8F84000F016BA00210160C0E93A
:100E5000011070471020704730B5B0F10A0271F1EF
:100E600000034FEA900E4EEA817EB0EB0E0061EB7C
:100E700091014FEA101E4EEA017E10EB0E0041EB8D
:100E800011114FEA102E4EEA016E10EB0E0041EBED
:100E900011214FEA104E4EEA014E10EB0E0041EBCD
:100EA0001141401841F100014FEAD00040EA417081
:100EB0004FEAD1014FEA810444EA907410EB8005B7
:100EC00044EB01046D1944EB0404521BA3414FF0A1
:100ED000000348BF0A3200D530BD401C41F100017B
:100EE00030BD000001694A1C02610878704700B5F6
:100EF0008FB0CDE901310021059105497944CDE953
:100F0000031011466846FFF7A5FA0FB000BD0000B8
:100F1000E5FFFFFF2DE9F0411F4604460326016867
:100F2000072A01F4006004DB08B116A505E016A548
:100F300003E008B115A500E015A521F01000206020
:100F4000A069C01EA0610FB1401EA0612046FFF73E
:100F50002DFA4FB1D4E9012138469047206A401C50
:100F60002062C01C206206E0206AFAE7D4E9012171
:100F700015F8010B9047761EF8D22046FFF72CFAA1
:100F8000BDE8F0814E414E006E616E00494E460054
:100F9000696E66002DE9F047814616468AB03548ED
:100FA00078440DC88DE80D0032487844801C03ACAD
:100FB0000DC884E80D0041F69B300844372190FBB2
:100FC000F1F290FBF1F5A5F1800501FB12041B3C49
:100FD00002D56442012000E00020DFF898A080469E
:100FE0000027FA44AAF1BE0A0EE0E0070AD0324612
:100FF000684607EB470101230AEB810104F00EFE6E
:101000008DE8070064107F1C002CEED1194F7F443F
:10101000AE3F19E0E80715D007EB04100DF1180AF0
:1010200090E80E008AE80E00C068F04201D19819DD
:1010300008903246012306A903A804F0EFFD03AB94
:1010400083E807006D10641C002DE3D14FF001030D
:1010500032466946B8F1000F03A802D004F0C9FD7A
:1010600001E004F0DBFDC9E90001C9F808200AB07D
:10107000BDE8F087B077000010B542485421FFF773
:1010800021FB41485421FFF71DFB40485421FFF745
:1010900019FB3F493B483C4A3F4B08603D490A60C9
:1010A0003A491960531C0365481C10650120086506
:1010B0003B48344A39A1784400F01AF920B938483D
:1010C00078440A3800F0CBF937482F4A35A17844E4
:1010D00000F00EF920B9344878440A3800F0BFF91E
:1010E00032482A4A2FA1784400F002F920B92F484B
:1010F00078440A3800F0B3F940232248DC0000218C
:10110000224600F0D2F820B125487844543800F047
:10111000A6F91D4822464023002100F0C6F820B160
:1011200021487844543800F09AF918482246102390
:10113000002100F0BAF8002806D01C487844BDE829
:101140001040563800F08BB910BD104870B5006DD6
:1011500020F001040B4800F043F90B4800F040F97F
:101160000A4800F03DF909E0206D20F00105204615
:1011700000F036F92046FFF716FB2C46002CF3D181
:1011800070BD000068000020BC000020100100209D
:101190000000002004000020080000207200000071
:1011A000B2760000770000009E7600008A7600008C
:1011B0002DE9F0410646FFF7FDFD8046454613E068
:1011C00016B1E068B0420ED120682860D4E9010170
:1011D000D8F8007088472046FFF7E5FAD8F80000F5
:1011E000B842EBD100E025462C68002CE8D1BDE8E0
:1011F000F081002801D004F005B8704710B5002137
:1012000002A000F013F9012010BD0000534947412E
:101210004252543A2041626E6F726D616C20746567
:10122000726D696E6174696F6E0000007546FFF73C
:10123000B5FDAE4605006946534620F007008546D9
:1012400018B020B5FFF71AF8BDE820404FF00006AF
:101250004FF000074FF000084FF0000BAC46ACE831
:10126000C009ACE8C009ACE8C009ACE8C00921F08D
:1012700007018D467047034640688C46002818BF1A
:1012800088423CBF03464068F8D318681844884237
:1012900007D00CF1030020F00700001D411A521A7C
:1012A0000146081D0A60FFF77EBA70B5C468A5073D
:1012B00013D0650211D4B2F5807F09D0B2F5007F5A
:1012C00006D0B2F5806F08D1012300F1240106E0B9
:1012D0005D1E6FF07F46B54201D3012070BD0161F4
:1012E000C361416024F470611143C160002070BD8E
:1012F0002DE9F0410C461646070047D0104600F095
:101300006FF82078611C61280AD0722802D07728F3
:101310003CD102E00125002405E00225042402E07E
:10132000082448F2020511F8010B2B2806D0622888
:1013300009D011F8010C74280AD00BE045F0030520
:1013400044F00204EFE745F0040544F00104EAE745
:1013500044F010043846214603F05CFF411C15D0D0
:101360000021316171604FF40071F560F1617061CD
:10137000200704D530460222002100F0BFF8306D6E
:1013800040F0010030653046BDE8F0810020FBE709
:101390002DE9F0410D460646104C206DC10704D0E2
:1013A000410804D020F00104F7E722460EE0542063
:1013B000FFF7CAF907000ED0206D47F0010108437E
:1013C000542120653846FFF77DF93A4629463046D4
:1013D000BDE8F0418CE70020D6E70000680000205F
:1013E0002DE9F04704464FF000094FF0FF37C5687C
:1013F000D4E90486A80707D0204600F02FF930462C
:1014000003F0FEFE002802DA3846BDE8F087280522
:1014100002D54046FFF7C7F94C212046FFF752F9A5
:10142000206D20F0010020654846EEE770B50546C6
:101430000C460A2000E06D1C03F0F4FE35B128785C
:101440000028F8D102E0641C03F0ECFE14B120780F
:101450000028F8D1BDE870400A2003F0E3BE10B5C3
:1014600000F040F9BDE81040FFF7C3BE10B500F032
:1014700053F9BDE81040FFF7BCBE000000000000BB
:1014800030B44FF0013C50F8042B51F8043BCCFA37
:1014900052F4D51A20D1FCB950F8042B51F8043B72
:1014A000CCFA52F4D51A17D1B4B950F8042B51F82C
:1014B000043BCCFA52F4D51A0ED16CB950F8042B77
:1014C00051F8043BCCFA52F4D51A05D1002CDAD0ED
:1014D00030BC4FF00000704729BAB1FA81F111F029
:1014E0001801D1F120008440F2D1CA40CB4012F063
:1014F000FF0213F0FF0330BCD01A70472DE9F04112
:10150000044616460D464769007B80072ED03846B4
:1015100003F07EFE50BB3EB3012E02D0022E25D139
:1015200004E0204600F020F905441DE0384603F0B1
:101530006BFEE168002841F01001E16005DA204609
:1015400000F058F80120BDE8F081C9030BD56268AE
:10155000E16A914200D81146A26911442269891AB0
:10156000814200DD08460544002D01DA0220EAE749
:10157000E16A6068E268814206D29103E06203D5C5
:1015800022F4003141F01002A6690027AE4213DCBC
:10159000E16A814201D90B4600E0034603EB060CE9
:1015A0002369ACEB030CAC4506DD814201D98C46C6
:1015B00000E084469C4505D1A760276042F02000EA
:1015C000A5620DE0AD1BE669AE1B8142A66000D9A5
:1015D0000846C01A281A20605819606022F02000BE
:1015E00003490840E060002084F84870ABE7000041
:1015F000BFCFD7FFC16821F4001141F08001C16065
:1016000000218160016070472DE9F0478146144652
:101610000E464FF0FF383248D5685769054209D069
:101620003846A16903F0F8FD002811DB2C48C043BF
:101630000540E5602B4632464946384603F0F0FD4A
:10164000A16920F00042B21A11440028A16103D020
:101650002046FFF7CFFF4046BDE8F08770B504464F
:101660000569C06A6168884200D80846E16821F4CB
:101670002011E160C90312D5A84208D02246411BBF
:101680002846FFF7C1FF10B14FF0FF3070BD0020BA
:10169000E562C4E90150E06820F48030E060002099
:1016A00070BD10B50446C06820F02000E060A16A5B
:1016B000A06988420DD02046FFF7D0FFE06820F4F3
:1016C000405040F01000E060A06AA0612069E06234
:1016D000606044F24001E0688843E06010BD0000B3
:1016E0001000020010B5014602A0FFF79FFE012086
:1016F00010BD000053494752545245443A205265A8
:101700006469726563743A2063616E2774206F7038
:10171000656E3A200000000010B5012805D00021B8
:1017200003A0FFF783FE012010BD09A1F8E7000028
:1017300053494752544D454D3A204F7574206F66BA
:101740002068656170206D656D6F72790000000022
:101750003A2048656170206D656D6F727920636F06
:10176000727275707465640010B50146C2689007A6
:1017700003D0900607D5886A0AE0FEF7E1FF012151
:101780000160881E10BD8B69486818440B69C01A37
:1017900091F848301BB191F84910401A10BD11035F
:1017A000FCD50028FADD401E10BD0000826800292B
:1017B00042F0010308BF22F001038360704700007C
:1017C00080B542F2043CC4F2010CDCF8002043F284
:1017D000E003CFF6FC7302EA030ED0E90031D0E952
:1017E000022043EA0E03194311430843CCF80000DA
:1017F00080BD0000C06C80B27047000000680840E7
:1018000018BF01207047000010B542684FF6FF6313
:10181000CFF6FF4302EA030C0B680A7943EA0C0394
:1018200043EA0222426082684FF2FD73CCF2FF036A
:1018300002EA030E0A69D1E902C342EA0E024C79B8
:101840001A4342EA0C0242EA44028260C26A097DFB
:1018500022F470020139C9B242EA0151C16210BDDD
:10186000B0B501EB410C4FF0100E092988BFACF167
:101870001E0C88BF4FF00C0E50F80E40072505FADD
:101880000CF5AC4303FA0CF32343062A40F80E3060
:1018900003D834306FF0040307E00C2A87BF2C30E4
:1018A0006FF0400330306FF0220302EB82020568D4
:1018B0001A441F23934025EA030391401943016012
:1018C000B0BD0000816841F0804181607047000038
:1018D00070B58CB001200121012500F043FD4FF4CB
:1018E0008070012100F056FD082042F200040A90A9
:1018F0000320C4F201048DF82C00002604F560409A
:101900000AA98DF82F6000F085FB4FF4807001214B
:1019100000F04CFD4FF48070002100F047FD4FF4C3
:1019200080600696CDE908604FF48030079006A8E5
:10193000FFF746FF694620460096ADF80460029620
:1019400004968DF81450FFF75FFF20460121FFF742
:101950002DFF0CB070BD0000FEE7000010B546F290
:10196000B844C4F2020448F20001C2F60001204665
:1019700000F0D4F820460021BDE8104000F0E8B89F
:10198000024646F2B840C4F202000121426000F073
:10199000DFB8000080B582B08DF807000DF10700B8
:1019A00001F0B2FF02B080BD80B501F0DDFF012083
:1019B00080BD000080B582B08DF807000DF10700F2
:1019C00001F0ACFF02B080BD01F0B2BF01F0B6BFC4
:1019D00002F062B801F03CBE01F0A6BE80B582B054
:1019E0000068002818BF01208DF807000DF10700DE
:1019F00001F0AAFF02B080BD80B582B00068002867
:101A000018BF01208DF807000DF1070001F0A4FFB9
:101A100002B080BD47F200420123C4F2000203FA83
:101A200000F0002911680CBF21EA00000843106093
:101A30007047000010B547F2004CC4F2000CDCF80F
:101A4000003040F6FE72824023EA020ED1E90032F5
:101A5000D1E902411A432243114301FA00F040EA5E
:101A60000E00CCF8000010BD81B00022009247F2B9
:101A70000042C4F200020092009A10440830009024
:101A80000098016001B0704781B00022009247F2D7
:101A90000042C4F200020092009A104414300090F8
:101AA0000098016001B0704780B584B00120012129
:101AB00000F064FC0920029042F2CF000190002067
:101AC000ADF80C0001A94FF0804000F09BFD4FF0F5
:101AD00080404121012200F08DFD1C20C0F2031046
:101AE0000090684600F000FC4FF08040012100F0BB
:101AF0006DFD04B080BD000080B546F2B84048F2EC
:101B00000001C4F20200C2F6000100F05BF90028F7
:101B100008BF80BDBDE88040FFF720BF46F200024D
:101B2000C4F2020202F58263984240F67D7002F52B
:101B30008062C0F67D703CBF46F20002C4F2020231
:101B40008B0000EA010054BF9060D0607047000035
:101B50000268002942F0010308BF22F0010303607C
:101B600070470000016821F001010160002101605F
:101B700041608160C160016146F20F41C4F202011F
:101B800088424FF02101416122DC46F26F01C4F22C
:101B90000201884240DC46F23F01C4F20201884261
:101BA0006FDC46F21001C4F20201884200F0C280EC
:101BB00046F22801C4F20201884201BF46F2080041
:101BC000C4F202004FF47461016008BF70477047AF
:101BD00046F26F41C4F20201884238DC46F23F41CE
:101BE000C4F20201884262DC46F21041C4F20201F2
:101BF000884200F0A68046F22841C4F202018842E1
:101C000001BF46F20800C4F202004FF47461C0F84C
:101C1000001408BF7047704746F29F01C4F20201EA
:101C200088425BDC46F27001C4F20201884200F097
:101C3000908046F28801C4F20201884240F0BD80E3
:101C400046F20800C4F2020040F6407186E046F217
:101C50009F41C4F20201884256DC46F27041C4F250
:101C6000020188427ED046F28841C4F202018842D5
:101C700018BF704746F20C40C4F2020040F64071B3
:101C800075E046F24001C4F20201884273D046F288
:101C90005801C4F20201884201BF46F20800C4F2B2
:101CA00002004FF07461016008BF7047704746F250
:101CB0004041C4F20201884265D046F25841C4F264
:101CC0000201884201BF46F20800C4F202004FF050
:101CD0007461C0F8001408BF7047704746F2A00155
:101CE000C4F20201884257D046F2B801C4F20201A0
:101CF000884201BF46F20800C4F202004FF03D5195
:101D0000416008BF7047704746F2A041C4F202012B
:101D100088424AD046F2B841C4F20201884201BF6B
:101D200046F20C40C4F202004FF03D51016008BF82
:101D30007047704746F20800C4F202003D2101607E
:101D4000704746F20800C4F202003D21C0F80014BA
:101D5000704746F20800C4F202003D21C2F20001C1
:101D60004160704746F20C40C4F202003D21C2F2CD
:101D700000010160704746F20800C4F202004FF40F
:101D800074110160704746F20800C4F202004FF47B
:101D90007411C0F80014704746F208000021C4F224
:101DA0000200C2F23D014160704746F20C40002142
:101DB000C4F20200C2F23D0101607047006800F009
:101DC0000100704780B546F20003C4F2020340F6FA
:101DD0003C7C03F58262C0F63C7C03F58063904254
:101DE0003CBF46F20003C4F2020311EA0C0F05D017
:101DF0004FF01E0E02680EEAD12001E040698022F9
:101E000010408A0048BF04331A680CF1411319408E
:101E1000114018BF0121002818BF0120084080BDD3
:101E20000B0608D5D0F814C0002A4CF0800308BF78
:101E30002CF080034361802908BF704701F01E0128
:101E40001AB10268114301607047026822EA010179
:101E5000016070472DE9F04F026848F23F03CFF26E
:101E60001C03D1F800901A40D1E9038E01F1140C43
:101E70009CE8F01042EA090242EA080222432A439F
:101E800032438B6A3A43D1E90DAB42EA0C021A4362
:101E900042EA0A0242EA0B0202604269D1E90B37C8
:101EA00022F007021A433A434261C0F804E04A684C
:101EB00082608968C160BDE8F08F000010B586B00F
:101EC0000120012100F04EFA4FF00050012100F0F6
:101ED00055FA1020049003208DF8140000200224ED
:101EE000C4F2020004A98DF8174000F093F8002016
:101EF000CDE90000CDE9020469460020FFF79AFD14
:101F000000200121FFF786FD00200021FFF7ACFD36
:101F100006B010BD0000000080B59FED111A80EEE4
:101F2000010A9FED101A20EE010A10EE100A06F0C9
:101F300083F99FED090B53EC102B05F0DBFC05F04A
:101F4000EBFB00EE100ABDEEC00A10EE101A0020E6
:101F5000BDE88040FFF788BD6666666666660A4033
:101F600000007A4400F07F4510B586B001200121C1
:101F700000F0F8F94FF00050012100F0FFF92020A7
:101F8000049003208DF8140000200224C4F2020003
:101F900004A98DF8174000F03DF80020CDE90000BD
:101FA000CDE9020469461020FFF744FD102001210D
:101FB000FFF730FD00200021FFF766FD06B010BDE1
:101FC00080B59FED111A80EE010A9FED101A20EEE8
:101FD000010A10EE100A06F02FF99FED090B53ECE1
:101FE000102B05F087FC05F097FB00EE100ABDEE04
:101FF000C00A10EE101A0020BDE88040FFF744BD73
:102000006666666666660A4000007A4400F07F45B0
:10201000704700002DE9F041D1F8008000234FF017
:10202000030C4FF0010E00240FE000BFC268AA436A
:10203000C260CA79C5689A402A43C2600134102C34
:1020400003F1020308BFBDE8F08128FA04F5ED07AB
:10205000F4D006680CFA03F5AE4306600E79076803
:1020600006FA03F2013E3A43012E0260DED882688E
:10207000EE43324082604A798E7987689A403A43CB
:10208000826042680EFA04F7BA43426006FA04F22C
:10209000466892B232434260C8E700001C2303EA5C
:1020A000810C6FF0030303EA510108440F23016A16
:1020B00003FA0CF399430162016A02FA0CF211432C
:1020C000016270470183704710B542F20004C4F208
:1020D00001040146204601220723FFF7C1FB2046E9
:1020E000FFF7F0FB20460221FFF788FB0028F9D01C
:1020F0002046BDE81040FFF77DBB0000F0B581B081
:102100000C4661B105460027002600BF2846FFF7B0
:10211000DBFF0137F9B2A1420644F7D300E0002605
:10212000B6FBF4F080B201B0F0BD0000FEE70000A5
:1021300010B582B001200121012400F013F94FF401
:1021400040700094ADF8040002208DF807000020D4
:10215000C4F202006946FFF75DFF02B010BD000047
:1021600010B582B00120012100F0FCF8022000909F
:1021700040F201300024C0F20010C4F202040190C9
:1021800069462046FFF746FF20460221FFF79AFFE7
:1021900002B010BDF0B591B046F2B8454FF48000E2
:1021A0000121C4F2020500F0DDF828460021FFF706
:1021B000CFFC2846FFF7D6FC2846FFF7FFFD002896
:1021C000FAD141F200044FF00060C4F20104029021
:1021D00040F2C410261DC2F2000003960490402075
:1021E000059000204FF48061CDE90600CDE908108C
:1021F0004FF44031CDE90A00CDE90C100321CDE9BF
:102200000E10109002A92846FFF724FE4FF48060BC
:1022100000F09CF840F24620C0F20110019001A8A5
:1022200000F062F828460021FFF792FC28461021B2
:102230000122FFF7F5FDA5F58060FFF793FC00BFD5
:102240002846FFF7BBFD0028FAD14FF00060CDE92A
:10225000020640F22820C2F200000490002014215F
:102260000590CDE906104FF48061CDE908104FF4D8
:102270008031CDE90A00CDE90C100321783DCDE98C
:102280000E10109002A92846FFF7E4FD4FF4C0603D
:1022900000F05CF80B2701AEC0F202173046019740
:1022A00000F022F84FF4C06000F050F8304601977B
:1022B00000F01AF820468021012200F025FB20467C
:1022C0004021012200F020FB28460121FFF740FCBD
:1022D0002846FFF773FD0128FAD111B0F0BD0000C8
:1022E000FEE700007047000010B5C17800294EF2EB
:1022F0000011CEF200011CD04EF60C52CEF20002BC
:102300001268072323EA12220F23C2F1040C23FAD6
:1023100002FE427884785FFA8CF390F800C09A400D
:1023200004EA0E031A43120101EB0C0383F80023A5
:1023300000E080310078012300F01F0203FA02F26E
:10234000C0F3421041F8202010BD000040F0806032
:102350004EF60C5140F0FD70CEF20001086070475F
:1023600070470000002943F63001C4F202010A68F8
:102370000CBF22EA0000104308607047002943F6B2
:102380004001C4F202010A680CBF22EA00001043B7
:1023900008607047002943F64401C4F202010A684C
:1023A0000CBF22EA0000104308607047002943F682
:1023B0002401C4F202010A680CBF22EA00001043A3
:1023C0000860704710B543F60404C4F20204626862
:1023D00002F00C0342F20042082BC0F2F40206D0D5
:1023E000042B20D141F20022C0F27A021BE0D4F883
:1023F00000C0236803F03F0E5FEA4C2341F2002344
:10240000C0F27A0358BF13462268B3FBFEFCC2F346
:102410008812236802FB0CFCC3F30143022202EB87
:102420004302BCFBF2F20260626848F27873C2F3C6
:102430000312C0F600039A5C0168D14041606268F3
:10244000C2F382229A5C21FA02F282606268C2F3CD
:1024500042329A5CD140C16010BD0000704700005C
:1024600082B043F608000021C4F2020001910091FD
:1024700050F8081C41F4803140F8081C50F8081C42
:1024800001F400310091019901310191009919B9CC
:102490000199B1F5A04FF1D150F8081C890354BF40
:1024A0000021012100910099012936D1816B41F071
:1024B0008051816347F20001C4F200010A6842F4CE
:1024C00040420A6001680160016841F40041016016
:1024D000016841F4A051016045F20841C0F2407129
:1024E00040F8041C50F8081C41F0807140F8081CAA
:1024F00050F8081C8901FBD540F20571C0F8F813AB
:10250000016821F003010160016841F002010160EE
:10251000016801F00C010829FAD102B070470000EF
:102520004EF21001CEF200010A68042822F00403E2
:1025300008BF42F004030B607047000070470000C2
:1025400010B54EF68854CEF2000420684FF6FF73A3
:1025500040F47000206043F60000C4F202000168FD
:10256000CFF6F66341F0010101600021816002684D
:102570001A40026043F21002C2F200424260026856
:1025800022F480220260C160FFF76AFF4FF0006012
:1025900044F8800C10BD000010B54FF080400121C0
:1025A000012400F01DF8002808BF10BD4FF0804046
:1025B000012100F007F840F20C00C2F200000470A4
:1025C00010BD0000C9430182704700000288002945
:1025D00042F0010308BF22F00103038070470000AE
:1025E000028A80890A4018BF0122084018BF0120D2
:1025F00010407047002A82890CBF22EA0101114372
:102600008181704710B540F6FF32B0F800E0C4F2A7
:10261000000240F2004C9042C4F2010C0FDCB0F119
:10262000804F19D040F20042C4F20002904213D011
:1026300040F60002C4F2000290420DD011E040F6D4
:102640000042C4F20002904206D0604504D000224D
:10265000C4F20102904204D14A882EF0700342EA8B
:10266000030E41F2004340F48062C4F200039A4238
:1026700004D00C892EF4407344EA030EA0F800E065
:102680004B686245C3620B88038504BF897A018663
:102690000121818210BD000010B541F20004C4F296
:1026A0000104204640F2255100F03CF930B32046A9
:1026B00000F0CAF940F28C24C2F2000421880A0416
:1026C00048BF10BD4A04C0B205D40D280DD141F455
:1026D0008040208010BD0A2811D141F40041012022
:1026E0002180BDE81040FFF787B9FFF763F9208824
:1026F000013081B2C72988BF0020208010BD002092
:10270000208010BD10B544F20044C4F200042046FD
:1027100040F2255100F006F9002808BF10BD204600
:10272000BDE8104000F090B970B58AB005460820A9
:102730000121FFF717FE4FF400300121FFF71EFEC5
:1027400044F20044C4F2000404F5E43630460521A6
:102750000722FFF7A3FC304606210722FFF79EFC65
:10276000304607210722FFF799FCE020089040F24D
:102770000220C0F20010099008A93046FFF74AFC79
:1027800000204FF44021049505900691ADF81C00FF
:1027900004A9204600F0FCF84FF4006001904FF0CF
:1027A0008070029001A9204600F092F8204640F285
:1027B0002551012200F0D4F840F22630C0F2031077
:1027C000039003A8FFF790FD2046012100F092F846
:1027D0000AB070BD10B544F60004C4F200042046EF
:1027E00040F2255100F09EF830B3204600F02CF95D
:1027F00040F28C24C2F2000421880A0448BF10BDB4
:102800004A04C0B205D40D280DD141F48040208087
:1028100010BD0A2811D141F4004101202180BDE8FA
:102820001040FFF7DBB8FFF7B5F82088013081B220
:10283000C72988BF0020208010BD0020208010BD47
:1028400070B588B0054602200121FFF78BFD4FF4DB
:1028500080200121FFF792FD44F60004C4F2000439
:1028600004F5DE3630460A210722FFF717FC304612
:102870000B210722FFF712FC4FF44060069040F254
:102880000220C0F20010079006A93046FFF7C2FBF5
:1028900000204FF44021029503900491ADF81400FC
:1028A00002A9204600F074F8204640F2255101228A
:1028B00000F056F840F22730C0F20310019001A852
:1028C000FFF712FD2046012100F014F808B070BD9A
:1028D00080B5028A0B8822F4706C4A88B1F804E053
:1028E00043EA0C03C9881A4342EA0E0211430182EB
:1028F00080BD00008289002942F4005308BF22F401
:102900000053838170470000002A828A0CBF22EAAC
:1029100001011143818270470088084018BF0120DF
:102920007047000001F01F024FF0010CC1F3421389
:10293000022B0CFA02F206D0012B14BF00F1140393
:1029400000F10C0301E000F110031B880088090A64
:102950001A4020FA01F018BF012210407047000011
:10296000C1F3421301F01F0C1421022B08BF1021E8
:10297000012B4FF0010308BF0C21002A03FA0CF2CF
:1029800043580CBF23EA02021A434250704700002A
:1029900070B584B00446008A0D46C98820F44050C2
:1029A00008432082A0894EF6F3110840A9882A899D
:1029B0006B89084310431843A081A08AA98920F499
:1029C000407008436E46A0823046FFF7FBFC41F2A0
:1029D000004144F48060C4F20101884214BF06F152
:1029E000080006F10C0000681922B4F90C105043DD
:1029F0002A680223002948BF012302FA03F1B0FB31
:102A0000F1F048F21F51C5F2EB11A0FB01235A0966
:102A10006FF0630302FB0300B4F90C300426002BB3
:102A200048BF032600FA06F000F13200A0FB0101C6
:102A30004FF00F0048BF072000EA511040EA021093
:102A4000208104B070BD000080886FF35F20704764
:102A50006FF35F2181807047FEE7000010B544F2FC
:102A60000044C4F20004014604F54C40FFF7F0FFB7
:102A700020468021FFF750FF0028F9D02046402152
:102A8000FFF74AFF0028F9D010BD000080B502F022
:102A9000F5FABDE8804002F023BB000080B502F0EB
:102AA00005FB02F033FB02F04BFB02F05FFB02F090
:102AB00069FB02F073FB02F07DFBBDE8804002F091
:102AC00083BB000080B52DED088B80EE20AAB0EE10
:102AD000409AB0EE608AB0EE4A0A03F001FAB0EE16
:102AE00040BAB0EE4A0A03F0FBF9B1EE491A81EEA2
:102AF000081AB0EE408AB0EE410A03F0F1F938EE60
:102B0000000A8BEE000ABDEC088B80BD70B582B068
:102B1000054600F0FDFB40F24834C2F200042846AE
:102B200084ED000A00F0DCF9284684ED010A00F08B
:102B3000CFF96E46304684ED030A00F0E3FF3046DD
:102B4000002101F033FF006801212061304601F0CF
:102B50002DFF006802216061304601F027FF006808
:102B6000A061284600F0B8F984ED070A00F06CFC7B
:102B7000304684ED020A01F0ADFE204602B070BD81
:102B800080B52DED068BB0EE408AB1EE400AB0EE76
:102B9000609A80EE20AAB0EE4A0A03F0A1F988EE0E
:102BA000091AB0EE408AB0EE410A03F099F9B0EE8E
:102BB000409AB0EE4A0A03F093F939EE000A88EE23
:102BC000000ABDEC068B80BD80B52DED0C8BB0EE00
:102BD00040CA20EE810AB0EE60BA30EE0CDAB0EEF8
:102BE0004C0AF0EE620AB0EE628AB0EE429AB0EEA3
:102BF00061AAFFF7C5FF2DEE000A80EE0BBA2AEEA0
:102C0000090A30EE0C9AB0EE4C0AF0EE480AFFF7D3
:102C100059FF29EE000A80EE0A0A3BEE000ABDECDD
:102C20000C8B80BD00000000F0B581B02DED108B45
:102C300030EE410A20EE821A30EE019AB2EE001A0E
:102C400021EE82EA21EE811AF0EEC98A2EEE0E0AFA
:102C500021EE281A30EE01DAB0EE4D0AB0EE42BA9B
:102C6000B0EE618AB0EE60AA2EEE02FA04F0D2FB5A
:102C7000B4EEC00AB0EE40CAF1EE10FA49D6F4EE56
:102C8000CF8AF1EE10FA2ADD1AEE100A05F0D4FA16
:102C90003CEE4E0A044610EE100A0D4605F0CCFA42
:102CA0009FED1F0B53EC102B04F0D0FFB0EE490A40
:102CB00006460F4600F046F810EE100A05F0BCFA82
:102CC00002460B463046394604F0C0FF22462B46EA
:102CD00004F054FD04F020FD00EE100A03E089EE3C
:102CE0000B0A30EE0A0AB0EEC01AB1EE488AB4EE12
:102CF000CE1AF1EE10FA04DD00F024F820EE080AF6
:102D000003E020EE080A80EE0E0ABDEC108B01B045
:102D1000F0BDB0EE4D0A04F07DFBB0EE40CAAEE768
:102D2000000000000000E03FB5EEC00A0020F1EE18
:102D300010FAC8BF0120B8BF013800EE100AB8EE83
:102D4000C00A70479FED091AB5EEC00ABFEE000A2F
:102D5000F1EE10FAB8BFB0EE401AB7EE000AC8BFE5
:102D6000B0EE401AB0EE410A704700BF000000000C
:102D700080B52DED048BB0EE418AB0EE609AFFF77E
:102D8000D3FFB5EEC09AB1EE401AF1EE10FAC8BF0B
:102D9000B0EE410A20EE090A20EE080ABDEC048BD1
:102DA00080BD000000000000B0B52DED068B88B09E
:102DB00040F22401C2F2000109780446402963D0A0
:102DC00080297BD100F0BAFAB0EE408A00F0FEFA1A
:102DD000B7EE001A2046C1EE000AB0EE480A00F035
:102DE000F3FB40F24800C2F20000006840F23805F0
:102DF00060620020E061C2F20005286805F01CFA5C
:102E00009FED311B41EC100B03F0AAF951EC100BB4
:102E100004F082FC95ED000A40F23401C2F2000198
:102E200030EE000ABFEE002A91ED003A01EE100AE2
:102E300030EE020A81EE034AB1EE411AB1EE405A79
:102E400082EE032A81EE031A85EE035A606168461A
:102E500084ED060A0490042006AD059004A92846D6
:102E600001228DED004A8DED011A8DED025A8DED96
:102E7000032A01F0B5FC04F12C00294601F042FDC3
:102E8000284601F027FD19E03C3400F0ADF9B0EE22
:102E9000408A00F0A1F9B0EE409A00F095F9B0EE4A
:102EA00040AA00F035FAF0EE401A2046B0EE480A8B
:102EB000F0EE490AB0EE4A1A01F06EFB002008B0AD
:102EC000BDEC068BB0BD00BF00000000000000405C
:102ED00090ED070A7047000090ED080A7047000067
:102EE00090ED090A7047000090ED000A40F2902032
:102EF000C2F2000080ED000A7047000090ED000A69
:102F000040F29420C2F2000080ED000A70470000F9
:102F10002DE9F04F81B02DED0A8B8AB0174640F2B3
:102F20002402C2F2000212780D46402A814600F0C7
:102F3000BA80802A40F0E68000F086FAB0EE408A3F
:102F400000F0E6F9284600F045FB40F2580085ED18
:102F5000090A30EE480AC2F2000085ED070A00F0C7
:102F60000FFB686A0DF1100A019001A802904FF062
:102F7000010B02A95046012205F12C04CDF80CB03A
:102F800001F02EFC0DF118084046022152463B4646
:102F900001F014FB08AE30462146424601F06AFDBE
:102FA0003046002101F002FD00682862304601F041
:102FB00091FC404601F08EFC504601F08BFC40F243
:102FC0009420C2F2000090ED001A40F29020C2F26C
:102FD000000090ED002A40F21400C2F2000095EDCE
:102FE000080AD5ED0D1AD5ED0E0AD0ED002AFFF72F
:102FF000EBFD95ED099A38460021B0EE408A01F0CC
:10300000ABFE90ED000A40F21000C2F2000090ED1D
:10301000001A79EE400AB0EE480AFFF7A9FE00F068
:103020008DFD9FED449AB0EE480AF0EE490A03F098
:103030004DF89FED41BAB0EE40AAB0EE480AF0EE6E
:103040004B0A03F067F895ED08CAB5EEC08AB0EEFA
:10305000408AF0EE490AB0EE4C0AF1EE10FAB8BF21
:10306000B0EE4A8A03F032F8B0EE409AB0EE4C0A65
:10307000F0EE4B0A03F04EF8B5EEC0CAF1EE10FACE
:10308000B8BFB0EE490A85ED080AB0EE480A02F072
:10309000C3FA286A08A9069048460122CDE9088BA0
:1030A00001F09EFB3FE000F0E7F9B0EE408A00F04F
:1030B0002FF92846B0EE409A00F08CFA40F2580002
:1030C00085ED090A39EE480AC2F2000085ED070ACB
:1030D00000F056FA05F13C00B0EE480AF0EE490A5D
:1030E00001F0FAF985ED080A02F096FA286A08A9B3
:1030F000069006A80890012009904846012201F098
:103100006FFB10E048F28870C0F60000FDF742F94E
:103110000020069006A808900120099008A94846BA
:10312000012201F05DFB0AB0BDEC0A8B01B0BDE8E5
:10313000F08F00BF333353C03333534090ED000A58
:1031400040F21000C2F2000080ED000A704700005B
:1031500090ED000A40F21400C2F2000080ED000A77
:103160007047000070B588B0044600F059FA00F1CD
:103170002C05284601F09AFB4FF07E50C4E90D0063
:1031800004F13C0001F00EFA0020C4E90500C4E996
:103190000700C4E90900CDE90200CDE90000684656
:1031A0000490042006AE059004A93046012201F0E7
:1031B00017FB2846314601F0A5FB304601F08AFB9B
:1031C000204608B070BD000040F2E420C2F20000CA
:1031D00090ED000A7047000040F22C00C2F200009F
:1031E00090ED000A7047000040F23000C2F200008B
:1031F00090ED000A7047000040F2E421C2F20001A5
:1032000091ED001A90ED000AB4EE401AF1EE10FABA
:1032100005D040F29820C2F200000122027081ED38
:10322000000A704740F22C01C2F2000191ED001A31
:1032300090ED000AB4EE401AF1EE10FA05D040F21B
:103240009820C2F200000122027081ED000A70474E
:1032500040F23001C2F2000191ED001A90ED000A37
:10326000B4EE401AF1EE10FA05D040F29820C2F206
:1032700000000122027081ED000A704790ED000A03
:1032800040F23400C2F2000090ED001AB4EE410AA0
:10329000F1EE10FA05D040F29821C2F200010122AD
:1032A0000A7080ED000A704790ED000A40F2380085
:1032B000C2F2000090ED001AB4EE410AF1EE10FAED
:1032C00005D040F29821C2F2000101220A7080ED7F
:1032D000000A704790ED000A40F23C00C2F2000084
:1032E00090ED001AB4EE410AF1EE10FA05D040F26A
:1032F0009821C2F2000101220A7080ED000A704795
:10330000007840F2E821C2F2000108707047000026
:1033100040F24800C2F2000090ED000A7047000041
:1033200040F29820C2F200000078704740F29820E6
:10333000C2F20000002101707047000040F2180046
:10334000C2F2000090ED000A7047000040F2250034
:10335000C2F200000078704790ED000A40F21800B9
:10336000C2F2000090ED001AB4EE410AF1EE10FA3C
:1033700005D040F29821C2F2000101220A7080EDCE
:10338000000A7047007840F22501C2F200010028CF
:1033900018BF01200870704790ED000A40F2480005
:1033A000C2F2000080ED000A7047000040F21C00ED
:1033B000C2F2000000787047007840F21C01C2F2AF
:1033C0000001002818BF01200870704740F220005B
:1033D000C2F2000090ED000A7047000090ED000A74
:1033E00040F22000C2F2000090ED001AB4EE410A53
:1033F000F1EE10FA05D040F29821C2F2000101224C
:103400000A7080ED000A704740F22400C2F200000A
:103410000078704740F22401C2F200010A78037874
:103420009A4205D040F29822C2F2000201231370A2
:10343000007808707047000040F29C20C2F2000043
:1034400090ED000A7047000040F2A020C2F2000098
:1034500090ED000A7047000010B590ED000A044698
:1034600002F0DAF894ED000A40F29C20C2F200006B
:1034700080ED000A10BD000010B503200A21FEF700
:103480003DFE00EE100A9FED0C1AB8EE400A80EEE9
:10349000010A9FED0A1A40F2A02440F2BC20C2F2B9
:1034A0000004C2F2000020EE010A84ED000A01F0DF
:1034B00011FC84ED000A10BD00F07F45333353400A
:1034C00040F22600C2F2000000787047007840F217
:1034D0002601C2F2000108707047000090ED000A5A
:1034E00040F22800C2F2000090ED001AB4EE410A4A
:1034F000F1EE10FA05D040F29821C2F2000101224B
:103500000A7080ED000A704790ED000A40F2A42096
:10351000C2F2000080ED000A7047000090ED000A42
:1035200040F2A820C2F2000080ED000A70470000BF
:1035300090ED000A40F2AC20C2F2000080ED000ADB
:103540007047000090ED000A40F2B020C2F2000087
:1035500080ED000A70470000016840F2B422C2F218
:1035600000021160FFF7C0BC016840F2B822C2F24D
:1035700000021160FFF7C2BC00210160704700002B
:1035800090ED001A90ED012AB7EE004AB0EEC00AA5
:1035900090ED023A21EE022A34EE411A20EE010AA1
:1035A00032EE000AB0EEC01A40F2743180ED010A2A
:1035B000B4EEC31A0020C2F20001F1EE10FAD8BF37
:1035C0000120087070470000083030EEA01A80EC2F
:1035D000030A704710B52DED048B90ED018A90ED34
:1035E000039AB0EE401A90ED000A29EE082AD0EDB9
:1035F000021A30EE020A90ED042AF0EE480A044660
:1036000080ED000AFFF710FB29EE001A94ED000A86
:1036100038EE011A84ED011ABDEC048B10BD0000D8
:1036200000214FF081424DF20A734DF20A7CC0E94D
:10363000001100F10801C3F62343C3F6A34C81E84F
:103640000C107047017180ED000A704701707047DF
:1036500010B52DED028B84B040F2EC22C2F20002D4
:10366000106840F22C34C2F20004206001785368E4
:10367000EB39B1FA81F183424FEA511110D053680E
:10368000024600BFC8070DD1501C2060517883420C
:10369000A1F1EB01B1FA81F14FEA51110246F1D1EA
:1036A000024631B3501C20605078902827D19FEDFE
:1036B0001D8A02A80021B0EE480AFFF7C3FF01A847
:1036C000B0EE480A00F01AFA216801384A1C22605C
:1036D00049788DF80C1004212268013902F10103A8
:1036E0002360527800F8012FF6D101A8FFF754FEAD
:1036F0000AE007A0FCF772FF9FED0A0A04E004A0AD
:10370000FCF76CFF9FED070A04B0BDEC028B10BD07
:10371000496E76616C6964204865616465722E0D3E
:1037200000000000000000002DE9F04F83B040F2DF
:10373000F82BC2F2000BDBF8000040F23036C2F288
:10374000000630600178DBF80420EB39B1FA81F132
:1037500082424FEA511111D0DBF80430024600BF1B
:10376000C8070ED1501C306051788342A1F1EB01A3
:10377000B1FA81F14FEA51110246F1D10029024616
:1037800064D0501C3060507890286FD102A800217E
:103790000024FFF75BFF0DF1040A9FED4A0A504633
:1037A00000F0ACF90DF103008DF80340FFF7EAFDDE
:1037B0003068411C3160407802288DF8080067D3DA
:1037C00040F21C39AAF101044FF00108C2F20009CD
:1037D00017E000BFD9F80010023001EBC7014968BB
:1037E00030608847024640A0394608F10105FCF7E1
:1037F000D1FD05F101089DF808005FFA88F18142CA
:1038000046D23068411C316047783906E2D5042041
:10381000214600BF3268013802F10103336052785B
:1038200001F8012FF6D1D9F8000008F1040550F88D
:1038300037105046884710EE100A04F0FDFC02468F
:103840000B4621A03946FCF7A5FDD2E718A0FCF7EE
:10385000C5FEDBE90010421A0020012A15DB00BF7B
:10386000013A002A01F8010BFADC0EE010A0FCF787
:10387000B5FEDBE90010421A0020012A05DB00BF7B
:10388000013A002A01F8010BFADC03B0BDE8F08F21
:10389000DBE90001091A012905DB002201390029B1
:1038A00000F8012BFADC012003B0BDE8F08F00BF67
:1038B000496E76616C6964204865616465722E0D9D
:1038C000000000000000000049445F746D70203D5E
:1038D0002025233034782C2064617461203D20251C
:1038E000312E32660D0A000049445F746D70203D30
:1038F0002025233034782C2064617461203D2025FC
:10390000233034780D0A000040F2EC22C2F20002AB
:10391000007812686FF39F315054704740F2F822DC
:10392000C2F20002007812686FF39F315054704762
:1039300040F21030C2F200000078704740F22830A8
:10394000C2F2000000787047007840F21031C2F2F5
:103950000001087070470000007840F22831C2F280
:10396000000108707047000040F21C30C2F20000F5
:10397000016843F28530C0F60000C86443F2B930F4
:10398000C0F60000486543F21540C0F60000C86567
:1039900043F2CD40C0F60000486643F2DD30C0F689
:1039A0000000C1F8600443F2DD40C0F60000C1F839
:1039B000680443F20130C0F60000486743F29930D2
:1039C000C0F60000C1F8780643F2A920C0F6000056
:1039D000C1F8880443F2D520C0F60000C1F8900475
:1039E00043F27D20C0F60000C1F8980443F259303C
:1039F000C0F60000C1F8A00443F25120C0F6000058
:103A0000C1F8C80443F22520C0F60000C1F8D00474
:103A100043F2F910C0F60000C1F8D80443F209508F
:103A2000C0F60000C1F8880543F23150C0F600002E
:103A3000C1F8900543F21D50C0F60000C1F8C8055A
:103A400043F24550C0F60000C1F8D00543F259508A
:103A5000C0F60000C1F8480643F26950C0F6000005
:103A6000C1F8880643F23D10C0F60000C1F8A80472
:103A700043F25110C0F60000C1F8B00443F66D30B7
:103A8000C0F6000043F64D32C1F8B804C0F600029B
:103A90000120C1F80825704770B540F24C0640F28D
:103AA000EC24C2F20006C820C2F200043080204696
:103AB000C82101F065FA40F2F8253188C2F200050C
:103AC000284601F05DFA318840F20436C2F2000661
:103AD000304601F055FA206840F22C31C2F2000164
:103AE0000860286840F23031C2F200010860306896
:103AF00040F23431C2F20001086070BD80ED000A6E
:103B00007047000080B540F24031C2F2000100F081
:103B100029FE80BD40F23831C2F200010A78002A45
:103B200008BF704740F25403C2F200031B68002232
:103B30000A70C0E91E3300F029B8000040F23C30A2
:103B4000C2F2000080ED000A7047000090ED000A0C
:103B500040F2500040F23831C2F20000C2F20001DF
:103B600080ED000A012008707047000090ED000A07
:103B700040F2540040F23831C2F20000C2F20001BB
:103B800080ED000A01200870704700002DE9F04F19
:103B900081B02DED0E8BA0B040F22001C2F20001E9
:103BA00091ED000AB7EE00CA89468CEE000A40F299
:103BB0003C01C2F2000191ED001A054621EE400AD7
:103BC00002F08EF999ED001A95ED1F3A8CEE012A5C
:103BD000B8EE008A20EE033A85ED190A4FF07E50C8
:103BE000B0EE410AF0EE480A85ED1A3A15908DEDD7
:103BF000162A03F0DDF899ED001A15A88CEE011ACB
:103C0000B6EE00DA1890032100234FF07E5012AA7E
:103C10000DF13C0820EE0D0A1991129313901A929F
:103C200014461B91CDE90F331190CDE91C811EA8DC
:103C300018A903228DED170A8DED141A00F0D0FD9E
:103C400095ED190AB0EE089AF0EE490A03F0B0F8C3
:103C50003CEE400A8DED120A189495ED190A0126E2
:103C6000F0EE490A199603F0A3F895ED191AB0EE93
:103C700000AAB0EE40BAB0EE410AF0EE4A0A03F0F4
:103C800097F895ED191A3BEE400A30EE410A30EEF6
:103C90000C0AB7EE08EA99ED002A20EE0E0A22EE91
:103CA000000A8DED0F0A3CEE410AF0EE490ACDE91B
:103CB0001A8603F07DF899ED001AB0EE40BAF0EEE6
:103CC0004A0AB0EE410A03F073F815AC2BEE000A75
:103CD0000DAF18A9204603228DED0D0ACDE91C7603
:103CE00000F07EFD05F1440A50462146CDF804A0BF
:103CF00000F008FE204600F0EDFD95ED1A0AF0EE0A
:103D0000490A03F055F83CEE400A12A88DED120A5C
:103D1000189095ED1A0AF0EE490A199603F048F842
:103D200095ED1A1AB0EE40BAF0EE4A0AB0EE410A2A
:103D300003F03EF895ED1A1A3BEE400A30EE410AC8
:103D400030EE0C0A99ED002A20EE0E0A22EE000A4F
:103D50008DED0F0A3CEE410AF0EE490ACDE91A86D4
:103D600003F026F899ED001AB0EE409AF0EE4A0AF8
:103D7000B0EE410A03F01CF80DF1540829EE000AD8
:103D800018A9404603228DED0D0ACDE91C7600F0FE
:103D900027FD05F14C0630464146029600F0B2FD83
:103DA000404600F097FD0DF1340B584600F07EFDC3
:103DB0000DF12C09484600F079FD18AF1EAC3846CD
:103DC0002146524600F056FE5846394600F09AFD0C
:103DD000384600F07FFD18AF38462146324600F0E5
:103DE00049FE4846394600F08DFD384600F072FD28
:103DF00040F2200640F23404C2F20006C2F200048F
:103E000096ED000A94ED009AF0EE480A02F0D0FF19
:103E100096ED001A29EE000A8CEE011A20EE0D0A2A
:103E20008DED150A94ED000A012012AC00210DF170
:103E30003C0918AECDF860801990CDE91A400F9179
:103E4000CDE91C9020EE010A09A8314603228DED30
:103E5000120AA2464FF0010800F0C2FC4FF07E505B
:103E600018900020CDE919001596032007AF15AE74
:103E70001690384631460122002400F0B1FCCDE90D
:103E800018680DF1140818A940460122159400F095
:103E9000A7FC4FF07E51002203201591189619902F
:103EA000CDE912214FF07E51CDE91AA003200DF18A
:103EB0000C0ACDE916221492CDE90F221191CDE919
:103EC0001C9018A95046032200F08AFC15AE30461B
:103ED00059463A46D946BB4600F0CCFD18AF3846A5
:103EE0001EA9324600F066FD281D394600F00AFD85
:103EF000384600F0EFFC304600F0ECFC12AE3046E5
:103F00004946424600F0B6FD15AF384609A932468B
:103F100000F050FD18AC204601213A464B4600F017
:103F20004DFB05F10C00214600F0ECFC204600F0B2
:103F3000D1FC384600F0CEFC304600F0CBFC019FAF
:103F400015AC204639465A4600F094FD18AE30466E
:103F50005146224600F02EFD05F11400314600F0D6
:103F6000D1FC304600F0B6FC204600F0B3FC0DF169
:103F7000480A50460321012200F06AFC0DF13C0979
:103F80004846394642463E4600F074FD15AC204690
:103F900051464A4600F00EFD18AF38460121224630
:103FA000334600F00BFB05F11C00394600F0AAFC7B
:103FB000384600F08FFC204600F08CFC484600F0AC
:103FC00089FC504600F086FC15AC0DF12C0A204609
:103FD00051465A4600F04EFD18AE30461EA9224604
:103FE00000F0E8FC05F12400314600F08BFC30467F
:103FF00000F070FC204600F06DFC12AE30465146D9
:10400000424600F037FD15AC204609A9324600F0C3
:10401000D1FC18AF384601212246534600F0CEFAB3
:1040200005F12C00394600F06DFC384600F052FCDA
:10403000204600F04FFC304600F04CFCDDF80890C4
:1040400015AC204649465A4600F014FD18AE0DF155
:104050000C0A30465146224600F0ACFC05F1340013
:10406000314600F04FFC304600F034FC204600F0B2
:1040700031FC0DF1480840460321012200F0E8FB25
:104080000FAF0DF1140B384649465A4600F0F2FCCA
:1040900015AC204641463A4600F08CFC18AE30463E
:1040A000012122464B4600F089FA05F13C003146D9
:1040B00000F028FC304600F00DFC204600F00AFC21
:1040C000384600F007FC404600F004FC504600F083
:1040D00001FC584600F0FEFB07A800F0FBFB09A816
:1040E00000F0F8FB0BA800F0F5FB0DA800F0F2FBC8
:1040F0001EA800F0EFFB002020B0BDEC0E8B01B03D
:10410000BDE8F08F2DE9F0472DED048B8CB0804693
:104110000AA80D4600F0CAFBFFF7AEF940F22400F2
:10412000C2F200000078802840F0D48040F2743061
:10413000C2F200000078002840F0CC80B0EE408A47
:10414000FFF77AF940F23C30C2F2000090ED001A1D
:1041500001A80490012003A908AC30EE010A0590E3
:10416000CDE9061004A9204602228DED010A8DED4D
:10417000038A00F035FB05F15C063046214600F06D
:10418000C1FB204600F0A6FB2846FFF7C3FC95EDD7
:104190001D8A95ED1C0AB7EE001A40F2403031EE50
:1041A000481AC2F20000012121EE009A00F0FEFB45
:1041B00090ED000A95ED1E1A28EE000A39EE000A6D
:1041C000B0EEC02A0020B4EEC12A85ED1C0AF1EE43
:1041D00010FAB8BF012085F86C002EDA05F15407FB
:1041E0000DF1200905F1240148463A4600F042FC51
:1041F0000DF1040A05F12C015046324600F03AFC5C
:1042000004AC20464946524600F004FD0AA8214667
:1042100000F078FB204600F05DFB504600F05AFBB2
:10422000484600F057FB08AC05F1340120463A46F9
:1042300000F020FC05F13C012CE005F154070DF1E4
:104240002009291D48463A4600F014FC0DF1040AE5
:1042500005F10C015046324600F00CFC04AC20463F
:104260004946524600F0D6FC0AA8214600F04AFB17
:10427000204600F02FFB504600F02CFB484600F093
:1042800029FB08AC05F1140120463A4600F0F2FB88
:1042900005F11C0101AF3846324600F0EBFB04AEDD
:1042A000304621463A4600F0B5FC40F24030C2F2BA
:1042B0000000314600F026FB304600F00BFB38468C
:1042C00000F008FB204600F005FB05F154000AA9A8
:1042D00000F018FB40F24031C2F20001404600F00D
:1042E00041FA0AA800F0F6FA0CB0BDEC048BBDE868
:1042F000F08700002DE9F04F89B0071D04463846CD
:104300000D4600F0D3FA04F10C06304600F0CEFA68
:1043100004F1140B584600F0C9FA04F11C0A504687
:1043200000F0C4FA04F12409484600F0BFFA04F191
:104330002C00009000F0BAFA04F13400019000F073
:10434000B5FA04F13C00029000F0B0FA04F1440028
:10435000039000F0ABFA04F14C00049000F0A6FAD0
:1043600004F15400059000F0A1FA04F15C000690FD
:1043700000F09CFA4CF6CD414CF6CD420020C3F63D
:104380004C51C3F6CC5204F170030DF11C0884F8B3
:104390006C0007C3E067404629462A46257000F0B6
:1043A00057FA3846414600F0ADFA404600F092FA1E
:1043B000217807AF3846022200F04AFA30463946E3
:1043C00000F0A0FA384600F085FA07AE30462946DC
:1043D0002A4600F03DFA5846314600F093FA30463E
:1043E00000F078FA07AE30462946022200F030FA93
:1043F0005046314600F086FA304600F06BFA2178DC
:1044000007AE30460A4600F023FA4846314600F02F
:1044100079FA304600F05EFA217807AE3046022283
:1044200000F016FA0098314600F06CFA304600F0C1
:1044300051FA07AE304629462A4600F009FA01989B
:10444000314600F05FFA304600F044FA07AE3046DD
:104450002946022200F0FCF90298314600F052FA97
:10446000304600F037FA07AE30462946012200F008
:10447000EFF90398314600F045FA304600F02AFA89
:1044800007AE30462946012200F0E2F90498314691
:1044900000F038FA304600F01DFA07AE30462946E3
:1044A000012200F0D5F90598314600F02BFA30468C
:1044B00000F010FA07AD28460221012200F0C8F9E9
:1044C0000698294600F01EFA284600F003FA204616
:1044D00009B0BDE8F08F000010B52DED068B30EE71
:1044E000C00AC0ED000A80ED050A90ED074A90ED84
:1044F000021A90ED032A30EE446A21EE061A20EEED
:10450000022A90ED085A31EE021A34EE042A90ED98
:10451000043A30EE420A30EE050A23EE000A31EE8C
:10452000000A044680ED060A4069E169C4E9070112
:1045300094ED091A94ED0B8A30EE019AB0EE490A17
:10454000F0EE480A01F0E6FDB0EE40AAF1EE480AAE
:10455000B0EE490A01F0BAFDB5EEC09AF1EE10FADC
:10456000B8BFB0EE40AAB0EE4A0A84ED09AABDEC8D
:10457000068B10BD00234FF07E510022C4F2C823E9
:1045800001600271C0E90231C0E90422C0E90622DB
:10459000C0E9082282627047C0ED001A083080EC42
:1045A000030A704710B5044643F23330C4F2530097
:1045B000E0622046FFF7DEFF204610BD2DE9F04FF8
:1045C00083B0994692460229804667D0012940F07F
:1045D000B6809AF8041099F80400814240F0AF8048
:1045E0009AF8050099F805201044C2B201A800F01D
:1045F0002FF99DF80900002800F0A98001999DF885
:1046000008B09DF809C0A1F1040E002304E000BF2A
:104610000133634580F09B809AF805700024BB420B
:1046200038BF0124BBF1000F1AD0BB4218D2DAF810
:10463000001072460D1F012155F8044F52F8047FF7
:1046400054F8234047F823409AF805700024BB42F1
:1046500038BF0124594503D2BB4201F10101EBD31C
:10466000002CD5D1BBF1000FD2D0D9F80020D91B36
:10467000043A0125774600BF52F8046F57F8040F3B
:1046800056F821605D4540F823604FF0000028BFD8
:104690000120204305F10105EED0B9E79AF8052085
:1046A00099F8050082424AD19AF8040099F804105A
:1046B0000844C1B201A800F0CBF89DF8080000281A
:1046C00045D09DF808C09DF80910002229B900BF07
:1046D000013262453BD20029FAD09AF80470019D5C
:1046E0009DF80930002400BFBA420FD2DAF800600A
:1046F00055F8220056F8226056F8246040F82460ED
:1047000001349C42F0D323B9E2E700BF0B46002BF3
:10471000DED09AF80470BA42DAD3019ED9F800507C
:10472000D71B55F8277056F82260043F351F00BF8D
:1047300057F8040F013B45F8040FF9D1C8E740468C
:104740000121012200F084F803B0BDE8F08F01AD33
:104750004046294600F006F8284600F0BBF803B0B2
:10476000BDE8F08F2DE9F04381B00F7991F8059005
:104770000446077180F80590B800884600F068FC90
:10478000206047B34FEA8906002500BF304600F09D
:104790005FFC216841F825000135AF42F6D1D7B161
:1047A0000020B9F1000F05D10130B84213D0B9F1A2
:1047B000000FF9D02168D8F8002051F8201052F8E5
:1047C00020200439043A4B4652F8046F013B41F86B
:1047D000046FF9D1E8E7204601B0BDE8F08300009E
:1047E0002DE9F04381B04E685FFA82F80446027109
:1047F00046714FEA88000D4600F02AFCB8F1000F20
:10480000206020D0F7B24FEA8709002605E000BFFC
:104810000136464505F1080515D0484600F018FC5C
:104820002168002F41F82600F2D02068296850F84E
:104830002600043904383A4651F8043F013A40F85A
:10484000043FF9D1E4E7204601B0BDE8F083000061
:104850002DE9F041054601714271880090460E46EF
:1048600000F0F6FB2860F6B14FEA8807002400BF8D
:10487000384600F0EDFB296841F824000134A642D7
:10488000F6D186B10024B8F1000F05D10134A6425B
:1048900009D0B8F1000FF9D02868394650F8240043
:1048A000FBF710FFF2E72846BDE8F081B0B50446FB
:1048B00040F20110A080042000F0CAFB05462060F1
:1048C000042000F0C5FB01462860002220460A6053
:1048D000B0BD0000B0B501790446006859B10025AB
:1048E00050F82500002818BF00F0AEFB21790135F3
:1048F00020688D42F4D3002818BF00F0A5FB2046A5
:10490000B0BD00002DE9F04381B00446884248D094
:1049100088462179206861B1002500BF50F8250044
:10492000002818BF00F090FB2179013520688D42E6
:10493000F4D3002818BF00F087FB98F8047098F8AB
:104940000590B800277184F8059000F081FB206085
:104950003FB34FEA89060025304600F079FB216815
:1049600041F825000135AF42F6D1D7B10020B9F1A9
:10497000000F05D10130B84213D0B9F1000FF9D0C2
:104980002168D8F8002051F8201052F8202004396E
:10499000043A4B4652F8046F013B41F8046FF9D1D9
:1049A000E8E7204601B0BDE8F0830000006850F859
:1049B000210070472DE9F04381B08946904609797E
:1049C00099F80520FFF744FF99F8041098F804209F
:1049D00091422ED199F8056098F80520964228D189
:1049E00021B300232EB900BF01338B421ED0002E0D
:1049F000FAD0D9F800200768D8F8005052F82320E0
:104A000057F8237055F823503C1F2F1F151F3246AF
:104A100095ED010A97ED011A043530EE410A04378D
:104A200084ED010A0434013AF2D1DDE701B0BDE8BA
:104A3000F08303A0FBF7AEFC0020FBF7E5FD00BF11
:104A40004D6174726978204D61747269783A3A6F79
:104A500070657261746F722D28636F6E7374204D70
:104A6000617472697820266D3229204552524F5266
:104A70002E0000002DE9F04F83B091468A46097957
:104A80005279804601A8FFF7E3FE9AF804109AF8DD
:104A9000052099F8043002FB01F0012831D199F882
:104AA000052040461946FFF7D3FE98F80400002879
:104AB00000F09A8098F8040098F8056000222EB95A
:104AC0000132824280F09080002EF9D0DAF8001096
:104AD000D9F800700B68D8F8001057F8225051F838
:104AE0002210043D0F1F314693ED000A95ED011A87
:104AF000043520EE010A87ED010A04370139F3D1AC
:104B0000DEE799F805E00EFB03F001282DD14046C1
:104B1000FFF79EFE98F80400002865D098F804007E
:104B200098F80560002226B9013282425CD2002E3C
:104B3000FAD0D9F80010DAF800700B68D8F8001035
:104B400057F8225051F82210043D0F1F314600BF84
:104B500093ED000A95ED011A043520EE010A87ED68
:104B6000010A04370139F3D1DEE79A4242D1B9B3E1
:104B70004FF0000BBEF1000F07D100BF0BF1010B8E
:104B80008B452DD0BEF1000FF8D0DDF804C0002712
:104B90002AB900BF01377745F0D0002AFAD0DAF8F9
:104BA00000005CF82B4050F82B00D9F8005004EBC3
:104BB0008704043D0438164655F8043F90ED010A79
:104BC00003EB870393ED001A043020EE010A94ED05
:104BD000001A013E30EE010A84ED000AECD1D9E75B
:104BE00001A94046FFF7BEFD01A8FFF773FE03B021
:104BF000BDE8F08F02A0FBF7F1FC0020FBF704FDFD
:104C00004F70657261746F722A204552524F522E56
:104C10000D0000002DE9F04381B0894690460979E6
:104C200099F80520FFF714FE99F8041098F804206D
:104C300091422ED199F8056098F80520964228D126
:104C400021B300232EB900BF01338B421ED0002EAA
:104C5000FAD0D9F800200768D8F8005052F823207D
:104C600057F8237055F823503C1F2F1F151F32464D
:104C700095ED010A97ED011A043530EE010A04376B
:104C800084ED010A0434013AF2D1DDE701B0BDE858
:104C9000F08303A0FBF77EFB0020FBF7B5FC00BF11
:104CA0004D6174726978204D61747269783A3A6F17
:104CB00070657261746F722B28636F6E7374204D10
:104CC000617472697820266D3229204552524F5204
:104CD0002E00000090ED011A90ED052A90ED023AA9
:104CE00032EE011A31EE032A81EE022A016AB7EE92
:104CF000004AC16090ED033A34EE424A23EE043A92
:104D000022EE000A80ED002A30EE030A21EE042A8A
:104D100080ED041A80ED052A80ED062A80ED070A51
:104D200080ED080A704700004DF20A720021C3F6B8
:104D30002342016080ED010AC0ED020AC0E90311BF
:104D4000C0E9052180ED071A80ED081A416270471D
:104D5000C0E9003270470000006850F82100704739
:104D6000FBF75BFC6FF06040704700006FF00040A5
:104D70007047000010B50446006828B12168A26899
:104D80006160511A00F05CF8204610BD10B5044671
:104D9000006828B12168A2686160511A00F050F8DB
:104DA000204610BD80B584B00A4600F1080101A874
:104DB00000F012F8DDE90101884208D0002100BFAF
:104DC0000170DDE90102013090420190F8D101A8A3
:104DD00000F00AF804B080BD0B6803600B681A4449
:104DE000C0E90121704700000168826811607047C6
:104DF00070B516460D4604460020E060236111B1EF
:104E0000284600F027F981194219C4E9000120461B
:104E1000A160E26070BD000010B50446D0E9011049
:104E2000884203D001388142FCD1A060206820B1C3
:104E30002168E268511A00F003F8204610BD000016
:104E4000AFF3008000F002B9B0B50D460446FFF79D
:104E500089FFA8420BD3B5F1005F0BD2E80000F048
:104E6000F9F800EBC501C4E90000A160B0BD20461F
:104E7000FFF776FFFBF7D1FB01604968416001EB6A
:104E8000C201816070470000D0E900124A6070479B
:104E900070B584B004460020C4E90000A060D1B120
:104EA000204615460E46FFF7CFFF01A821463246A1
:104EB000FFF7E2FFDDE90201884209D0D5E90012DF
:104EC000C0E90012DDE90201083088420290F5D104
:104ED00001A8FFF7D9FF204604B070BDFFF74ABF15
:104EE000B0B50D460446FFF741FFA84207D3284658
:104EF00000F0B0F84119C4E90000A160B0BD20463F
:104F0000FFF72EFF80B584B00A46014601A800F0E5
:104F100011F8DDE90201884207D000210170DDE9C6
:104F20000202013090420290F8D101A800F008F886
:104F300004B080BD016049684160114481607047E0
:104F4000D0E900124A607047B0B50C460546D0E97A
:104F500000106368421A981A012A6060A8BFFBF724
:104F60006CFB6068296828606160A0686968686097
:104F7000A160E068A968A8606068E1602060B0BDD9
:104F8000D0E900239A1A8A4202D2891A00F006B8A0
:104F900098BF70470268114441607047F0B585B012
:104FA00004464068A2680D46111AA94228D2264636
:104FB00056F8081B401A47192046FFF7D7FEB8429B
:104FC00025D301462068A268121AB2EB510F04D211
:104FD000B7EB420F98BF5700394662686F46121A06
:104FE00038463346FFF704FF2946FFF7DBFE20462D
:104FF0003946FFF7A9FF3846FFF70EFF05B0F0BDB1
:105000002046294605B0BDE8F040FFF77BBF2046AB
:10501000FFF7A6FEB0B504460020C4E90000A0607A
:1050200039B120460D46FFF75BFF20462946FFF7C2
:1050300069FF2046B0BD0000FFF7A8BE40F268300F
:10504000C2F2000000687047AFF30080FBF7ABBB13
:10505000AFF3008010B50446002808BF012400BF4C
:105060002046FBF771FB002818BF10BDFFF7E6FFD5
:1050700008B18047F4E7002010BD000010B540F2F1
:105080004034C2F20004204603210122FFF7E0FB76
:1050900044F6D50040F20002C0F60000C0F600025F
:1050A0002146BDE81040FBF7C3BA000010B540F23E
:1050B0004C00C2F2000040F2EC240188C2F200046D
:1050C0002046FFF7A7FF45F2390040F20002C0F684
:1050D0000000C0F600022146BDE81040FBF7A8BA68
:1050E00040F24000C2F2000090ED000A40F244009D
:1050F000C2F20000D0ED000A40F2BC209FED021A7F
:10510000C2F20000FFF710BE0000000010B540F230
:105110004C00C2F2000040F2F8240188C2F2000400
:105120002046FFF777FF45F2390040F20002C0F653
:105130000000C0F600022146BDE81040FBF778BA37
:1051400010B540F20434C2F200042046C821FFF733
:1051500061FF45F2390040F20002C0F60000C0F6DF
:1051600000022146BDE81040FBF762BA40F2EC2095
:10517000C2F20000006840F22C31C2F20001086067
:105180007047000040F2F820C2F20000006840F2D0
:105190003031C2F2000108607047000040F2043074
:1051A000C2F20000006840F23431C2F2000108602F
:1051B0007047000040F21430C2F2000000210022CB
:1051C0000023FFF7C5BD000010B540F21C34C2F249
:1051D000000440F21432C2F2000220464FF4807103
:1051E000FFF756FE44F6DD6040F20002C0F6000014
:1051F000C0F600022146BDE81040FBF719BA0000D6
:1052000000207047FEE700004FF0FF3070470000BD
:1052100000207047012070474FF0FF3070470000BA
:10522000002070477047000010B504466FF004007E
:10523000FDF776F940F26E31E008C2F20001087025
:105240004FF47A71484340F26C31C2F20001088099
:1052500010BD00004FF0FF307047000044F20041E5
:10526000C4F200010A885206FCD5C2B28A80704797
:10527000CAB049A8FEF780F9FCF7AAFBFCF794FB3B
:1052800029A80321FFF736F8FEF780FC0EA8FDF7EA
:1052900069FFFDF789FD4FF4A060FDF757F8A820DE
:1052A000FFF7C2FF4FF4E13000F0E0F94FF4E130D6
:1052B000FDF73AFA4FF4E130FDF7C2FAFCF76AFF66
:1052C000FCF74EFFFCF734FFFCF702FBFCF7F6FDA2
:1052D000FCF74AFEFCF7E8FB002000210027FCF762
:1052E000C3FB00200021FCF7CFFB95A0FBF776F96C
:1052F000FEF76CF89FED978A40F28C2688EE000A44
:1053000040F20C04C2F20006C2F200044FF00009A1
:105310004FF0000B4FF0000A0025BDEEC00A10EE62
:10532000108A00BFFCF752FB70B101A837800197CB
:10533000FCF762FBFCF750FBFEF748F888EE000A2A
:10534000BDEEC00A10EE108AFEF700F8002840F00B
:10535000F180207801280BD119F101004BF10001F7
:105360004FF47A7200232770FAF79BFF91469B4611
:1053700059EA0B0040F0DE802320FDF76FFB4FF071
:1053800000094FF0000BD5E0FCF720FB00287BD193
:10539000FCF71AFBA0B170A0FBF720F901A8378039
:1053A0000197FCF71BFBFCF715FB10EE100A02F04F
:1053B00043FF02466EA00B46FAF7ECFFFCF70AFB30
:1053C0002078012840F0B6801AF101004FEAE87316
:1053D00045F1000142462770FAF763FF52EA0300E5
:1053E00002D092461D46A5E0FDF7E0FF002845D01B
:1053F000FEF70AF840285AD0802841D1FDF790FFE7
:1054000038B1FDF793FF0EA8FDF7CEFC29A8FEF7F3
:10541000BDFB0CAD284629A9FEF774FE2846FFF710
:1054200059FA0DF1280A5046FEF76CFBFDF770FFA4
:1054300001AE0EAD30462946524609AB8DED090A44
:10544000FDF766FD304600214FF0000AFFF7AEFA87
:10545000FEF702F83046FFF73DFA0AA8FFF73AFADE
:105460002846FDF753FB4269D0E9031C90E8680029
:105470000692CDE9041C01A968C14EE0FEF720F8B0
:105480004FF0000A002555E03FA0FBF7A7F801A860
:1054900037800197FCF7B0FAFCF79EFAFDF796FF0C
:1054A00088EE000ABDEEC00A10EE108A42E0FDF759
:1054B00037FF20B1FDF73AFF0EA8FDF775FC0DF19F
:1054C000280A5046FEF71EFBFDF722FF01AE0EAD87
:1054D00030462946524609AB8DED090AFDF718FD05
:1054E000304600214FF0000AFFF760FAFDF7B4FFE5
:1054F0003046FFF7EFF90AA8FFF7ECF92846FDF769
:1055000005FBD0E904C2D0E90036D0E90251CDE96B
:1055100005C2CDE90351CDE90136C1698069089121
:10552000079001A800F03CF840F28C260025C2F25A
:10553000000600BFFDF70AFF00283FF4F3AE23E7A3
:10554000496E697469616C697A696E672E2E2E0DD9
:105550000000000000007A444943204D65737361E8
:1055600067652072656365697665642E0D000000CD
:105570007265666572656E6365203D202523312E58
:1055800036660D0A000000005043204D65737361BC
:1055900067652072656365697665642E0D0000009D
:1055A00040F2C41149F2EB02C2F20001C8F22D121E
:1055B0000A6002684A6082220A724268C1F80920C1
:1055C00083224A738268C1F80E2084228A74C268DA
:1055D000C1F813208622CA7502698A6187220A7778
:1055E0004269C1F81D20882281F821208269C1F812
:1055F0002220852281F82620C06940F27032C2F252
:1056000000021060C1F8270040F60D222D20A1F8FD
:105610002B20FCF7B5B9000080B52DED028BB0EE64
:10562000408AB5EEC00A9FED0F0AF1EE10FA0DDACE
:10563000FCF772FC9FED0C0AB0EEC81A21EE000ACE
:10564000BDEC028BBDE88040FCF7BABCFCF7B8FCAF
:105650009FED050A28EE000ABDEC028BBDE88040F4
:10566000FCF75ABC0000000000007A4470B588B016
:10567000054601200121FCF775FE10200121FCF7F1
:1056800089FE41F20004C4F2010404F5704630467C
:1056900009210722FCF702FD30460A210722FCF708
:1056A000FDFC4FF4C060069040F20220C0F20010F2
:1056B000079006A93046FCF7ADFC00204FF44021CE
:1056C000029503900491ADF8140002A92046FDF75D
:1056D0005FF9204640F225510122FDF741F940F2E1
:1056E0002530C0F20310019001A8FCF7FDFD204613
:1056F0000121FDF7FFF808B070BD5FEA400C08BF5C
:1057000091F0000F4FEA8C234FEAC12243EA515136
:105710004FEA1C5018BF00F5F0404FEA300018BFA8
:1057200041F000415FEA6C5C00F02980BCF1FF3F72
:1057300008BF40F080407047130C06BF12044FF0C2
:10574000100C4FF0000C130E04BF12020CF1080CE9
:10575000130F04BF12010CF1040C930F04BF92004D
:105760000CF1020CD30F04BF52000CF1010C1146D6
:105770004FF00002A0F11F00A0EB0C00704711F0E9
:10578000004F08BF704731F000413FF4D5AF0B0C1C
:1057900006BF09044FF0100C4FF0000C0B0E04BFB5
:1057A00009020CF1080C0B0F04BF09010CF1040CE9
:1057B0008B0F04BF89000CF1020CCB0F04BF490012
:1057C0000CF1010CCCF1200322FA03F341EA0301AE
:1057D00002FA0CF2A0EB0C0000F10100704723F07C
:1057E0007F4720F07F4C80EA030000F00040ACEBE4
:1057F000070303F57C5303F1FF032DE9804909B446
:105800004FEA144324EA03484FEA154B25EA0B4EAE
:105810000FF2042606EB13273E7803FB0667C7F555
:10582000000707FB06F64FEAD64606F102064FEAE6
:10583000543707FB066CCCF1005C4FEA1C472CEA9E
:10584000074C0CFB06F507FB06F404EB15464FEA84
:10585000961649085FEA320234BF00204FF000403C
:105860004FEAD13706FB07FC4FEA1C4C0CFB0BF749
:10587000D21B03FB0CF761EB07010CFB0EF7B0EB3F
:10588000074072EB17420CFB08F734BFA2EB07424C
:10589000B2EB074261EB17414FEA0C444FEA910724
:1058A00006FB07FC4FEA1C4C0CFB0BF7B0EBC740A8
:1058B00072EB573203FB0CF734BFA2EBC742B2EBDB
:1058C000C74261EB57310CFB0EF7B0EBC70072EB30
:1058D00057720CFB08F734BFA2EBC702B2EBC7024A
:1058E00061EB57714FEA816141EA92114FEA82629E
:1058F00042EA90124FEA806004EBCC04039F4FEA27
:10590000D13706FB07FC4FEA1C4C0CFB0BF7D21BF4
:1059100003FB0CF761EB07010CFB0EF7B0EB074044
:1059200072EB17420CFB08F734BFA2EB0742B2EB55
:10593000074261EB17414FEA8C5504EB9C244FEA78
:10594000910706FB07FC4FEA1C4C0CFB0BF7B0EB76
:10595000C74072EB573203FB0CF734BFA2EBC742D0
:10596000B2EBC74261EB57310CFB0EF7B0EBC7004F
:1059700072EB57720CFB08F734BFA2EBC702B2EB15
:10598000C70261EB57714FEA816141EA92114FEA18
:10599000826242EA90124FEA806015EB4C2544F196
:1059A00000044FEAD13706FB07FC4FEA1C4C0CFB06
:1059B0000BF7D21B03FB0CF761EB07010CFB0EF797
:1059C000B0EB074072EB17420CFB08F734BFA2EBB9
:1059D0000742B2EB074261EB17414FEA813141EADE
:1059E00092414FEA823242EA90424FEA80304FEAD7
:1059F0000C7615EB1C1544F1000448EA03434EEA0B
:105A00000B484FF0000EB2EB080C71EB030724BFFC
:105A1000624639464EEB0E0E4FF0000B0018524115
:105A200049414BEB0B0BB2EB080C71EB03077BF11D
:105A3000000B24BF624639464EEB0E0E4FF0000BB2
:105A40000018524149414BEB0B0BB2EB080C71EBC8
:105A500003077BF1000B24BF624639464EEB0E0E66
:105A600051EA020718BF46F0010616EB0E7655F113
:105A7000000254F1000103D5BDE88901BDE80088AA
:105A8000BDE88901BDE80048B619524141EB01016A
:105A9000A3F10103704780807F7E7D7C7B7A7978DB
:105AA000777676757473727171706F6E6E6D6C6CE3
:105AB0006B6A6A6968686766666564646363626185
:105AC0006160605F5F5E5E5D5D5C5C5B5B5A5A5906
:105AD0005958585757565655555554545353525272
